:020000040000FA
:10000000B0460020250200002D0200002F02000053
:100010003102000033020000350200000000000041
:100020000000000000000000000000003702000097
:1000300039020000000000003B020000D14901002D
:100040003F0200003F0200003F0200003F020000AC
:100050003F0200003F0200003F0200003F0200009C
:100060003F0200003F0200003F0200003F0200008C
:10007000554B01003F0200003F0200003F0200001C
:100080008D320000D13200002533000065330000BE
:100090003F020000B93300003F0200003F020000B1
:1000A000790400003F020000FD4A01003F02000009
:1000B0003F0200003F0200003F0200003F0200003C
:1000C0003F0200003F0200003F0200003F0200002C
:1000D0003F02000049EB00003F02000075EB00000A
:1000E000A1EB000000000000000000000000000084
:1000F0000000000000000000000000000000000000
:1001000000000000000000000000000000000000EF
:1001100000000000000000000000000000000000DF
:1001200000000000000000000000000000000000CF
:1001300000000000000000000000000000000000BF
:100140000000000000F002F800F05CF80AA090E85F
:10015000000C82448344AAF10107DA4501D100F082
:1001600051F8AFF2090EBAE80F0013F0010F18BFF3
:10017000FB1A43F00103184780C40100A0C401002A
:100180000A444FF0000C10F8013B13F0070408BFBD
:1001900010F8014B1D1108BF10F8015B641E05D05B
:1001A00010F8016B641E01F8016BF9D113F0080F10
:1001B0001EBF10F8014BAD1C0C1B09D16D1E58BFA2
:1001C00001F801CBFAD505E014F8016B01F8016BD9
:1001D0006D1EF9D59142D6D370470000002300244C
:1001E00000250026103A28BF78C1FBD8520728BF47
:1001F00030C148BF0B6070471FB51AF0A0F91FBD92
:1002000010B510BD00F002F91146FFF7F5FF17F029
:1002100061FD00F020F903B4FFF7F2FF03BC00F02A
:1002200023F900000948804709480047FEE7FEE738
:10023000FEE7FEE7FEE7FEE7FEE7FEE7FEE7FEE796
:1002400004480549034A054B70470000E149010095
:1002500045010000B0440020B0460020B04400201A
:10026000032A40F2308010F0030C00F0158011F8E2
:10027000013BBCF1020F624498BF11F801CB00F8BA
:10028000013B38BF11F8013BA2F1040298BF00F80E
:1002900001CB38BF00F8013B11F0030300F02580CB
:1002A000083AC0F0088051F8043B083A51F804CBF2
:1002B000A0E80810F5E7121D5CBF51F8043B40F8B8
:1002C000043BAFF30080D20724BF11F8013B11F8C3
:1002D00001CB48BF11F8012B24BF00F8013B00F807
:1002E00001CB48BF00F8012B704710B5203AC0F091
:1002F0000B80B1E81850203AA0E81850B1E8185027
:10030000A0E81850BFF4F5AF5FEA027C24BFB1E863
:100310001850A0E8185044BF18C918C0BDE81040D4
:100320005FEA827C24BF51F8043B40F8043B08BFDD
:100330007047D20728BF31F8023B48BF11F8012BA4
:1003400028BF20F8023B48BF00F8012B70474FF050
:1003500000020429C0F0128010F0030C00F01B8092
:10036000CCF1040CBCF1020F18BF00F8012BA8BFA0
:1003700020F8022BA1EB0C0100F00DB85FEAC17C64
:1003800024BF00F8012B00F8012B48BF00F8012B17
:1003900070474FF0000200B5134694469646203948
:1003A00022BFA0E80C50A0E80C50B1F12001BFF42E
:1003B000F7AF090728BFA0E80C5048BF0CC05DF894
:1003C00004EB890028BF40F8042B08BF704748BFE2
:1003D00020F8022B11F0804F18BF00F8012B704756
:1003E00070477047704710B500F008F8006810BDFE
:1003F00010B5044600F002F8046010BD00487047D4
:100400005044002000487047504400207546FFF7D4
:10041000F9FFAE4605006946534620F007008546C1
:1004200018B020B5FFF70CFFBDE820404FF00006E4
:100430004FF000074FF000084FF0000B21F00701CC
:10044000AC46ACE8C009ACE8C009ACE8C009ACE80F
:10045000C0098D46704710B50446AFF300802046B2
:10046000BDE81040FFF7D7BE01491820ABBEFEE73C
:10047000260002007047000070B50E490968886EBA
:10048000804704460D460B480068C26E2046294648
:100490009047012304EA03000021484049400843F3
:1004A00006D004480068416C012088470249088052
:1004B00070BD0000040800027806002010B51E4937
:1004C0000968086880471C48006800234FF4400210
:1004D00019468468D010A0471748203000680322CE
:1004E0001021C36905209847134800680121026A5A
:1004F0000846904710480068002301221946046B03
:100500001046A0470C480068416F002088470A4900
:100510000968486A804708490968086F80470648A3
:100520000068C26D01200021904703482830006810
:1005300081692820884710BD040800023B4A02EB6D
:10054000811292ED000A80ED020A384A02EB811214
:1005500092ED010A80ED030A344A02EB811292ED1A
:10056000020ABCEEC00A10EE102A02822F4A02EBE9
:10057000811292ED030A80ED0E0A2C4A02EB8112E1
:1005800092ED040A80ED0F0A284A02EB811292EDE7
:10059000050A80ED100A254A02EB811292ED060A47
:1005A00080ED170A214A02EB811292ED070A80EDD5
:1005B000180A1E4A02EB811292ED080A80ED190A10
:1005C0001A4A02EB811292ED090A80ED1A0A174AC3
:1005D00002EB811292ED0A0ABCEEC00A10EE102A5C
:1005E000A0F87C20114A02EB811292ED0B0A80EDFB
:1005F000200A0E4A02EB811292ED0C0A80ED1B0AD2
:100600000A4A02EB811292ED0D0A80ED1C0A074A9C
:1006100002EB811292ED0E0A80ED1D0A034A02EBF5
:10062000811292ED0F0A80ED110A7047B8C30100E4
:1006300070B52A48006802210268072090472748C1
:10064000006804210269072090470221072004F076
:1006500075FE0421072004F001FE012804D147F2B1
:1006600030501F4908601FE000250A221D494FF441
:10067000C86000F04AF8002009E01B49095C194AEB
:10068000125C914201D0691CCDB2411C88B20A288B
:10069000F3DB002D04DD44F250601149086002E0F4
:1006A00012480F49086000BF40F2FF7000F03EF8AA
:1006B0000446552C01D1002070BD552140F2FF7039
:1006C00000F07FF840F2FF7000F030F80446552C3F
:1006D00001D10020F0E70120EEE70000240800022D
:1006E000F4070020DC3200200008002000D6830040
:1006F00010B505F03AFF03E04FF42F7016F06FFDD0
:10070000FFF796FF0028F7D110BD70B506460C46DE
:10071000154608E03046721C96B200F007F804F85F
:10072000010B681E85B2002DF4D170BD70B5044672
:10073000002612F0A4FF2546E11704EB116109120F
:10074000A02202EB4101C8B212F071FF12F0C7FF04
:10075000E11704EB11610912A4EB0121C8B212F0F8
:1007600066FF12F0BCFF12F08AFFA12012F05FFFBB
:1007700012F0B5FF002012F032FF064612F097FF8C
:10078000304670BD38B504460D46A8B2042269460D
:10079000FFF7BBFF9DED000A84ED000A38BD70B580
:1007A00005460C46164606E02178284600F009F872
:1007B000681C85B2641C301EA6F101018EB2F3D113
:1007C00070BD70B504460E4612F059FF2546E1177C
:1007D00004EB11610912A02202EB4101C8B212F030
:1007E00026FF12F07CFFE11704EB11610912A4EB64
:1007F0000121C8B212F01BFF12F071FF304612F057
:1008000016FF12F06CFF12F052FF0A2016F0E7FC00
:1008100070BD38B504460D4620788DF8000020885C
:10082000000A8DF801002068000C8DF80200206895
:10083000000E8DF80300A8B204226946FFF7AFFF4F
:1008400038BD000030B587B000240020049005902A
:1008500006907E480078052873DC002039E07C494A
:1008600091ED000AF3EE040AB4EEE00AF1EE10FA9C
:100870002AD8784991F86410012925D100241BE079
:100880007449583101EB840191ED000ADFED720AE1
:1008900060EE200A9FED711A80EE810A04A901EB37
:1008A0008401D1ED000A30EE200A04A901EB840195
:1008B00081ED000A611C8CB2032CE1DB411C88B283
:1008C0000021644A82F864100121654A5F4B1B785D
:1008D000D154B0F57A7FC2DBDDED040A00EE100AD8
:1008E000B8EE400A80EE801A5849097801EB4101C0
:1008F0005C4A02EB810181ED001ADDED050A00EE94
:10090000100AB8EE400A80EE801A5049097801EBCF
:10091000410102EB810181ED011ADDED060A00EED5
:10092000100AB8EE400A80EE801A4849097801EBB7
:10093000410102EB810181ED021A0621434A117047
:1009400000BF4748007846494978084044498978BB
:1009500008404349C978084041490979084040495D
:100960004979084000286FD03F48007800286BD1B3
:1009700001203D49087000203C4908703C4A3D492F
:10098000384801F0C5F83C490870002504E0002013
:1009900033494855681C85B2062DF8DB3648007887
:1009A000012839D13348D0ED021AB0EE611AD0EDEA
:1009B000011AF0EE610AD0ED001AB0EE610A2F497B
:1009C000022015F0A0F92A48D0ED021AB0EE611A03
:1009D000D0ED011AF0EE610AD0ED001AB0EE610A16
:1009E0002649052015F08FF90EF0DAF90020244988
:1009F000088010210B220346B6EE000ACDE9002143
:100A000002904FF47A7240F6B8311E4800F080FC34
:100A100001201D49487213E0002019490880102167
:100A20000B220346B6EE000ACDE900210290C8224F
:100A300041F28831134800F06BFC00201349088014
:100A4000012007B030BDFFE70020FAE7D100002009
:100A50009C090020A02500200AE81C4100008045D8
:100A6000D3000020740B0020D9000020D200002009
:100A7000C4000020500B0020D0000020302F0020A8
:100A800008000020100B00200E3F00204401002031
:100A900010B52DED028B84B00024FE48008840F292
:100AA0004C4188422EDCFC48B0F9000019F079F97D
:100AB00041EC180B9FEDF90B53EC102B19F0D6FA03
:100AC00020D8F848B0F9000019F06BF941EC180B88
:100AD0009FEDF50B53EC102B19F08EF912D8F4485A
:100AE000B0F9000019F05DF941EC180B9FEDF10B26
:100AF00053EC102B19F0BAFA04D8F0480088401CC7
:100B0000EE490880E348008840F24C4188422EDCE0
:100B1000E148B0F9000019F044F941EC180B9FEDE1
:100B2000DF0B53EC102B19F0A1FA20D8DD48B0F9F7
:100B3000000019F036F941EC180B9FEDDB0B53EC7C
:100B4000102B19F059F912D8D948B0F9000019F052
:100B500028F941EC180B9FEDD70B53EC102B19F033
:100B600085FA04D8D5480088B0F5167F03DAD44852
:100B70000078022852D1D348008800284ED10120A5
:100B8000D1490880D14908700020D149087001205E
:100B900010210B220023B6EE000ACDE900210290BD
:100BA00064224FF47A71CB4800F0B2FB0620CA49A8
:100BB00008700020C9490870C049088000241DE061
:100BC0000020C74908559FEDC70A04EB4400C649F9
:100BD00001EB800080ED000A9FEDC20A04EB4400A7
:100BE00001EB800080ED010A9FEDBE0A04EB44009A
:100BF00001EB800080ED020A601C84B2062CDFDB72
:100C00000A20BA490880012012F084F9012012F06C
:100C1000A9F90020B6490880A9490870AB480078B6
:100C200001287DD19B48008840F24C41884213DC6A
:100C30009948B0F9000019F0B4F841EC180B9FED99
:100C4000AD0B53EC102B19F0D7F805D89548008858
:100C500010B99748008818B1A8480078012817D122
:100C6000A7480088401CA649088008460088142828
:100C700003DAA2480078012806D1002096490870BE
:100C8000A0490880A049088000209C49087058E1CC
:100C90008048008840F24C41884213DC7E4800883E
:100CA00080B98048B0F9000019F07BF841EC180BCE
:100CB0009FED800B53EC102B19F0D8F902D87C482B
:100CC000008818B18D480078022818D18C48008817
:100CD000401C8B49088008460088142803DA87489E
:100CE0000078022807D101207B490870002085493F
:100CF00008808549088000208049087021E1654806
:100D0000008840F24C41884215DC6348008890B965
:100D10006448B0F9000019F044F841EC180B00E009
:100D200016E19FED610B53EC102B19F065F802D81A
:100D30005F48008818B171480078032818D17048BE
:100D40000088401C6E49088008460088142803DA91
:100D50006A480078032807D102205F490870002004
:100D60006849088068490880002064490870E8E004
:100D70004848008840F24C41884213DC46480088CD
:100D800080B94848008868B94948B0F9000019F0AE
:100D900008F841EC180B9FED470B53EC102B19F0A2
:100DA00065F903D955480078042818D154480088BB
:100DB000401C5349088008460088142803DA4F482D
:100DC0000078042807D103204349087000204D49CA
:100DD00008804D490880002048490870B1E02D483E
:100DE000008840F24C41884213DC2B48008880B9CF
:100DF0002C48008868B92E48B0F9000018F0D1FFDF
:100E000041EC180B9FED280B53EC102B18F0F4FF5E
:100E100003D93A480078052818D139480088401C81
:100E20003749088008460088142803DA33480078D8
:100E3000052807D10420284908700020314908807E
:100E40003149088000202D4908707AE01148008857
:100E500040F24C41884213DC0F48B0F9000018F012
:100E6000A0FF41EC180B9FED0D0B53EC102B19F06C
:100E7000FDF805D20B48008810B90D48008818B15C
:100E80001E480078062855D11D480088401C1C4982
:100E900008803BE070010020760100200000000087
:100EA00000C062407401002000000000008036C0D5
:100EB000720100200000000000803640DA000020AF
:100EC000E80A00207C01002008000020D200002059
:100ED000D0000020100B0020D1000020D9000020FD
:100EE000D300002000000000740B0020440100200B
:100EF0008A0100200000000000C062C0E90A002052
:100F0000DC000020840100208601002008460088C3
:100F1000142803DA10480078062807D105200F4965
:100F2000087000200E4908800E49088000200A49F8
:100F3000087006E00C49088800EBD07149100A4A95
:100F4000118009480088C82802DB00200649088073
:100F500004B0BDEC028B10BDE90A0020D1000020D6
:100F60008401002086010020DC00002010B52DED5A
:100F7000048B0446F0EE408AB0EE609AB0EE418AEF
:100F8000374880ED019AC0ED558A364890ED000A49
:100F90003548D0ED000A30EE600A314880ED560A3F
:100FA000324890ED000A3248D0ED000A30EE600A77
:100FB0002B4880ED020A00F5A8700CF0BBFD284814
:100FC0000CF0B8FD264890ED0C0A80ED2B0A90ED50
:100FD000600A80ED7F0A5CB3012C3CD1B5EEC08A7B
:100FE000F1EE10FA1CD190EDA90AB5EEC00AF1EEAF
:100FF00010FA05D11F4890ED000A194880EDA90AA2
:101000001C4890ED000A164880EDAA0A00F52870E9
:101010000DF0F6F9124890EDB40A80EDD30A06E01F
:101020009FED150A0E4880EDA90A80EDD38A12E0E3
:101030000B4880EDA98A0F4890ED000A084880ED22
:10104000AA0A00F528700DF0DBF9054890EDB40A06
:1010500080EDD30A00BF00BFBDEC048B10BD0000C3
:101060004410002078090020240100207409002089
:10107000200100207C0900200000000010B5094874
:10108000D0ED061AB0EE611AD0ED051AF0EE610A45
:10109000D0ED041AB0EE610A0120FFF767FF05F0FA
:1010A00003F810BDF838002010B50446112C7DD28D
:1010B000DFE804F009162A3E485C5D5E5F6061620D
:1010C000636465668E000AF065FE6048B0F904004E
:1010D00000EE100AB8EEC00A5D4880ED060AB2E0E4
:1010E00000F072FF5948B0F9040000EE100AB8EEA3
:1010F000C00A574880ED060ADFED560A9FED550AF3
:10110000002003F06BFD9EE014F094F94F48B0F915
:10111000040000EE100AB8EEC00A4D4880ED060A41
:10112000DFED4C0A9FED4B0A002003F057FD8AE0EB
:1011300012F0C8FEDFED470A9FED460A002003F0DB
:101140004DFD80E003F0DEFF4048B0F9040000EE02
:10115000100AB8EEC00A3E4880ED060ADFED3D0AEF
:101160009FED3C0A002003F039FD6CE000BF00BF9A
:1011700000BF00BF00BF00BF00BF00BF00BF00BF77
:101180003248B0F9000000EE100AB8EEC00A30484C
:1011900080ED040A2D48B0F9020000EE100AB8EE06
:1011A000C00A2B4880ED050A284800E025E0B0F988
:1011B000040000EE100AB8EEC00A254880ED060AC9
:1011C000DFED240A9FED230A002003F007FD3AE03B
:1011D00000200BF009FF1D48B0F9040000EE100AD2
:1011E000B8EEC00A1A4880ED060ADFED1B0A9FED33
:1011F000190A022003F0F2FC25E01448B0F90000BF
:1012000000EE100AB8EEC00A114880ED040A0F483B
:10121000B0F9020000EE100AB8EEC00A0C4880EDEA
:10122000050A0A48B0F9040000EE100AB8EEC00A38
:10123000074880ED060ADFED070A9FED060A002049
:1012400003F0CCFC00BF00BF10BD0000441E002016
:10125000F838002000000000000048C210B509481E
:101260000068402102680520904706480068102168
:1012700002680B20904703480068202102680B2079
:10128000904710BD2408000210B5044620880128AC
:1012900003DB2088401E208005E0218A1B4BE0688C
:1012A0001B685A689047208810B9A07C01282CD16F
:1012B0002089401C2081208900EB800061888842C1
:1012C00001DB00202081608800EE100AB8EE400AA1
:1012D000D4ED010A60EE200A208900EB800000EEC8
:1012E000100AB8EEC00AF4EEC00AF1EE10FA06DBFE
:1012F000218A064BE0681B689A68904705E0218ABE
:10130000024BE0681B685A68904710BD2408000231
:10131000F0B505AC70CC0527B1FBF7F7078042802C
:1013200080ED010A0381C46005828674F0BD00006F
:1013300010B504464CB97E48FFF7A6FF7D48FFF77D
:10134000A3FF7D48FFF7A0FFF1E0012C7ED17B4891
:10135000007888B97748FFF797FF754B198AD868E6
:10136000774B1B685A689047734B198AD868744B3F
:101370001B685A689047DAE070480078012811D15C
:101380006C48FFF781FF6A4B198AD8686C4B1B6861
:101390005A689047684B198AD868694B1B685A6825
:1013A0009047C4E065480078022811D16148FFF7F2
:1013B0006BFF5F4B198AD868614B1B685A6890476E
:1013C0005D4B198AD8685E4B1B685A689047AEE03F
:1013D0005A480078032811D15648FFF755FF544B5F
:1013E000198AD868564B1B685A689047524B198A1D
:1013F000D868534B1B685A68904798E04F4800786C
:10140000042811D14B48FFF73FFF494B198AD86890
:101410004B4B1B685A689047474B198AD868484B12
:101420001B685A68904782E044480078052813D129
:101430004048FFF729FF3E4B198AD868404B1B688C
:101440005A6890473C4B198AD86800E00EE03C4B44
:101450001B685A6890476AE03548FFF715FF354822
:10146000FFF712FF3448FFF70FFF60E0022C4AD16C
:101470003448007888B92F48FFF706FF2C4B198AAB
:10148000D8682F4B1B685A6890472B4B198AD8682D
:101490002B4B1B685A68904749E02A48007801287E
:1014A00011D12448FFF7F0FE214B198AD868244B4C
:1014B0001B685A689047204B198AD868204B1B68D4
:1014C0005A68904733E01F480078022811D1194824
:1014D000FFF7DAFE164B198AD868194B1B685A6851
:1014E0009047154B198AD868154B1B685A68904766
:1014F0001DE00F48FFF7C8FE0E48FFF7C5FE0E4877
:10150000FFF7C2FE13E0032C11D10D480068402103
:101510004268052090470A480068102142680B2065
:10152000904707480068202142680B20904710BD73
:10153000FC0A0020100B0020240B0020D10000200A
:1015400024080002F000002010B52748DFED270A2C
:101550009FED270A13F0E0F82648DFED270A9FEDFC
:10156000240A13F0D9F82548DFED250A9FED200A5B
:1015700013F0D2F82348F3EE0E0A9FED1D0A13F084
:10158000CBF82148F3EE040A9FED190A13F0C4F8D2
:101590001E48F2EE0E0A9FED160A13F0BDF81C4825
:1015A000F2EE040A9FED120A13F0B6F81948F1EEB4
:1015B000040A9FED0F0A13F0AFF81748F0EE000A87
:1015C0009FED0B0A13F0A8F81448F2EE040A9FED01
:1015D000140A13F0A1F81348DFED070A9FED040A7F
:1015E00013F09AF810BD00001C0D00200000A0426E
:1015F0000000C843340D0020000070424C0D002054
:1016000000004C42640D00207C0D0020940D002051
:10161000AC0D0020C40D0020DC0D0020CC0E0020FD
:1016200000004842E40E002046F65A11064A1160B6
:101630000549503109680143034A503211600121C4
:10164000024A1170704700000004014000802042EF
:1016500070B507480068C0F302240548006800F030
:10166000E06005012946204614F0F8FB70BD00003B
:1016700008040140F0B52DED028B83B001AB02AA46
:101680000021032013F07CF914F056FC0646029862
:1016900020B9304603B0BDEC028BF0BD274800688E
:1016A000C0F3090404F4007010B144F47E4004B2A5
:1016B0000CB93046EEE7224886420ED12148007828
:1016C00028B1019890ED0F8A0198456A13E00198BE
:1016D00090ED078A019845680DE01A48007828B116
:1016E000019890ED0E8A0198056A04E0019890ED4A
:1016F000068A0198056800EE104AB8EEC00A68EE46
:10170000000AC5F5407000EE100AB8EEC01AB7EE38
:10171000000A08EE010A80EE801AB7EE000A70EEA9
:10172000410A00EE106AB8EE400A80EE201ABCEEC4
:10173000C10A10EE107A3846ACE7000004040140FC
:10174000006CDC02D880204270B50748006800F0C9
:1017500007040548006800F4E020050329462046F8
:1017600014F07CFB70BD00000804014070B5064811
:101770000068C0F302150448006800F0E044214608
:10178000284614F06BFB70BD08040140024A11604A
:10179000024A106070470000000000200400002092
:1017A00010B504460021204600F002F810BD0000EC
:1017B0002DE9F04105460C4646F65A1027490860C7
:1017C00013F0D6F800F00108012013F0C1F814F06E
:1017D00009FC06460CB1012000E00020074601206C
:1017E0001F4908701D480C30006820F4E0003043A9
:1017F0001A490C31086025B10120194924310870BB
:1018000003E00020164924310870012014492031DA
:10181000087007E01FB1601E041E00D106E0012021
:1018200010490870104800780028F3D100BF3DB976
:101830001EB101200A49087002E000200849087022
:1018400001200A490870404613F08AF81FB114B904
:101850000020BDE8F0810120FBE70000000401400A
:10186000C0812042048A2042048920420080204214
:1018700070B503460C46154600204DE0461C31B2BB
:1018800046E000EB400604EBC60606EB8106D6ED0B
:10189000000A00EB400604EBC60606EB800696ED58
:1018A000001A80EE810AB5EEC00AF1EE10FA2DD0D2
:1018B00003EB8106D6ED000A03EB800696ED001AD5
:1018C00040EE410A03EB8106C6ED000A0A461BE022
:1018D00002EB420604EBC60606EB8106D6ED000AD3
:1018E00002EB420604EBC60606EB800696ED001AF4
:1018F00040EE410A02EB420604EBC60606EB810607
:10190000C6ED000A561C32B2062AE1DB4E1C31B28B
:101910000629B6DB461C30B20628AFDB052045E0C1
:1019200000EB400604EBC60606EB8006D6ED000A87
:1019300003EB800696ED001AC1EE201A03EB800639
:10194000C6ED001AF7EE000A00EB400604EBC606EF
:1019500006EB8006C6ED000A002123E000EB4006FE
:1019600004EBC60606EB8106D6ED000AB0EE600A6F
:1019700003EB8106D6ED000A03EB800696ED001A14
:1019800040EE410A03EB8106C6ED000ADFED100AC6
:1019900000EB400604EBC60606EB8106C6ED000A26
:1019A0004E1C31B28142D9DB461E30B20028B7DA74
:1019B000002009E003EB8006D6ED000A05EB800667
:1019C000C6ED000A461C30B20628F3DB70BD0000ED
:1019D0000000000010B502460B46002017E09FED06
:1019E0000D0A02EB800484ED000A00210BE09FED5C
:1019F000090A00EB400403EBC40404EB810484ED0A
:101A0000000A4C1C21B20629F1DB441C20B2062836
:101A1000E5DB10BD00000000F0B586B004460D46C1
:101A2000F7EE001AB0EE611A002035E0C61C02EB9A
:101A30008606D6ED000A03EB8006D6ED001A02EB0F
:101A4000800696ED002A31EEC20A60EEA01A21EE61
:101A5000802AF0EE411A42EE401AB0EE611AF0EE22
:101A6000001A60EEA11A61EEA01A61EE801A6E46AD
:101A700006EB8006C6ED001AF8EE001A60EEA11A19
:101A800061EE801A61EE801AC61C6F4607EB86066F
:101A9000C6ED001A461C30B20328C7DB002032E036
:101AA00004EB8006D6ED001A6E4606EB800696ED36
:101AB000002A42EE011A04EB8006C6ED001A00214E
:101AC0001DE000EB400605EBC60606EB8106D6EDF1
:101AD000001A6E4606EB800696ED002A6E4606EB6F
:101AE0008106D6ED002A42EE221A00EB400605EBF5
:101AF000C60606EB8106C6ED001A4E1C31B2062959
:101B0000DFDB461C30B20628CADB06B0F0BD0000A1
:101B10002DE9F0432DED028BB9B007460E46144671
:101B20004FF000089FED9F0AB0EE408A9FED9E0A9D
:101B3000F0EE408A0020369037903890182130A877
:101B4000FEF727FC18212AA8FEF723FC182124A859
:101B5000FEF71FFC90216846FEF71BFC4FF00109C1
:101B60009FED920A8DED320A8DED310A8DED300A2E
:101B70009FED8F0A8DED350A8DED340A8DED330A18
:101B80007FE008F101000FFA80F8694624A8FFF70A
:101B900021FF00251FE005EB450007EB800090EDDD
:101BA000000A8DED360A05EB450007EB800090ED4D
:101BB000010A8DED370A05EB450007EB800090ED3B
:101BC000020A8DED380A36AB30AA694624A8FFF721
:101BD00023FF681C05B2062DDDDB2AAA694624A86E
:101BE000FFF746FE9DED2D0A20EE000ADDED330ADB
:101BF00020EEA01AC0EE010A9DED2A0A20EE000A8E
:101C000030EE000A9DED2B1ADDED2B1A01EE210AB4
:101C10009DED2C1ADDED2C1A01EE210A30EE800A22
:101C2000DDED2E0A60EEA00A9DED341A21EE011AB8
:101C3000C0EE811A70EE210A9DED2F0A20EE000AF7
:101C40009DED351A21EE011AC0EE011A30EEA10AFF
:101C5000F0EE408A002512E030A800EB850090ED00
:101C6000000A2AA800EB8500D0ED000A30EE600AD9
:101C700030A800EB850080ED000A681C05B2062D37
:101C8000EADBB8F1140F05DAF4EEC88AF1EE10FAC7
:101C90003FF777AF9DED330ADFED460A20EE200ACD
:101CA00084ED000A9DED340ADFED420A20EE200AA1
:101CB00084ED010A9DED350ADFED3E0A20EE200A93
:101CC00084ED020A9DED300AD4ED000A20EE200AD0
:101CD00086ED000A9DED310AD4ED010A20EE200ABE
:101CE00086ED010A9DED320AD4ED020A20EE200AAB
:101CF00086ED020A94ED000AF7EE000A30EE600A63
:101D0000B0EEC00AF6EE000AB4EEE00AF1EE10FA08
:101D10001DDC94ED010AF7EE000A30EE600AB0EE29
:101D2000C00AF6EE000AB4EEE00AF1EE10FA0EDC9C
:101D300094ED020AF7EE000A30EE600AB0EEC00A37
:101D4000F6EE000AB4EEE00AF1EE10FA01DD4FF013
:101D5000000996ED000AB0EEC00AF1EE040AB4EEF6
:101D6000E00AF1EE10FA15DC96ED010AB0EEC00AB9
:101D7000F1EE040AB4EEE00AF1EE10FA0ADC96ED98
:101D8000020AB0EEC00AF1EE040AB4EEE00AF1EE87
:101D900010FA01DD4FF00009484639B0BDEC028B66
:101DA000BDE8F0835F7089300000C8420000000089
:101DB0007FD6D03D0AE81C4110B5FEF769FE04F05D
:101DC000EBF906F00DFE01F023F910BD00200949E2
:101DD0000978012901D140F001000749097801295A
:101DE00001D140F0020005490978012901D140F0F4
:101DF0000400704746010020D2000020E8000020C7
:101E000010B50146002001EBC1026E4B13F82220F1
:101E100001EBC1036B4C04EB83035B781A4001EBCD
:101E2000C10304EB83039B781A4001EBC10304EB6D
:101E30008303DB781A4001EBC10304EB83031B79B6
:101E40001A4001EBC10304EB83035B791A4001EBF9
:101E5000C10304EB83039B791A4001EBC10304EB3C
:101E60008303DB791A4001EBC10304EB83031B7A84
:101E70001A4001EBC10304EB83035B7A1A4001EBC8
:101E8000C10304EB83039B7A1A4001EBC10304EB0B
:101E90008303DB7A1A4001EBC10304EB83031B7B52
:101EA0001A4001EBC10304EB83035B7B1A4001EB97
:101EB000C10304EB83039B7B1A4001EBC10304EBDA
:101EC0008303DB7B1A4001EBC10304EB83031B7C20
:101ED0001A4001EBC10304EB83035B7C1A4001EB66
:101EE000C10304EB83039B7C1A4001EBC10304EBA9
:101EF0008303DB7C1A4001EBC10304EB83031B7DEE
:101F00001A4001EBC10304EB83035B7D1A4001EB34
:101F1000C10304EB83039B7D1A4001EBC10304EB77
:101F20008303DB7D1A4001EBC10304EB83031B7EBB
:101F30001A4001EBC10304EB83035B7E1A4001EB03
:101F4000C10304EB83039B7E1A4001EBC10304EB46
:101F50008303DB7E1A4001EBC10304EB83031B7F89
:101F60001A4001EBC10304EB83035B7F1A4001EBD2
:101F7000C10304EB83039B7F1A4001EBC10304EB15
:101F80008303DB7F1A4001EBC10304EB830393F867
:101F900020301A4001EBC10304EB830393F8213096
:101FA0001A4001EBC10304EB830393F822301A407B
:101FB00001EBC10304EB830393F823301A4002B111
:101FC000012010BD340C002010B538480088401C9A
:101FD0003649088008460088282848DB0020088009
:101FE000334890F83D0001283ED132490870002066
:101FF000314908702E4981F83D009FED300A304884
:1020000080ED010A084690ED100A2D4880ED020A85
:10201000084690F83A102A480CF0CEF89FED270AAF
:102020002748A83080ED010A214890ED110A244884
:10203000A83080ED020A1E4890F83A102048A830D7
:102040000CF0BAF81E4890ED0C0AB1EE400A1D489B
:1020500080ED000A1A48A83090ED0C0AB1EE400A53
:10206000184880ED010A02E0012013490870124867
:102070000078012812D10F480078012806D10220EB
:102080000C49087001200BF0A7F80EE00948007811
:1020900002280AD100200BF09FF806E00948D0ED95
:1020A000010A90ED000A0BF0EBFA10BD5E0900206A
:1020B0003C3500205D090020600900200000000080
:1020C0006C1B00202C090020304880782F49487173
:1020D0002F480088401C2E49088008460088282880
:1020E0003DDB002008802B4890ED090AD0ED060A60
:1020F000B4EE600AF1EE10FA1ED190ED0A0AD0EDAE
:10210000070AB4EE600AF1EE10FA15D190ED0B0A51
:10211000D0ED080AB4EE600AF1EE10FA0CD11E48B8
:102120000088401C1C490880084600880A2810DDE9
:102130000020164988700CE01749088800EBD07120
:102140004910154A11801046008810B901200F4926
:1021500088701048034618330ECB24300EC00D484B
:1021600090ED0C0ADFED0D0AB4EEE00AF1EE10FA84
:1021700008D390ED0C0ADFED0A0AB4EEE00AF1EEA6
:1021800010FA02DD0020014988707047AC09002078
:10219000DA0A0020A0250020D60A0020CDCC4C3E33
:1021A000CDCC4C3F10B504F093F90A2000F092FE1C
:1021B0000DF018F80348F3EE020A9FED030A12F03F
:1021C000ABFA10BD5C320020000020421CB5044672
:1021D00026480088401C25490880084600880128B8
:1021E00041D00846008802283DD16B4606220021D6
:1021F0000D2015F07AF89DF800009DF8011040EAD6
:10220000012000B200EE100AB8EEC00ADFED180A95
:1022100080EE201A84ED001A9DF802009DF803104C
:1022200040EA012000B200EE100AB8EEC00ADFED6D
:10223000100A80EE201A84ED011A9DF804009DF822
:10224000051040EA012000B200EE100AB8EEC00A04
:10225000DFED070A80EE201A84ED021A0020034900
:10226000088001201CBD0020FCE70000D80A0020E7
:1022700000803B45F8B5642014F0B1FF4FF4A1761F
:10228000AA2011F00DFFAB2011F00AFF3F4908789A
:1022900011F006FF3D49487811F002FF3B4988786C
:1022A00011F0FEFE3949C87811F0FAFE3749097875
:1022B000364A52785140354A92785140334AD27862
:1022C00081EA020011F0ECFE00254FF6FF70304964
:1022D00008801CE009E02E480088401E2C49088038
:1022E0000846008808B90020F8BD2A480068416CFB
:1022F0002948884700F001000028ECD025480068F4
:10230000016C2548884729466D1C0DF80100032DF6
:10231000E0DB002432E0BB2011F0C2FEDC2011F033
:10232000BFFE1E49085D11F0BBFE1C4A611C505CDB
:1023300011F0B6FE1949095D81F0DC01174B621CF2
:102340009A5C81EA020011F0ABFE002512E000BFAA
:1023500010480068416C1048884700F001000028D0
:10236000F6D00C480068016C0B48884729466D1C64
:102370000DF80100032DEADBA01C84B2B442CADBD5
:10238000DD2011F08DFE0120AEE7000020C201002B
:1023900046070020600800020010004024C201002F
:1023A000F0EE400AC0ED020A91ED030A90ED021A28
:1023B00020EE010A91ED041AD0ED011A01EE210A76
:1023C00091ED051AD0ED001A01EE210A91ED011AE6
:1023D000D0ED041A01EE610A91ED021AD0ED031A54
:1023E00001EE610A80ED050A90ED010A80ED000A18
:1023F00090ED020A80ED010A90ED040A80ED030AD7
:1024000090ED050A80ED040A90ED050A7047000082
:102410003EB512F029FE15F0EDFBFE4800880128BC
:102420007DD1FD48007801287AD1FC48B0F9000040
:10243000B0F57A7F15DCFA48B0F90000B0F57A7F84
:102440000FDCF848B0F90000B0F57A7F09DCF648F7
:10245000B0F90000B0F57A7F03DC6420F34908800E
:1024600013E0F348007880B90020EA490880402151
:1024700005220346B6EE000ACDE900210290C822EB
:1024800040F6B831EB48FEF743FFEB480088401CAC
:10249000E94908800846008804280BDBE3480088E7
:1024A000012804DBE1480088401EE0490880002044
:1024B000E1490880DD480088C0F164006421484398
:1024C00090FBF1F000F57A7000B2DC490880D74843
:1024D0000088C0F164006421484390FBF1F000F5EE
:1024E0007A7000B2D6490880D0480088C0F16400F4
:1024F0006421484390FBF1F000F57A7000B2D149B5
:102500000880CA480088C0F164006421484390FBF9
:10251000F1F000F57A7000B2CB49088001E0D1E11A
:1025200006E012F08BFB0BF089F80AF057FFD9E1B7
:10253000C648007801287DD1C548008840F21A417C
:10254000884278DBC348008800EE100AB8EE400AE3
:10255000F7EE000A20EE200ABF48D0ED8A0ABFEE4F
:10256000001A01EE200AD0ED360AB7EE001A01EE8D
:10257000200AD0EDDE0ABFEE001A01EE200ABDEE01
:10258000C00A10EE100A00B2AC490880B1480088B9
:1025900000EE100AB8EE400AF7EE000A20EE200A1C
:1025A000AD48D0ED8A0AB7EE001A01EE200AD0ED50
:1025B000360ABFEE001A01EE200AD0EDDE0ABFEEA9
:1025C000001A01EE200ABDEEC00A10EE100A00B299
:1025D0009B4908809F48008800EE100AB8EE400A28
:1025E000F7EE000A20EE200A9B48D0ED8A0AB7EEEB
:1025F000001A01EE200AD0ED360AB7EE001A01EEFD
:10260000200AD0EDDE0AB7EE001A01EE200ABDEE78
:10261000C00A10EE100A00B28A4908808D4800886E
:1026200000EE100AB8EE400AF7EE000A20EE200A8B
:10263000894801E05FE019E0D0ED8A0ABFEE001A98
:1026400001EE200AD0ED360ABFEE001A01EE200A94
:10265000D0EDDE0AB7EE001A01EE200ABDEEC00A88
:1026600010EE100A00B27849088015E07948008819
:1026700000B2724908807748008800B2704908802B
:102680007448008800B26F4908807248008800B220
:102690006D49088012F0D2FA6848B0F9002040F67F
:1026A000C41140F24C4013F069FA64490880644850
:1026B000B0F9002040F6C41140F24C4013F05EFA2D
:1026C0005F4908805F48B0F9002040F6C41140F22D
:1026D0004C4013F053FA5B4908805B48B0F9002086
:1026E00040F6C41140F24C4013F048FA56490880B5
:1026F00012F0E4FDF6E0554800780228FAD155487A
:10270000008800EE100AB8EE400AF7EE000A20EE4C
:10271000200A5148D0ED8A0ABFEE001A01EE200AC5
:10272000D0ED360AB7EE001A01EE200AD0EDDE0A2F
:10273000BFEE001A01EE200ABDEEC00A10EE100A2C
:1027400000B23E4908804348008800EE100AB8EE07
:10275000400AF7EE000A20EE200A3F48D0ED8A0A30
:10276000B7EE001A01EE200AD0ED360ABFEE001ACD
:1027700001EE200AD0EDDE0ABFEE001A01EE200ABB
:10278000BDEEC00A10EE100A00B22D490880314893
:10279000008800EE100AB8EE400AF7EE000A20EEBC
:1027A000200A2D48D0ED8A0AB7EE001A01EE200A61
:1027B000D0ED360AB7EE001A01EE200AD0EDDE0A9F
:1027C000B7EE001A01EE200ABDEEC00A10EE100AA4
:1027D00000B21C4908801F48008800EE100AB8EEBD
:1027E000400AF7EE000A20EE200A1B48D0ED8A0AC4
:1027F000BFEE001A01EE200AD0ED360ABFEE001A35
:1028000001EE200AD0EDDE0AB7EE001A01EE200A32
:1028100024E000007C0100205F080020300A002036
:10282000320A0020340A0020360A0020540A002010
:102830005E080020FC0A0020520A0020280A00201E
:102840002A0A00202C0A00202E0A0020380A002024
:10285000440A0020500A002044100020BDEEC00AA7
:1028600010EE100A00B2454908804548B0F9002032
:1028700040F6C41140F24C4013F080F94049088002
:102880004048B0F9002040F6C41140F24C4013F02B
:1028900075F93C4908803C48B0F9002040F6C41165
:1028A00040F24C4013F06AF9374908803348B0F9D8
:1028B000002040F6C41140F24C4013F05FF92F495C
:1028C00008800FE04FF47A702D4908802D49088068
:1028D0002D4908802949088012F0B0F90AF0AEFEAF
:1028E0000AF07CFD2648B0F90000284908802548F8
:1028F000B0F90000264908802348B0F900002549B6
:1029000008801E48B0F90000234908801C48B0F92F
:10291000002040F6C411002013F030F91849088057
:102920001848B0F9002040F6C411002013F026F931
:10293000144908801448B0F9002040F6C411002062
:1029400013F01CF9104908800C48B0F9002040F63B
:10295000C411002013F012F9084908800C4624889D
:10296000A3B2094C2488A2B2064C2488A1B2044C1C
:102970002488A0B20CF0E6F93EBD00002E0A00202B
:10298000280A00202A0A00202C0A0020300A0020F1
:10299000320A0020340A0020360A002010B593487D
:1029A00000789349087093480078934908709348D9
:1029B000007893490870934890ED1E0AD0ED210AE3
:1029C00070EE600A9048008900EE100AB8EE400AE6
:1029D000F4EEC00AF1EE10FA03D802208349087021
:1029E00014E0884890ED1F0AD0ED210A70EE200A0D
:1029F0008548008900EE100AB8EE400AF4EEC00ADD
:102A0000F1EE10FA02DB0120784908707D4890ED64
:102A1000240AD0ED270A70EE600A7B48408900EE58
:102A2000100AB8EE400AF4EEC00AF1EE10FA03D82C
:102A300001207649087004E000207449087009F00C
:102A400087F9704890ED2A0AD0ED2D0A70EE600AE1
:102A50006D48808900EE100AB8EE400AF4EEC00A14
:102A6000F1EE10FA03D802206449087014E06548BA
:102A700090ED2C0AD0ED2D0A70EE200A6248808974
:102A800000EE100AB8EE400AF4EEC00AF1EE10FAB9
:102A900002DB0120594908705A4890ED2C0AD0ED0C
:102AA0002D0A70EE600A5848808900EE100AB8EED0
:102AB000400AF4EEC00AF1EE10FA00D800BF514807
:102AC00090ED300AD0ED330A70EE600A4E48C089AE
:102AD00000EE100AB8EE400AF4EEC00AF1EE10FA69
:102AE00003D802204349087018E0464890ED310AA7
:102AF000D0ED330A70EE200A4348C08900EE100A78
:102B0000B8EE400AF4EEC00AF1EE10FA06DB01203E
:102B1000384908700AF092FD0AF060FC3C480088D1
:102B200001280DD112F002FA3A49087008460078DF
:102B3000022803D100203649088001E012F07EF817
:102B40002E4800782E49097888420BD0324890ED03
:102B5000000A324880EDFD0A28480078012801D19A
:102B600015F014F8214800782149097888420CD0E2
:102B70001E480078022802D10120294908701B480C
:102B80000078012801D1264908701A4800781A49AE
:102B9000097888420CD017480078022801D12049D2
:102BA000087014480078012802D102201C490870DE
:102BB0001B480078012811D10C480078022809D15F
:102BC0001848008818490880134890ED000A1348F7
:102BD00080EDFD0A00201249087006E010480078D8
:102BE000022802D100200E49087010BD380A0020CA
:102BF000390A00203A0A00203B0A00203E0A002041
:102C00003F0A0020441E00202E1E00203C0A002007
:102C10008801002034080020DC1F00204410002020
:102C2000400A002070010020420A002010B52DED5E
:102C3000028B0021084604F090FB59A200211E20BF
:102C400004F0AAFA5948B0F90000401C00EE100A3E
:102C5000B8EEC00A0021642016F0C0FC012100205B
:102C600004F07BFB52A20121002004F095FA5248A7
:102C700000680A21B0FBF1F201FB120000EE100A1D
:102C8000B8EE400AB0EE408A0121282016F0A6FCDA
:102C90004A4800680A21B0FBF1F201FB120000EE85
:102CA000100AB8EE400AB0EE408A0121502016F01A
:102CB00095FC0221002004F050FB41A202210020DB
:102CC00004F06AFA3C4840680A21B0FBF1F201FBCB
:102CD000120000EE100AB8EE400AB0EE408A02215F
:102CE000282016F07BFC354840680A21B0FBF1F241
:102CF00001FB120000EE100AB8EE400AB0EE408A66
:102D00000221502016F06AFC0321002004F025FB6C
:102D10002DA20321002004F03FFA2748D0ED020A3B
:102D2000F8EE600AB0EE600A0321282016F056FC87
:102D3000224880680A21B0FBF1F201FB120000EE8C
:102D4000100AB8EE400AB0EE408A0321502016F077
:102D500045FC0421002004F000FB1DA204210020FA
:102D600004F01AFA0521002004F0F7FA1EA205214A
:102D7000002004F011FA0621002004F0EEFA20A24F
:102D80000621002004F008FA0721002004F0E5FAEB
:102D900020A20721002004F0FFF9BDEC028B10BD3A
:102DA00041637469766174696F6E000044010020AC
:102DB0004944313A00000000B0320020BC3200200B
:102DC0004944323A000000004944333A0000000010
:102DD000506C656173652074616B652070686F74F9
:102DE0006F206F6600000000746865204F4C4544FA
:102DF00020616E6420636F6E746163740000000074
:102E000020205151203A333133383337323136357F
:102E100000000000202054454C3A31353837313716
:102E200037383531350000002DE9F04316461F468E
:102E3000079D00F03F00DFF89880D8F8083003EBDA
:102E40000018D8F8088043F6F77928EA090400F05A
:102E50000808B8F1000F05D0042901D0062901D1D6
:102E600041F00101A5F1010841EA081848EA04040B
:102E700004F04062B2F1406F05D0920EA5F1010856
:102E800008FA02FC664403EB0018C8F8006004F07E
:102E90004042B2F1404F10D0042901D0062906D19A
:102EA00040F0080803EB081808F10C0705E0920F42
:102EB000A5F1010808FA02FC674403EB0018C8F802
:102EC000047003EB0018C8F80840BDE8F083000068
:102ED00000F0004000B50346184614F068F900BD44
:102EE00038B504460D466B4602222946204615F0A9
:102EF00004F99DF801009DF8001000EB012000B2DC
:102F000038BD000070B50026002411E021460020E5
:102F100004F0B8F9002507E03146761C064A505CFB
:102F200004F0F2F9681CC5B2802DF5DB601CC4B258
:102F3000082CEBDB70BD000058AF01002DE9F0411B
:102F400005460E461746002408E0042202FB045101
:102F500006EB8400FDF716FC601C84B2BC42F4DB77
:102F60000120BDE8F0812DE9F04105460E461746E7
:102F7000002408E0042202FB045106EB8400FDF764
:102F800048FC601C84B2BC42F4DBBDE8F081000068
:102F900010B5044800680122F02183690220984797
:102FA00010BD0000240800022DE9F04104460D4642
:102FB00017461E460F48006822460421436B080747
:102FC00098470C4800682A460621436B4FF0804022
:102FD0009847084800683A460821436BC806984756
:102FE0000448006832460A21436B48079847BDE809
:102FF000F08100005808000210B5044CA388A28894
:10300000A188A0880BF09EFE10BD00002E1E00209F
:1030100000B52DED028B83B04A48008840F24C4148
:1030200088422EDC4848B0F9000016F0BAFE41ECA8
:10303000180B9FED460B53EC102B17F017F820D808
:103040004448B0F9000016F0ACFE41EC180B9FEDBF
:10305000420B53EC102B17F009F812D84048B0F986
:10306000000016F09EFE41EC180B9FED3E0B53EC5A
:10307000102B16F0C1FE04D83C480088401C3B4988
:1030800008803048008840F24C41884255DC2E4888
:10309000B0F9000016F085FE41EC180B9FED2B0BEC
:1030A00053EC102B16F0E2FF47D82A48B0F9000085
:1030B00016F077FE41EC180B9FED270B53EC102B0D
:1030C00016F0D4FF39D82648B0F9000016F069FE92
:1030D00041EC180B9FED230B53EC102B16F08CFEDC
:1030E0002BD822480088B0F57A7F26DD204800885A
:1030F00018BBB7EE000A1F4880ED000A00201B49EC
:1031000008801D4908801D491A4890ED000A542086
:1031100012F0E2FD012010210B2200239FED180A7E
:10312000CDE9002102904FF4FA7241F2883115483E
:10313000FEF7EEF80E201449088003B0BDEC028BB8
:1031400000BD00007001002076010020000000009A
:1031500000C0624074010020000000000080364082
:103160007201002000000000008036C01A0100201B
:103170007C0100201C0100208A010020302F00204B
:10318000CDCC4C3E100B0020440100200BF09EFDE6
:1031900003F0DEFB08F014FF12F0DAF808F078FE16
:1031A00025499FED260A542012F096FD42E0FFF7D4
:1031B00023FF0021084604F0D0F80121002004F08C
:1031C000CCF81FA20021084604F018F802210020C4
:1031D00004F0C3F80321002004F0BFF81CA2022170
:1031E000002004F00BF80421002004F0B6F80521BB
:1031F000002004F0B2F81AA20421002003F0FEFF20
:103200001AA20421502003F0C7FF1A48808800EE5C
:10321000900AF8EE600AB0EE600A0521502016F020
:10322000DDF90621002004F098F813A20621002001
:1032300003F0B2FFBBE70000302F002000000000C9
:10324000506C65617365204D6F766520546872001F
:10325000446F776E205768656E2045534300000029
:103260004265657020426565700000005468723ADE
:10327000000000002E1E00205265706F77657220DE
:103280005768656E205365742055700070B50D4801
:103290000068416C0C488847044604F0010048B1BE
:1032A00008480068016C0848884705461C22074901
:1032B0000FF096FE034800682146C26B0248904713
:1032C00070BD000060080002001000405826002079
:1032D00070B511480068416C10488847044604F0F6
:1032E000010090B10C480068016C0C488847054605
:1032F00048220B490FF074FE09488079FF2804D05A
:1033000001200749088000204880034800682146C2
:10331000C26B0248904770BD600800020014004074
:103320002627002070B50D480068416C0C4888477E
:10333000044604F0010048B108480068016C0848E0
:1033400088470546284605F0D3FD00BF03480068BE
:103350002146C26B0248904770BD00006008000221
:103360000018004070B511480068416C104888474B
:10337000044604F0010090B10C480068016C0C4850
:103380008847054648220B490FF02AFE09488079F4
:10339000FF2804D001200749088000204880034806
:1033A00000682146C26B0248904770BD6008000269
:1033B000001C0040C228002010B50E480068D0F85C
:1033C00094100D48884704460A4800682146D0F802
:1033D0008C200948904704F0010048B10548006876
:1033E000416E054888470549087001200449087066
:1033F00010BD000028080002002400405A010020EF
:103400005901002000B52DED088B83B000200090FD
:1034100001900290CB49A1F10C0004F0A1FBCA4835
:1034200090ED000ADFEDC90A60EE200A9FEDC81A90
:1034300080EE810AC748D0ED000AC2480C3890EDF2
:10344000031A10EE810AC44880ED000ABE4890EDD0
:10345000010ADFEDBE0A60EE200A9FEDBD1A80EE84
:10346000810ABC48D0ED010AB6480C3890ED041A28
:1034700010EE810AB84880ED010AB34890ED020AC7
:10348000DFEDB20A60EE200A9FEDB11A80EE810AEC
:10349000B048D0ED020AAB480C3890ED051A10EE9A
:1034A000810AAD4880ED020A90ED000AF0EE408AF4
:1034B00090ED010AB0EE409A90ED020AB0EE408A1B
:1034C00069EE090A48EE080AB0EE600A14F034F911
:1034D00020EE280AF0EE409A13F0B6FEDFED9F0AC8
:1034E00020EE200A9E4880ED000A68EEA80A48EE09
:1034F000080AB0EE600A14F01FF920EE090AF0EE97
:10350000409A13F0A1FEDFED970A20EE200A9648BC
:1035100080ED000A90ED000ADFED940A20EE200A0B
:1035200010EE101A084616F099FF41EC1B0BB0EE96
:103530004B0AF0EE6B0A12F057FFB0EE40AAF0EE25
:1035400060AA51EC1A0B16F0BFF900EE100A884879
:1035500080ED000A844890ED000ADFED840A20EE39
:10356000200A10EE101A084616F078FF41EC1B0BEB
:10357000B0EE4B0AF0EE6B0A12F02AFEB0EE40AA53
:10358000F0EE60AA51EC1A0B16F09EF900EE100A4C
:10359000784880ED000A724890ED000ADFED730A6A
:1035A00020EE200A10EE101A084616F057FF41ECE4
:1035B0001B0BB0EE4B0AF0EE6B0A12F015FFB0EEEB
:1035C00040AAF0EE60AA51EC1A0B16F07DF900EE5D
:1035D000100A694880ED000A614890ED000ADFEDAD
:1035E000630A20EE200A10EE101A084616F036FF85
:1035F00041EC1B0BB0EE4B0AF0EE6B0A12F0E8FD4B
:10360000B0EE40AAF0EE60AA51EC1A0B16F05CF98D
:1036100000EE100A594880ED000A08E0052013F07A
:10362000DEFD48480C3003F065F8554908705448F1
:1036300000780028F2D043480C3890ED060A514833
:10364000D0ED000A30EE600A8DED000A3D480C38DE
:1036500090ED070A4B48D0ED010A30EE600A8DED7F
:10366000010A38480C3890ED080A4648D0ED020AA5
:1036700030EE600A8DED020A9DED000A3F48D0ED64
:10368000000A20EE200ADDED020A3B4890ED001A08
:1036900000EE810A3C4880ED000A9DED000A3448A6
:1036A000D0ED000A20EE200A3348D0ED000A20EECB
:1036B000200ADDED010A2F4890ED001A00EE810A84
:1036C000DDED020A2A4890ED001A60EE810A2B48CF
:1036D00090ED001A00EEC10A2B4880ED010A90ED32
:1036E000011AF0EE410A90ED001AB0EE410A00F026
:1036F000D1FDDFED260A20EE200A254880ED000AE4
:10370000174890ED000ADFED190A20EE200A214843
:1037100080ED000A144890ED000ADFED140A20EE57
:10372000200A1D4880ED000A194890ED000ADFEDDF
:103730000F0A20EE200A194880ED000A03B0BDEC04
:10374000088B00BDAC2500206436002000008045B9
:103750000AE81C41A0090020B8360020333365C2B6
:1037600090090020333365428C09002035FA8E3CE5
:10377000B4090020C0090020B8090020C4090020B5
:10378000CC090020503200203C0700201B2F65424E
:1037900094090020D4090020D0090020D809002075
:1037A00000B599B00020129013901490FE4890ED4F
:1037B000000ADFEDFE0A60EE200A9FEDFD1A80EEA2
:1037C000810AFC48D0ED000AFB4890ED031A10EE88
:1037D000810AFA4880ED000AF34890ED010ADFED16
:1037E000F30A60EE200A9FEDF21A80EE810AF1489A
:1037F000D0ED010AF04890ED041A10EE810AEF486E
:1038000080ED010AE84890ED020ADFEDE80A60EE7B
:10381000200A9FEDE71A80EE810AE648D0ED020A01
:10382000E54890ED051A10EE810AE44880ED020AA1
:1038300090ED000A8DED170A90ED010A8DED160A44
:1038400090ED020A8DED150A9DED160A20EE000A94
:10385000DDED150A00EEA00A8DED100A9DED100AAF
:1038600013F06AFFDDED170A20EE200A8DED110A34
:103870009DED110A13F0E8FCDFEDD10A20EE200ADD
:10388000D04880ED000A9DED170A20EE000ADDED1C
:10389000150A00EEA00A8DED100A9DED100A13F036
:1038A0004BFFDDED160A20EE200A8DED110A9DED8D
:1038B000110A13F0C9FCDFEDC40A20EE200AC34848
:1038C00080ED000A90ED000ADFEDC10A20EE200A2B
:1038D0008DED0D0A0D9816F0C1FDCDE90E019DED9F
:1038E0000E0B12F081FD8DED100B9DED100B51ECC8
:1038F000100B15F0E9FF00EE100AB64880ED000A43
:10390000B24890ED000ADFEDB20A20EE200A8DEDFC
:103910000D0A0D9816F0A2FDCDE90E019DED0E0BDE
:1039200012F056FC8DED100B9DED100B51EC100BB1
:1039300015F0CAFF00EE100AA74880ED000AA14862
:1039400090ED000ADFEDA20A20EE200A8DED0D0AAF
:103950000D9816F083FDCDE90E019DED0E0B12F0D2
:1039600043FD8DED100B9DED100B51EC100B15F080
:10397000ABFF00EE100A994880ED000A9148D0EDA7
:10398000000A9FED930A20EE800A8DED0D0A0D9836
:1039900016F064FDCDE90E019DED0E0B12F018FC42
:1039A0008DED100B9DED100B51EC100B15F08CFFF5
:1039B00000EE100A8A4880ED000A7F4890ED060A62
:1039C0008848D0ED000A30EE600A8DED120A7A4880
:1039D000D0ED070A834890ED010A30EEC00A8DED64
:1039E000130A7548D0ED080A7E4890ED020A30EEC1
:1039F000C00A8DED140A9DED120A7948D0ED000A37
:103A000020EE200A9DED141A7448D0ED000A01EE54
:103A1000200A754880ED000A9DED120A6D48D0ED30
:103A2000000A20EE200A6D48D0ED000A20EE200AA0
:103A3000DDED130A684890ED001A00EE810ADDED15
:103A4000140A644890ED001A60EE810A644890ED13
:103A5000001A00EEC10A644880ED010A90ED010AE7
:103A60008DED110A90ED000A8DED100ADDED110AC1
:103A70009DED100A00F00EFCDFED5C0A20EE200A3E
:103A80005B4880ED000A4F4890ED000ADFED500AD8
:103A900020EE200A574880ED000A4C4890ED000ABD
:103AA000DFED4B0A20EE200A534880ED000A504813
:103AB000D0ED000A9FED460A20EE800A4F4880EDC7
:103AC000000A4D48D0ED000AB0EE001A80EE810ADF
:103AD0008DED050A059816F0C1FCCDE906019DEDB6
:103AE000060B12F081FC8DED0A0B4248D0ED000A66
:103AF000B0EE001A80EE810A8DED010A019816F0F1
:103B0000ADFCCDE902019DED020B12F06DFC8DEDD7
:103B1000060B3A48D0ED000AB0EE001A80EE810A9A
:103B20008DED010A019816F099FCCDE902019DED99
:103B3000020B12F059FC8DED040B9DED060B53ECBE
:103B4000102B9DED040B51EC100B16F091F9CDE903
:103B500008019DED0A0B53EC102B9DED080B51EC69
:103B6000100B16F085F9CDE90E012348D0ED000ABF
:103B7000B0EE001A80EE810A8DED050A059816F068
:103B80006DFCCDE906019DED060B12F021FB8DEDDC
:103B90000A0B184890ED001AF0EE000A81EE200A98
:103BA0008DED010A01982BE064360020000080456D
:103BB0000AE81C41A0090020A0250020B8360020FA
:103BC000333365C290090020333365428C090020ED
:103BD00035FA8E3CB4090020C0090020B809002045
:103BE000C4090020503200203C0700201B2F6542F2
:103BF00094090020D4090020D0090020D809002011
:103C000016F02CFCCDE902019DED020B12F0E0FA5A
:103C10008DED060BFE48D0ED000AB0EE001A80EEE6
:103C2000810A8DED010A019816F018FCCDE9020118
:103C30009DED020B12F0CCFA8DED040B9DED060B01
:103C400053EC102B9DED040B51EC100B16F010F9FA
:103C5000CDE908019DED0A0B53EC102B9DED080BEF
:103C600051EC100B16F004F9CDE90C019DED0E0B93
:103C700053EC102B9DED0C0B51EC100B15F056FE78
:103C8000CDE910019DED100B51EC100B15F01CFE51
:103C9000E0490860E04890ED001AF0EE000A81EE7D
:103CA000200A8DED050A059816F0D8FBCDE906012E
:103CB0009DED060B12F08CFA8DED0A0BD748D0ED76
:103CC000000AB0EE001A80EE810A8DED010A01981B
:103CD00016F0C4FBCDE902019DED020B12F084FB4E
:103CE0008DED060BCA48D0ED000AB0EE001A80EE4A
:103CF000810A8DED010A019816F0B0FBCDE90201B1
:103D00009DED020B12F070FB8DED040B9DED060B8B
:103D100053EC102B9DED040B51EC100B16F0A8F892
:103D2000CDE908019DED0A0B53EC102B9DED080B1E
:103D300051EC100B16F09CF8CDE90E01B648D0ED11
:103D4000000AB0EE001A80EE810A8DED050A059892
:103D500016F084FBCDE906019DED060B12F044FB45
:103D60008DED0A0BAD48D0ED000AB0EE001A80EEE2
:103D7000810A8DED010A019816F070FBCDE9020170
:103D80009DED020B12F024FA8DED060BA04890ED8C
:103D9000001AF0EE000A81EE200A8DED010A01986A
:103DA00016F05CFBCDE902019DED020B12F010FA5A
:103DB0008DED040B9DED060B53EC102B9DED040BCC
:103DC00051EC100B16F054F8CDE908019DED0A0BEB
:103DD00053EC102B9DED080B51EC100B16F048F82E
:103DE000CDE90C019DED0E0B53EC102B9DED0C0B52
:103DF00051EC100B16F048FACDE910019DED100BB7
:103E000051EC100B15F060FD854908608248D0ED3B
:103E1000000AB0EE001A80EE810A8DED050A0598C1
:103E200016F01CFBCDE906019DED060B12F0DCFA45
:103E30008DED0A0B7948D0ED000AB0EE001A80EE45
:103E4000810A8DED010A019816F008FBCDE9020107
:103E50009DED020B12F0BCF98DED060B6C48D0ED18
:103E6000000AB0EE001A80EE810A8DED010A019879
:103E700016F0F4FACDE902019DED020B12F0B4FA4E
:103E80008DED040B9DED060B53EC102B9DED040BFB
:103E900051EC100B15F0ECFFCDE908019DED0A0B7C
:103EA00053EC102B9DED080B51EC100B15F0E0FFBF
:103EB000CDE90E015848D0ED000AB0EE001A80EEB0
:103EC000810A8DED050A059816F0C8FACDE90601BC
:103ED0009DED060B12F07CF98DED0A0B4F4890ED2D
:103EE000001AF0EE000A81EE200A8DED010A019819
:103EF00016F0B4FACDE902019DED020B12F074FA4E
:103F00008DED060B4248D0ED000AB0EE001A80EEAF
:103F1000810A8DED010A019816F0A0FACDE902019F
:103F20009DED020B12F054F98DED040B9DED060B87
:103F300053EC102B9DED040B51EC100B15F098FF7A
:103F4000CDE908019DED0A0B53EC102B9DED080BFC
:103F500051EC100B15F08CFFCDE90C019DED0E0B13
:103F600053EC102B9DED0C0B51EC100B15F0DEFCFF
:103F7000CDE910019DED100B51EC100B15F0A4FCD8
:103F8000284908602448D0ED000AB0EE001A80EEFF
:103F9000810A8DED050A059816F060FACDE9060153
:103FA0009DED060B12F020FA8DED0A0B1B48D0EDAB
:103FB000000AB0EE001A80EE810A8DED010A019828
:103FC00016F04CFACDE902019DED020B12F00CFA4D
:103FD0008DED060B0E48D0ED000AB0EE001A80EE13
:103FE000810A8DED010A019816F038FACDE9020137
:103FF0009DED020B12F0ECF88DED040B9DED060B20
:1040000053EC102B9DED040B51EC100B0CE0000059
:10401000D8090020F4090020D0090020D40900208C
:10402000F8090020FC09002015F022FFCDE9080165
:104030009DED0A0B53EC102B9DED080B51EC100B72
:1040400015F016FFCDE90E013448D0ED000AB0EEB0
:10405000001A80EE810A8DED050A059816F0FEF92A
:10406000CDE906019DED060B12F0B2F88DED0A0BBD
:104070002B48D0ED000AB0EE001A80EE810A8DEDDB
:10408000010A019816F0EAF9CDE902019DED020B53
:1040900012F09EF88DED060B224890ED001AF0EE1E
:1040A000000A81EE200A8DED010A019816F0D6F97A
:1040B000CDE902019DED020B12F096F98DED040B96
:1040C0009DED060B53EC102B9DED040B51EC100BEA
:1040D00015F0CEFECDE908019DED0A0B53EC102B37
:1040E0009DED080B51EC100B15F0C2FECDE90C0153
:1040F0009DED0E0B53EC102B9DED0C0B51EC100BAA
:1041000016F0C2F8CDE910019DED100B51EC100B2B
:1041100015F0DAFB0449086019B000BDD009002091
:10412000D4090020D8090020000A002003480068B4
:1041300040F04040014908607047000034EF00E063
:104140000348006840F470000149086070470000AF
:1041500088ED00E000B5B0EE404AB7EE000AF0EEA0
:10416000404AF0EE442AF5EEC02AF1EE10FA07D2EA
:10417000B1EE620AF0EE402AB1EE640AF0EE404A77
:10418000B6EE000AF4EEC02AF1EE10FA1FDD0122AD
:10419000B7EE000AF4EEC02AF1EE10FA04DDDFED0E
:1041A000343AB0EE630A00BDB7EE000A30EE620AA0
:1041B000F6EE000A20EE203AB0EE430A00F016FCBC
:1041C000F8EE000A20EE200AF0EE402A17E0002266
:1041D0009FED280AF4EEC02AF1EE10FA0DD2F0EEAF
:1041E000623AF5EEC04AF1EE10FA03D2B1EE630A7C
:1041F000F0EE403AB0EE630AD5E722EEA23A9FED28
:104200001E0ADFED1E0A00EE830ADFED1D0A40EEF6
:10421000030A20EE835A9FED1B0A73EE000A9FEDFE
:104220001A0A00EE830ADFED190AF0EE605A40EE3A
:10423000035A85EE250AF0EE403AB0EE620A03EE2C
:10424000A20AF0EE403A012A05D19FED110A33EEA1
:10425000800AF0EE403AF5EEC04AF1EE10FA03D2D1
:10426000B1EE630AF0EE403AB0EE630A9BE700005D
:1042700000000000F304B539E0F939403F3118BFC0
:10428000201B30C0855725C1F7EAC641581484C1A8
:10429000DB0FC93FF0EE402AB0EE603AB5EEC03A0F
:1042A000F1EE10FA19D1F5EEC02AF1EE10FA02D1B2
:1042B0009FED590A70479FED590AF5EEC02AF1EEBD
:1042C00010FA00DDF6E7F5EEC02AF1EE10FA04D29E
:1042D000F1EE403AB0EE630AECE70020F0EE621A2D
:1042E000B0EE432AF5EEC01AF1EE10FA03D2F1EE69
:1042F000613AF0EE631AB5EEC02AF1EE10FA03D27D
:10430000F1EE423AB0EE632AF4EEC21AF1EE10FA80
:1043100006DDF0EE420AB0EE612AF0EE601A0220ED
:10432000C1EE823AF0EE630ADFED3D3AF4EEE30AC5
:10433000F1EE10FA14DD9FED3B4AF7EE003A50EE35
:10434000843A73EEA03AF0EE631ADFED373A70EE7E
:10435000A33AB0EE632AC1EE823AF0EE630A401C43
:10436000B0EE601AB5EEC01AF1EE10FA03D2F1EE1B
:10437000413AB0EE631ADFED2D3AB4EEE31AF1EEF6
:1043800010FA02D2B0EE600A21E060EEA03AB0EE80
:10439000631ADFED273A9FED274A44EE013A63EEB8
:1043A000813AF0EE631ADFED243A31EE234ADFED75
:1043B000233A44EE013AB0EE632AC1EE823AB0EEFF
:1043C000630AF0EE603A40EE203AB0EE630A01284C
:1043D00003DDF1EE403AB0EE630A194901EB8001CA
:1043E000D1ED003A73EE803AB0EE630AB5EEC03A12
:1043F000F1EE10FA05D2DFED133A73EEC03AB0EEEB
:10440000630AF5EEC02AF1EE10FA03D2F1EE403A5B
:10441000B0EE630A00BF4DE700000000DB0FC93FAC
:10442000A330893EAF673B3FD7B3DD3FF304B539D7
:10443000A854B8BFAE5338BF3C1298407E3F8A4064
:1044400010C20100DB0F4940B0EE402A9FED1F4A29
:10445000F5EE003A42EE043AF0EE630AFDEEE03A81
:1044600013EE901AF5EEC00AF1EE10FA00D2491ED2
:1044700003EE901AF8EEE33A70EEE33AF0EE630AD8
:10448000DFED133A60EEA31AFCEEE13A13EE902A48
:10449000C2F3080003EE900AF8EE633A31EEE31A35
:1044A0000C4A02EB8002D2ED002A0A4B421C03EBBD
:1044B000820292ED003AF7EE003A73EEC13A63EEF3
:1044C000A23AB0EE630A01EE030A704783F9223E76
:1044D00000000044A0B901002DE9F04F2DED028B42
:1044E00086B0B0EE404AF0EE602A6C466D46FE4E55
:1044F000FE4801904FF0000BB5EEC04AF1EE10FA05
:1045000016D1F5EEC02AF1EE10FA06D1B7EE000A88
:1045100006B0BDEC028BBDE8F08FF5EEC02AF1EEDF
:1045200010FA02DD9FEDF20AF2E79FEDF20AEFE7E3
:10453000B5EEC04AF1EE10FA15D2BDEEE20A10EE69
:10454000107A00EE107AB8EEC00AB4EE620AF1EE0C
:1045500010FA02D09FEDE60ADAE7B1EE440AB0EEB7
:10456000404A07F0010B8DED004A20684FEAE05801
:10457000A8F17E08206820F0FF4040F07C502060C9
:1045800095ED003A012296ED090AB4EEC30AF1EE68
:1045900010FA00DB0922101D06EB800090ED000AE6
:1045A000B4EEC30AF1EE10FA00DB121D901C06EB0C
:1045B000800090ED000AB4EEC30AF1EE10FA00DBC1
:1045C000921C521C06EB820090ED000A33EE400A6A
:1045D000B0EE407A4FEA620C019800EB8C0090ED4F
:1045E000000A37EE400AB0EE407A06EB820090ED0A
:1045F000000A70EE037A521E87EE270A8DED050A37
:104600009DED050A30EE000A8DED050A9DED050AC7
:1046100060EE006A9FEDB80A26EE800AF0EE403A9E
:104620009FEDB60A33EE800AF0EE403A23EEA60A7A
:10463000F0EE403A9DED050A23EE800AF0EE403A96
:10464000DFEDAF0AB0EE630A00EEA30AF0EE403AE7
:104650009DED050ADFEDAA0A20EE200AB0EE406AC1
:1046600033EE860AB0EE406A9DED050A36EE000A8A
:10467000B0EE406AC2EB081000EE100AB8EEC00AB5
:10468000F0EE405A9FED9F0A25EE800AF0EE405A68
:10469000F3EE000A62EEA00AB0EE600A04A804F08D
:1046A000E5FB9DED040ADFED970A20EE200A8DED73
:1046B000040A9DED040A32EEC08A25EE880A8DEDCB
:1046C000020A26EE220AB0EE405A9DED020A35EEAD
:1046D000000A8DED020ADDED020AB3EE001A60EE6B
:1046E000810AB0EE600A03A804F0C0FB9DED030A46
:1046F000DFED840A20EE200A8DED030A9DED020A0B
:10470000DDED030A30EE600AB0EE402A9DED040AAA
:1047100025EE800A8DED020A9DED020ADDED030A09
:1047200030EE200A8DED020ADDED020AB3EE001A2A
:1047300060EE810AB0EE600A03A804F097FB9DEDDD
:10474000030ADFED700A20EE200A8DED030A9DEDCD
:10475000020ADDED030A30EE600AB0EE405A32EE96
:10476000050AB0EE402AF3EE000A62EE200AB0EE2F
:10477000600A02A804F07AFB9DED020ADFED610AEF
:1047800020EE200A8DED020A9DED030ADDED020AFE
:1047900030EE200AB0EE405AB3EE000A25EE000AD1
:1047A000B0EE405ABDEEC50A10EE101A9DED020A99
:1047B00032EE400AB0EE402A00EE101AB8EEC00AFF
:1047C000DFED510AB4EEE00AF1EE10FA0BDDDFED99
:1047D000494ABBF1010F03D1B1EE640AF0EE404A41
:1047E000B0EE640A94E6B5EEC02AF1EE10FA06DDEA
:1047F0009FED440A32EE400AB0EE402A491C00EE1A
:10480000101AB8EEC00ADFED410AB4EEE00AF1EE8C
:1048100010FA02D29FED360A7AE6002901DA002367
:1048200000E0012308464FEAE17C01EB1C7C4FEAE3
:104830002C194B44C1EB031A9FED350A22EE000AF6
:104840008DED050A9DED050ADFED320A30EE200AF6
:104850008DED050A9DED050A20EE020A8DED050A93
:104860009DED050ADFED2C0A30EE200A8DED050ADC
:104870009DED050A20EE020A8DED050A9DED050A63
:10488000DFED260A30EE200A8DED050A9DED050AC2
:1048900020EE020A8DED050A9DED050ADFED200AE6
:1048A00030EE200A8DED050A9DED050A20EE020A84
:1048B0008DED050A0AF1010006EB800090ED000A7B
:1048C000DDED050A20EE200A8DED050A0AF1010052
:1048D00006EB800090ED000ADDED050A30EE200ABF
:1048E0008DED050A05AD1DE0A4C10100ECC101007C
:1048F00000000000FFFF7F7F00E84C3CAAAAAA3D11
:10490000EDA8E23E0000803D00C0FF4400E0FBC493
:104910001815AB3A4B8D1D3C3758633DF0FD753E85
:104920001872313F2C462068C0F3C759A9F17F099E
:104930004B447F33DBB2206820F0FF4020602068CA
:1049400040EAC3502060D5ED004ABBF1000F03D010
:10495000B1EE640AF0EE404AB0EE640AD8E5000019
:10496000F0EE400ADFED1E3A60EEA33AF0EE631A75
:10497000FDEEE13A13EE901AF5EEC00AF1EE10FAF0
:1049800000D2491E03EE901AF8EEE33A71EEE33AD4
:10499000F0EE631ADFED133A21EEA32AFCEEC23AE1
:1049A00013EE902AC2F3080003EE900AF8EE633A81
:1049B00032EE631A0C4A02EB8002D2ED002A0A4B57
:1049C000421C03EB820292ED003AF7EE003A73EEDE
:1049D000C13A63EEA23AB0EE630A01EE030A7047F1
:1049E00083F9223E00000044A0B9010000B5B0EEFA
:1049F000402AB0EE420A00F003F820EE020A00BDA1
:104A000008B5F0EE400ACDED000A0C490098A1EB84
:104A1000500000909FED0A0A20EE800A9DED001ADA
:104A200020EE011ADDED001A9FED060A01EE610A83
:104A30009DED001A20EE010A08BD000012141F5F50
:104A400012D3363FFF51D83FF0EE401A9FED570A80
:104A5000F4EEC01AF1EE10FA06DC9FED550AF4EE02
:104A6000C01AF1EE10FA02D29FED520A7047BDEE65
:104A7000E10AB8EEC04A71EEC44AB6EE001AF5EE8D
:104A8000C01AF1EE10FA03D8B1EE410AB0EE401AA6
:104A90009FED495AB0EE410A01EE850ABDEEC00A0B
:104AA00010EE100A00EE100AF8EEC03A9FED435ADD
:104AB000B0EE440A03EEC50AF0EE400A30EEA40A56
:104AC000F0EE400A9FED3E5AB0EE600A03EEC50AD2
:104AD000F0EE400A9FED3B5AB0EE600A03EEC50AC5
:104AE000F0EE400AF5EEC00AF1EE10FA04D2B1EE93
:104AF000600AB0EE401A01E0B0EE601A9FED320A93
:104B0000B4EEC01AF1EE10FA0CD200F0010121B19E
:104B1000BFEE000AC0EE202A01E0F0EE602AB0EEFF
:104B2000620AA3E720EEA00AB0EE401A9FED270A22
:104B300021EE000AB0EE402A9FED250A32EE000A6F
:104B4000B0EE402A22EE010AB0EE402A22EE200A00
:104B5000B0EE402A32EE200AB0EE402A9FED1D0A48
:104B600021EE000AB0EE403A9FED1B0A33EE000A38
:104B7000B0EE403A23EE010AB0EE403AB7EE000A3A
:104B800033EE000AB0EE403A00F0010139B1F0EE28
:104B9000422AB1EE430AB0EE402AB0EE623A82EE0B
:104BA000030AF0EE402AB0EE620A5FE7192C0E46C7
:104BB000192C0EC60000000083F9223F0000C93FF7
:104BC0000000FE39D3BB2BB5F304B53935EC8C3A74
:104BD0007811E4BDA2DA823C08AFE3BE70B52DEDDA
:104BE000028B0446B0EE408AF0EE608A0025FE4853
:104BF00001F0EEF840F2DC50FC490880FA4890EDF4
:104C0000020ADFEDFB0A20EE200ADFEDFA0AB4EE1D
:104C1000E00AF1EE10FA00DB0125F7480078A04227
:104C200000D00125F448047024B1012C78D0022C66
:104C300077D156E1F148C08818BBF14890EDFD0AE4
:104C4000B5EEC00AF1EE10FA01D0012D05D1ED4804
:104C500090ED000AEA4880EDFD0AEA4890ED000A6E
:104C6000E74880EDFE0A00F57C7008F063FFE64837
:104C700090ED0C0AA83080ED010A0020E34908708D
:104C800030E0DE48B0F90600002813DDDB48B0F95B
:104C9000060000EE100AB8EEC00ADB48A83080ED2E
:104CA000010A9FEDDB0AD64880EDFD0A0120D749B5
:104CB000087017E0D148B0F90600002812DACF4892
:104CC000B0F9060000EE100AB8EEC00ACE48A830CF
:104CD00080ED010A9FEDCE0AC94880EDFD0A022051
:104CE000CA490870C74890ED030AC748A83080ED4C
:104CF000020A09F00DF8C5480078012812D1C2480F
:104D0000A830D0ED0C0AB0EE600A9FEDC21ADFEDBC
:104D1000C20A12F017FABC48A83080ED0C0A15E060
:104D20003CE0A1E1B948007802280FD1B648A8308C
:104D3000D0ED0C0AB0EE600A9FEDB81ADFEDB80AAC
:104D400012F000FAB048A83080ED0C0AAE48A83046
:104D500090ED0C0A00F5527080ED010AB14890ED1B
:104D6000000AB14880ED020A08F0E4FEAE4890ED7A
:104D7000010A9FEDAE1AC0EE010A90ED0C0A90ED0B
:104D8000071ADFEDAB1A31EE211ADFEDAA1A31EE68
:104D9000611A01EE200A80ED0C0A65E19748C0888F
:104DA000A8B9974880EDFD8A964890ED000A94488E
:104DB00080EDFE0A944808F0BDFE934890ED0C0A81
:104DC000A83080ED010A00209049087030E08B483F
:104DD000B0F90600002813DD8848B0F9060000EE9F
:104DE000100AB8EEC00A8848A83080ED010A9FED8D
:104DF000880A834880EDFD0A01208449087017E085
:104E00007E48B0F90600002812DA7C48B0F90600A6
:104E100000EE100AB8EEC00A7B48A83080ED010A07
:104E20009FED7B0A764880EDFD0A022077490870E5
:104E3000744890ED030A7448A83080ED020A08F027
:104E400067FF72480078012810D16F48A830D0ED74
:104E50000C0AB0EE600A9FED6F1ADFED6F0A12F0D8
:104E600071F96948A83080ED0C0A13E067480078B2
:104E700002280FD16448A830D0ED0C0AB0EE600AC9
:104E80009FED661ADFED660A12F05CF95E48A83005
:104E900080ED0C0A5C48A83090ED0C0A624880ED69
:104EA000010A604890ED000A5F4880ED020A08F0B0
:104EB00041FE5D4890ED010A9FED5C1AC0EE010ACB
:104EC00090ED0C0A90ED071ADFED591A31EE211A18
:104ED000DFED581A31EE611A01EE200A80ED0C0A5E
:104EE000C2E04648C08860B99FED490A444880ED59
:104EF000FD0A00F59360C0ED018A00204349087067
:104F000030E03E48B0F90600002813DD3B48B0F918
:104F1000060000EE100AB8EEC00A3B48A83080ED4B
:104F2000010A9FED3B0A364880EDFD0A0120374912
:104F3000087017E03148B0F90600002812DA2F484F
:104F4000B0F9060000EE100AB8EEC00A2E48A830EC
:104F500080ED010A9FED2E0A294880EDFD0A02200E
:104F60002A490870274890ED030A2748A83080EDA9
:104F7000020A08F0CDFE25480078012810D1224809
:104F8000A830D0ED0C0AB0EE600A9FED221ADFEDDA
:104F9000220A12F0D7F81C48A83080ED0C0A13E062
:104FA0001A48007802280FD11748A830D0ED0C0A13
:104FB000B0EE600A9FED191ADFED190A12F0C2F87F
:104FC0001148A83080ED0C0A0F48A83090ED0C0A6B
:104FD000154880ED010A134890ED000A124880ED53
:104FE000020A08F0A7FD27E0A0330020420A0020B3
:104FF0006F12833ACCCCCC3C38080020441E0020F1
:1050000044100020DC1F0020341400203908002048
:10501000000000000000C8430000C8C300007A433D
:1050200000007AC3342500202418002000007544B5
:105030000080BB4400408344164890ED010A1FEDF8
:10504000051AC0EE010A90ED0C0A90ED071A5FED0B
:10505000081A31EE211A5FED091A31EE611A01EEDC
:10506000200A80ED0C0A00BF00BF0A48D0ED0C0AF0
:105070000948008800EE100AB8EE400A30EE800AB7
:10508000BDEEC00A10EE100A04490880BDEC028B88
:1050900070BD000024180020420A0020440A0020AD
:1050A00010B5B0EE000A164B83ED000A1B789BB9D1
:1050B00090ED000A124B83ED000A1B788B54104BC5
:1050C0005C78531CCC540E4B9C78931CCC540C4BEA
:1050D000DC78D31CCC5412E090ED000A084B83ED31
:1050E000000ADB788B54064B9C78531CCC54044B41
:1050F0005C78931CCC54024B1C78D31CCC5410BD50
:10510000EC0A002010B53D480088401C3B4908804F
:1051100008460088282848DB00200880384890F896
:105120003D0001283ED137490870002036490870FB
:10513000334981F83D009FED350A354880ED010A7D
:10514000084690ED100A324880ED020A084690F8B1
:105150003A102F4809F030F82D4890ED0C0AB1EEC6
:10516000400A2C4880ED000A9FED2B0A2848A83001
:1051700080ED010A224890ED0D0A2548A83080ED07
:10518000020A1F4890F83A102148A83009F014F894
:105190001F48A83090ED0C0AB1EE400A1D4880ED82
:1051A000010A02E001201849087017480078012818
:1051B0001BD11448007801280FD102201149087032
:1051C0009FED120A134880ED000A9FED100A80ED52
:1051D000010A012008F000F80EE00A4800780228D1
:1051E0000AD1002007F0F8FF06E00A48D0ED010AD6
:1051F00090ED000A08F044FA10BD00006609002096
:10520000903500206509002068090020000000009A
:105210006C1B00202C0900200000C84270B5054618
:105220000E46144634B107480068314642682846A5
:10523000904705E003480068314682682846904759
:1052400070BD000024080002034B53F82020938B0C
:105250008B4393837047000070A5010010B5024690
:10526000054850F82240208800EA01030BB10120D4
:1052700010BD0020FCE7000070A5010010B503463A
:10528000054C54F823001AB9048B8C43048302E0C4
:10529000048B0C43048310BD70A501000246084B2B
:1052A00053F8220043898B43438183898B43838155
:1052B00083888B438380C3888B43C38070470000FF
:1052C00070A501000246094B53F8220043898B4325
:1052D000438183898B43838183888B438380C38805
:1052E0000B43C38043888B434380704770A5010004
:1052F0000246094B53F8220043898B43438183893B
:105300008B43838183888B438380C3880B43C38013
:1053100043880B434380704770A501000246064B4B
:1053200053F8220043898B43438183898B438381D4
:1053300083880B438380704770A50100034B53F8AB
:10534000202053880B4353807047000070A5010054
:10535000034B53F8202053888B4353807047000041
:1053600070A501006948007B01287AD1674890ED5B
:10537000050A80ED060A90ED040A80ED050A90ED1D
:10538000020AB8EE400ADFED620A80EE201A80EDD4
:10539000041A90ED070A80ED090A90ED040AD0ED99
:1053A000050A30EE600ADFED5B0A80EE201A80ED20
:1053B000071A90ED070AD0ED090A30EE600ADFED1A
:1053C000550A80EE201A80ED081A90ED070AB5EE16
:1053D000C00AF1EE10FA02DD90ED070A04E04B4836
:1053E00090ED070AB1EE400ADFED4B0AB4EEE00A99
:1053F000F1EE10FA49D24948007801280DD143480E
:1054000090ED040AD0ED060AB4EE600AF1EE10FA4F
:1054100003D10120414908703AE040480078012852
:105420000DD13A4890ED040AD0ED050AB4EE600AB9
:10543000F1EE10FA03D101203849087028E037480E
:10544000007801280ED1314890ED050AD0ED060A0A
:10545000B4EE600AF1EE10FA04D101202F49087071
:1054600016E01DE0294890ED040A2D4880ED000A61
:10547000264890ED070A2B4880ED000A234890ED5E
:10548000080A294880ED000A02E00120234908703B
:1054900026480088401C2549088000201B490873C5
:1054A00022480088022806DB0120214981F8660095
:1054B00000201E4908801F48007B01280DD11D488F
:1054C00090ED020AB8EE400ADFED110A80EE201AD4
:1054D00080ED041A002017490873114890ED000A66
:1054E000DFED150AB4EEE00AF1EE10FA0AD890EDFD
:1054F000000AB5EEC00AF1EE10FA03DD01200F49F3
:10550000087102E000200D4908717047E832002060
:105510000000C842CDCC4C3D00007A441008002069
:105520004806002050060020580600200E080020E3
:10553000A0250020103300200000BE43AC0900204D
:1055400010B580210520FFF7D3FE01228021052020
:10555000FFF794FE80210520FFF776FE10BD0000C6
:1055600010B51C480078A0B91B480FF0EDFE3021A3
:10557000B0FBF1F119480068401C42F21072504330
:10558000401A17490860FFF7DBFF01201149087036
:105590001FE01048007801281BD10F480FF0D4FEFF
:1055A0003021B0FBF1F10D480068401C42F210724E
:1055B0005043401A0A494860084640680968401A42
:1055C000074988600120087300F02EF80020014987
:1055D000087010BD0C08002020C00040FC0700200F
:1055E000E832002010B50F480068802102690520CC
:1055F0009047002280210520FFF740FE09480068FF
:105600008021426B05209047064800688021826A0D
:105610000520904703480830006881693720884793
:1056200010BD00002408000210B580210520FFF7FE
:1056300049FE002280210520FFF720FE8021052061
:10564000FFF702FE10BD10B501210320FFF750FE49
:10565000012211460320FFF711FE01210320FFF76D
:10566000F3FD10BD10B51E480078B8B91D4800F014
:10567000AFFB1D480FF068FE3021B0FBF1F11B4875
:105680000068401C42F210725043401A18490860EA
:10569000FFF7D9FF0120124908701FE01048007879
:1056A00001281BD110480FF04FFE3021B0FBF1F163
:1056B0000E480068401C42F210725043401A0C49D8
:1056C0004860084640680968401A09498860012016
:1056D000087300F031F800200149087010BD000087
:1056E0000D0800203833002020C00040FC070020B7
:1056F0001033002010B50F48006801210269032013
:105700009047002201210320FFF7B8FD09480068F7
:105710000121426B03209047064800680121826AFC
:105720000320904703480830006881693520884786
:1057300010BD00002408000210B501210320FFF76E
:10574000C1FD002201210320FFF798FD0121032064
:10575000FFF77AFD10BD10B5FFF744FFFFF7CAFF52
:1057600010BD000010B50A480078401C08490870B8
:1057700008460078082804DBFDF710F900200449EA
:1057800008700FF0D7FEFCF743FE0FF0A1FA10BD32
:10579000580A002010B52DED028B3B480088B0F56B
:1057A000FA7F04DC38480088401C374908803648B6
:1057B0000088B0F5FA7F08D1344890ED0F0A80EDEB
:1057C000100A0120BDEC028B10BD2F48008840F26A
:1057D000F511884254D12D4890ED0F0AD0ED100AF2
:1057E00080EE201AB7EE000A21EE000AB0EE408AE1
:1057F000DFED270AB0EE480AFEF76EFEF7EE000A6C
:1058000030EEC00ADFED230A20EE200A1F4880EDAB
:10581000110A90ED110A10EE101A084610F0CFFC94
:1058200020B11A4890ED120A80ED110A1A4800784A
:10583000012823D1154890ED110AD0ED120A30EE5F
:10584000600AF6EE000A80EE201A80ED131A90ED41
:10585000110A80ED120A90ED130AD0ED140A30EE11
:10586000600AF6EE000A80EE201A80ED151A90ED1F
:10587000130A80ED140A0020074908700120A1E7EF
:1058800000BF00209EE70000240A0020A025002081
:10589000B1DC423ED048874A1002002010B51148C2
:1058A00090ED000ADFED100A20EE200A9FED0F1A9E
:1058B000C0EE010A0E48008800EE100AB8EE400A59
:1058C00020EE800ADFED0B0A20EE200ADFED0A0A47
:1058D00080EE201A094880ED001A09490968086F0E
:1058E000804710BD7006002000D8D64700401C46F7
:1058F00078060020333353400000804674060020B1
:105900000408000210B5FE480FF0DCFA0EF0B0FCFF
:10591000FC480FF0D7FAFB4890ED010AF848D0EDAB
:10592000010A30EE600AF84880ED000A06F090FBAC
:10593000F648D0ED024AB0EE644AD0ED014AF0EEEE
:10594000643AD0ED004AB0EE643AF148D0ED024A34
:10595000F0EE642AD0ED014AB0EE642AD0ED004AA0
:10596000F0EE641AEB48D0ED024AB0EE641AD0EDC6
:10597000014AF0EE640AD0ED004AB0EE640AE6484F
:10598000D0ED004A02F0B4F9E44890ED001AF8EEC8
:10599000001A21EE211AD0ED001A21EE211AE0485A
:1059A000D0ED001AB0EE002A61EE821A90ED002AC6
:1059B00001EEC21AF7EE001A31EE211AF0EE410A9A
:1059C00090ED001AF0EE001A21EE211AD548D0ED24
:1059D000001A21EE211AD448D0ED001AB0EE002AA8
:1059E00061EE821ACD4890ED002A01EE821AB0EEE7
:1059F000410AFEF74FFCDFEDCD0A20EE200ACC482D
:105A000080ED000AC848D0ED000AB0EE001A60EE42
:105A1000810AC34890ED001A60EE810ABF4890EDFC
:105A2000001AF0EE001A21EE211ABE48D0ED001A3D
:105A300041EE610AB0EE600AFEF78CFBDFEDBB0AB7
:105A400020EE200ABB4880ED000ABB488078012880
:105A50007BD1BA4890ED000AB948D0ED000A9FED1D
:105A6000B91A00EE810AB54880ED000AB648007800
:105A7000012858D1B54890ED000ADFEDB50AB4EE23
:105A8000E00AF1EE10FA09DDAC4890ED000ADFED16
:105A9000B10AB4EEE00AF1EE10FA13D3AB4890ED80
:105AA000000ADFEDAC0AB4EEE00AF1EE10FA23D200
:105AB000A24890ED000ADFEDA60AB4EEE00AF1EE8E
:105AC00010FA19DDA44890ED000AF7EE000A30EE56
:105AD000C00A9A48D0ED000AF1EE600A20EE200AD2
