:020000040000FA
:10000000101A00205901000061010000A52800001D
:1000100065010000670100006901000000000000A8
:100020000000000000000000000000000744000085
:100030006D01000000000000493900007D4400000F
:1000400073010000730100007301000073010000E0
:1000500073010000730100007301000073010000D0
:1000600073010000730100007301000073010000C0
:1000700073010000730100007301000073010000B0
:10008000811D0000311E0000ED1E00008D1F0000CC
:100090005120000073010000730100007301000093
:1000A0007301000073010000730100007301000080
:1000B0007301000073010000730100007301000070
:1000C0007301000073010000730100007301000060
:1000D0007301000073010000730100007301000050
:1000E000730100000000000000000000000000009C
:1000F0000000000000000000000000000000000000
:1001000000000000000000000000000000000000EF
:1001100000000000000000000000000000000000DF
:1001200000000000000000000000000000000000CF
:1001300000000000000000000000000000000000BF
:1001400000000000DFF80CD000F070FB0048004712
:10015000A96F0000101A0020064880470648004793
:10016000FEE7FEE7FEE7FEE7FEE7FEE7FEE7FEE767
:10017000FEE7FEE71547000045010000202A04DBEA
:10018000203A00FA02F1002070479140C2F12003AA
:1001900020FA03F3194390407047202A06DBCB175F
:1001A000203A41FA02F043EAE07306E041FA02F332
:1001B000D040C2F12002914008431946704740EAFE
:1001C00001039B0703D009E008C9121F08C0042AD5
:1001D000FAD203E011F8013B00F8013B521EF9D2BC
:1001E0007047D2B201E000F8012B491EFBD27047E4
:1001F0000022F6E710B513460A4604461946FFF7F3
:10020000F0FF204610BD2DE9FE4F804681EA030035
:10021000C00F0C46009021F0004123F00045B8EBE0
:100220000200A94105D24046214690461C460B4695
:10023000024623F00040104347D0270DC7F30A00C1
:10024000C3F30A510290401A019040286BDAC3F3BD
:10025000130040F4801B0098924620B10023D2EB9B
:10026000030A63EB0B0B01985946C0F1400250465C
:10027000FFF784FF06460D4650465946019AFFF7A0
:100280008CFF10EB08006141002487EA115284EAD8
:10029000E7731A4340D0009A62B3019A012A4FEAE9
:1002A000075215DC001B61EB02014FF0004202EA2D
:1002B0000752CDE90042001C41F5801132462B4621
:1002C00000F0FEF903B0BDE8F08F40462146F9E7A3
:1002D000001B61EB0201001C41F5801300185B411B
:1002E0002018A2F5001747EB030140EAD570B619B4
:1002F0006D4111E06D084FEA360645EAC0754FEAD8
:100300000752001B61EB0201001C41F580114908F6
:100310004FEA30000019514132462B4603B0BDE888
:10032000F04F00F0BEB90098012240000023D0EB4E
:10033000020263EBE073009821464FEAE074B8EBE9
:10034000000061EB0401E9E783F000435BE781F023
:10035000004158E72DE9FE4F81EA030404F0004410
:1003600021F0004100944FF0000B23F0004350EACD
:1003700001045ED052EA03045BD0C3F30A54C1F314
:100380000A552C44A4F2F3340194A0FB0254C1F3A7
:10039000130141F48011C3F3130343F4801301FBF1
:1003A000024400FB034E840A970A44EA815447EA58
:1003B0008357A4FB076802958D0A05FB07854FEA62
:1003C000932C04FB0C542705029D4FEA065847EA7C
:1003D0001637B5EB08056EEB070C870E920E47EA51
:1003E000811742EA8312A7FB0201B6EB0B0164EB13
:1003F00000042B0D43EA0C335E1844EB1C50DA4624
:100400005146E7FB0201C5F313044FEA0B3343EAFD
:1004100014534FEA0432019C43EA0603A4F10C048E
:100420000294009CCDE900B400F04AF903B0BDE8A5
:10043000F08F00200146F9E72DE9F04D81EA030431
:1004400004F0004B21F0004514464FF0000A23F061
:10045000004150EA050220D054EA01021DD0C5F344
:100460000A570246C5F31303C1F31300C1F30A563A
:1004700040F4801543F48013A7EB0608101BD64602
:1004800008F2FD3873EB050002D308F1010801E022
:1004900092185B41B8F1000F03DA00200146BDE875
:1004A000F08D00204FF48011064684460EE0171BA5
:1004B00073EB050705D3121B63EB050306434CEAF8
:1004C000010C49084FEA300092185B4150EA0107DD
:1004D000EDD152EA030012D082EA040083EA05015A
:1004E000084305D0101BAB4106D20122002306E0D1
:1004F00000224FF0004302E06FF0010253101AEBAC
:1005000006004CEB085110EB0A0041EB0B01BDE873
:10051000F04D00F0C6B80EB5C10F80EAE070084497
:10052000CA07002140F233438DE80E000A460B460D
:1005300000F0C6F803B000BD0EB540F233410291A1
:100540000021CDE900110A460B4600F0B9F803B0CE
:1005500000BDC1F30A5210B5C1F3130140F2FF33DD
:1005600041F480119A4201DA002010BD40F2334379
:100570009A42A2F2334203DC524200F04BF810BD23
:10058000904010BD00F0004230F000400AD0C10D94
:1005900001F56071C0F3160042EA0151C20840073C
:1005A00011437047002001467047000030B5041E1B
:1005B00071F1000404DB4FF00044404264EB0101A0
:1005C000141E73F1000405DB1C464FF00043524239
:1005D00063EB0403994208BF904230BD01F0004331
:1005E00030B421F0004150EA010206D00A0DA2F514
:1005F0006072C1F31301002A02DC30BC0020704796
:10060000440F44EAC104C100E01830BC00EBC25002
:1006100000F010B8202A04DB203A21FA02F0002171
:10062000704721FA02F3D040C2F120029140084302
:10063000194670470029A8BF7047401C490008BFF1
:1006400020F00100704710B4B0FA80FC00FA0CF002
:1006500050EA010404BF10BC704749B1CCF120043A
:1006600021FA04F411FA0CF118BF012121430843C7
:10067000A3EB0C01CB1D4FEA00614FEA102042BFF3
:10068000002010BC704700EBC35010440029A4BFE9
:1006900010BC7047401C490008BF20F0010010BC8E
:1006A000704710B5141E73F1000408DA401C41F1C4
:1006B000000192185B411A4301D120F0010010BDE6
:1006C0002DE9F04D92469B4611B1B1FA81F202E05C
:1006D000B0FA80F220329046FFF750FD04460F46F4
:1006E00040EA0A0041EA0B0153465A46084313D038
:1006F000114653EA010019D0C8F140025046FFF7F5
:1007000089FF05460E46504659464246FFF736FDDC
:10071000084305D0012004E020463946BDE8F08DAD
:100720000020054346EAE0762C4337430A986305E8
:10073000E40AA0EB08000022FD0A44EA47540A300C
:1007400002D500200146E9E7010510196941DDE9FC
:10075000084500196941BDE8F04DA2E770B521F0E8
:10076000004303430CD0C1F30A550024D5EB040524
:1007700064EB0403D617AD1AB34102DB0020014637
:1007800070BD201841EB025170BD2DE9F04D0023E2
:100790001A461B1A8A4103DB00200146BDE8F08D92
:1007A000C1F30A52C1F3130141F480154FF0000B5D
:1007B000D10702D100186D41521E0027044640F2B5
:1007C000FF11384601EB620A3E4680460246002091
:1007D0004FF48011FFF71EFFC2197141BB1846EBA1
:1007E0000100B4EB030C75EB000C04D3E41A65EBC9
:1007F000000517460E46241908F101006D41804698
:100800003428E3DDF91946EB0600091BA84103D2A1
:100810004FF0FF32134601E0002213461BEB0700A6
:1008200046EB0A51BDE8F04DFFF73BBF064C074DC4
:1008300006E0E06840F0010394E8070098471034B0
:10084000AC42F6D3FFF782FC187200003872000049
:1008500030B58C1810F8012B12F00F0301D110F8ED
:10086000013B120906D110F8012B03E010F8015BDF
:1008700001F8015B5B1EF9D101E001F8013B521E5A
:10088000FBD1A142E6D3002030BD0000F0EE400ACB
:10089000FC4890ED001AFC4880ED001AF94890EDF4
:1008A000021AFA4880ED001AF64890ED011AF8484D
:1008B00080ED001AF7488088A0F2DC5001EE100AA3
:1008C000B8EEC11ADFEDF41A21EE211AF34880EDDB
:1008D000001AF34890ED001ADFEDF21AB4EEE11AB7
:1008E000F1EE10FA0BDBED4890ED001AB5EEC01AF0
:1008F000F1EE10FA03DD9FEDEC1A80ED001AE748E7
:1009000090ED001ADFEDE91AB4EEE11AF1EE10FAFB
:100910000CD290ED001ADFEDE61AB4EEE11AF1EE1A
:1009200010FA03DD9FEDE01A80ED001ADB4890ED30
:10093000001AB5EEC01AF1EE10FA12DDDD4890EDA6
:10094000131AD648D0ED001A9FEDDB2A01EE821A69
:10095000D848D0ED151A31EE211AD04880ED011A91
:1009600011E0D44890ED131ACC48D0ED001A9FED59
:10097000CD2A01EE821ACF48D0ED151A31EE211A98
:10098000C64880ED011A9FEDCD1A20EE810AC348BA
:1009900090ED011AD0ED021A31EE611AC84880EDCF
:1009A000001A90ED001AB4EEC01AF1EE10FA02DD52
:1009B00080ED000A0DE0C24890ED001AF1EE401AF9
:1009C000B4EEE11AF1EE10FA03D2B1EE401A80ED66
:1009D000001AB24890ED021AB948D0ED001A31EE73
:1009E000211AAE4880ED021A90ED021AD0ED031ADA
:1009F00071EE611A90ED031A9FEDB22A02EE211AF0
:100A000080ED031AB0484079012849DBAF480078EF
:100A1000E8B3A24890ED031AAD4880ED001AA04853
:100A200090ED001AAA48D0ED001A01EEA01A9C48D9
:100A300080ED001A954890ED001ADFED9A1A31EE1C
:100A4000211A9748D0ED001AB4EEE11AF1EE10FA2F
:100A50000AD28E4890ED001ADFED921A31EE211A7B
:100A60008F4880ED001A26E0884890ED001ADFEDEF
:100A70008D1A31EE611A8A48D0ED001AB4EEE11AEF
:100A8000F1EE10FA17DD814890ED001A00E007E062
:100A9000DFED841A31EE611A814880ED001A0AE018
:100AA0009FED811A8A4880ED001A784890ED001A6F
:100AB0007B4880ED001A7A4890ED001ABDEEC11A0D
:100AC00011EE100A00B283490880704890ED001AB8
:100AD000BDEEC11A11EE100A00B27F4908807048BD
:100AE00090ED001A6948D0ED001A31EE611A7B488A
:100AF00080ED001A764890ED001A7848D0ED001A83
:100B0000B7EE082A02EE211A5F48D0ED001A6048BD
:100B100090ED002ADFED722A42EE821A31EE611A60
:100B2000704880ED001A90ED001AF1EE041A21EEE3
:100B3000211A6D4880ED001A90ED001A5448D0ED4E
:100B4000001A31EE611A694880ED001A90ED001A22
:100B5000DFED671A61EE211A664890ED001A01EE8A
:100B6000A01A80ED001A90ED001ADFED631AB4EEC2
:100B7000E11AF1EE10FA02DD9FED5F1A0DE05D481B
:100B800090ED001AB5EEC01AF1EE10FA02D29FED08
:100B9000461A02E0574890ED001A564880ED001AB8
:100BA000514890ED001ADFED551A21EE211A5448F4
:100BB00080ED001A90ED001A4E48D0ED001A31EE8B
:100BC000211A504880ED001A90ED001ADFED4E1A00
:100BD000B4EEE11AF1EE10FA02DD9FED4B1A0DE0D2
:100BE000484890ED001AB5EEC01AF1EE10FA02D2A4
:100BF0009FED2D1A02E0434890ED001A414880ED28
:100C0000001A90ED001ABCEEC11A11EE100A1D492F
:100C100008823E48007800F0010070B99FED221A6A
:100C2000344880ED001A194890ED001A1C4880EDF8
:100C3000001A00202549087080E0234840790128E7
:100C400079DB164890ED021ABDEEC11A11EE100ABA
:100C500000B2002872DD0B4890ED021ADFED2C1A6D
:100C6000B4EEE11AF1EE10FA57D290ED021ADFED70
:100C7000291AB4EEE11AF1EE10FA4EDD0120134903
:100C800008705BE0280F0020B0000020B8000020B2
:100C9000A8000020EC0E00206F12833A3C0F0020C9
:100CA000B40000200000164300000000CDCCCC3D75
:100CB000CDCCCCBD7C0F0020000048430000FA439F
:100CC000A0000020CDCC4C3E0C100020D400002011
:100CD000AC000020CA010020C8010020BC00002098
:100CE000CDCC4C3DC0000020A4000020C40000205A
:100CF0009A99193FC800002000001644CDCCCC3E84
:100D0000CC000020D000002000007A449400002095
:100D100000002042000020C20DE01FED1D1A08480F
:100D200080ED021A1FED201A80ED011A1FED221A24
:100D300080ED001A02E001200249087070470000AF
:100D4000280F0020D4000020FEB504460D460026E2
:100D5000002004E0215C3144CEB2411CC8B2691EBF
:100D60008142F7DC601910F8010CB04200D0FEBDE2
:100D70002078AA2802D16078AF2800D0F7E7A078C1
:100D8000052854D1E078E0283BD16079102813D0B1
:100D900004DC012807D0022810D105E011280CD06E
:100DA000E1280BD101E00AE009E0E079A17940EA0D
:100DB00001202049488202E001E000E000BF00BFBE
:100DC000E07BA17B40EA0120617B227B41EA02219A
:100DD000E27AA37A42EA0322CDE900210290607A06
:100DE000277A40EA0723E079A77940EA0722617968
:100DF000AF2000F0B9F910480068401C0E490860A7
:100E000015E0E078E12812D1A079617940EA012368
:100E1000E0790006217A00EB0140617A00EB0120C5
:100E2000A17A47183946184600F094F800BF00BF71
:100E30009DE70000FA110020F001002010B50748DE
:100E4000007848B106480078801DC1B20548FFF718
:100E50007BFF00200149087010BD0000D701002071
:100E6000D60100200E1200203549097839B9AA2888
:100E700005D10121324A1170324908705FE03049D2
:100E80000978012907D1AF2805D102212C4A117018
:100E90002C49487053E02A490978022905D10321D9
:100EA000274A11702749887049E0254909780329A4
:100EB00005D10421224A11702249C8703FE020491F
:100EC000097804290AD105211D4A11701D490871AC
:100ED0001D49087000211D4A117030E01849097839
:100EE000052919D118490978002915DD164909780D
:100EF000491E154A117015490978144A1278521C76
:100F0000124B1A70491D0F4A50540F490978B1B954
:100F100006210B4A117012E00949097806290BD104
:100F20000021074A117009490978491D054A5054A2
:100F30000121074A117002E00021014A1170704737
:100F4000EF0100200E120020EE010020D60100204B
:100F5000D701002000B50246642A00DD00BD044828
:100F600040F8221000F008F80248428200BFF5E77E
:100F700038100020FA110020784890ED010AB8EEF0
:100F8000C00ADFED770A80EE201A764880ED111A4C
:100F9000724890ED020AB8EEC00ADFED710A80EEE9
:100FA000201A704880ED121A6C4890ED030AB8EED2
:100FB000C00ADFED6B0A80EE201A6A4880ED131A32
:100FC000664890ED040AB8EEC00ADFED650A80EECF
:100FD000201A644880ED001A604890ED050AB8EECA
:100FE000C00ADFED5F0A80EE201A5E4880ED011A2C
:100FF0005A4890ED060AB8EEC00ADFED590A80EEB5
:10100000201A584880ED021A544890ED070AB8EEAD
:10101000C00ADFED530A80EE201A524880ED221AF2
:101020004E4890ED080AB8EEC00ADFED4D0A80EE9A
:10103000201A4C4880ED231A484890ED090AB8EE72
:10104000C00ADFED470A80EE201A464880ED241AD8
:10105000424890ED0A0AB8EEC00ADFED410A80EE80
:10106000201A404880ED441A3C4890ED0D0AB8EE35
:10107000C00ADFED3B0A80EE201A3A4880ED331AB1
:10108000364890ED100AB8EEC00ADFED350A80EE62
:10109000201A344880ED551A304890ED130AB8EE06
:1010A000C00ADFED2F0A80EE201A2E4880EDAA1A22
:1010B0002A4890ED140AB8EEC00ADFED290A80EE46
:1010C000201A284880EDAB1A244890ED150AB8EE96
:1010D000C00ADFED230A80EE201A224880EDAC1A08
:1010E0001E4890ED160AB8EEC00ADFED1D0A80EE2C
:1010F000201A1C4880EDBB1A184890ED170AB8EE6C
:10110000C00ADFED170A80EE201A164880EDBC1ADF
:10111000124890ED180AB8EEC00ADFED110A80EE11
:10112000201A104880EDBD1A0C4890ED190AB8EE4F
:10113000C00ADFED0B0A80EE201A0A4880ED991AEA
:10114000064890ED1C0AB8EEC00ADFED050A80EEF5
:10115000201A044880ED881A7047000038100020DB
:1011600000007A44B00A00202DE9FF4105460E46F2
:101170000024AA222146641C3748425405222146F5
:10118000641C42542146641C4554E0222146641CE0
:10119000425400222146641C42542146641C465499
:1011A0009DF809202146641C42549DF808202046E1
:1011B000611CCCB228490A549DF80D202046611CC0
:1011C000CCB225490A549DF80C202046611CCCB2B3
:1011D00021490A549DF829202046611CCCB21E49A1
:1011E0000A549DF828202146601CC4B21A48425473
:1011F0009DF82D202046611CCCB217490A549DF859
:101200002C202046611CCCB213490A549DF8312091
:101210002046611CCCB210490A549DF8302020466B
:10122000611CCCB20C490A54601F087100270020D1
:1012300005E00949095C3944CFB2411CC8B2A0425B
:10124000F7DB2046611CCCB203490F54214602480B
:1012500000F004F8BDE8FF81C811002070B5044615
:101260000D462A462146024803F0FEFB70BD0000F1
:10127000E003002030B52DED088B8DB004460D46FF
:10128000B0EE409AB6EE000A29EE000AF0EE408A6F
:10129000FE4890ED010AD0ED030A20EE200AD0EDC1
:1012A000000A90ED021A00EEC10AF0EE000A20EEEC
:1012B000200A8DED0A0A90ED000AD0ED010A20EE19
:1012C000200AD0ED020A90ED031A00EE810AF0EE3A
:1012D000000A20EE200A8DED0B0A90ED010A20EEA7
:1012E000000AD0ED020A90ED021A00EE810AF7EE34
:1012F000000AB0EE001A41EE400ACDED0C0AE448B7
:10130000B0F9000000EE900AF8EEE00A60EEA00AE4
:10131000DF48B0F9020001EE100AF8EEC11ADC480D
:10132000B0F9020001EE100AB8EEC11A41EE810ACE
:10133000D748B0F9040001EE100AF8EEC11AD448FB
:10134000B0F9040001EE100AB8EEC11A41EE810AAC
:10135000B0EE600A02F054FEB0EE408AB4F900002C
:1013600000EE100AB8EEC00A20EE080A8DED070A5A
:10137000B4F9020000EE100AB8EEC00A20EE080A26
:101380008DED080AB4F9040000EE100AB8EEC00AA8
:1013900020EE080A8DED090A9DED080ADDED0C0A24
:1013A00020EE200ADDED090A9DED0B1A00EEC10AC0
:1013B0008DED010A9DED090ADDED0A0A20EE200AF5
:1013C000DDED070A9DED0C1A00EEC10A8DED020A53
:1013D0009DED070ADDED0B0A20EE200ADDED080A7F
:1013E0009DED0A1A00EEC10A8DED030AB4F906005C
:1013F00000EE100AB8EEC00AA648D0ED000A20EEB2
:10140000200ADDED010AA44890ED001A01EE200A41
:101410008DED040AB4F9080000EE100AB8EEC00A17
:101420009C48D0ED000A20EE200ADDED020A9A4821
:1014300090ED001A01EE200A8DED050AB4F90A00BC
:1014400000EE100AB8EEC00A9248D0ED000A20EE75
:10145000200ADDED030A904890ED001A01EE200A03
:101460008DED060A894890ED010AB1EE400ADDEDE6
:10147000040A20EE200AD0ED020A9DED051A00EEC6
:10148000C10AD0ED030A9DED061A00EEC10A20EE56
:10149000280AF0EE409A90ED000ADDED040A20EEF5
:1014A000200AD0ED030A9DED051A00EEC10AD0ED29
:1014B000020A9DED061A00EE810A20EE280AB0EE1F
:1014C00040AA90ED030ADDED040A20EE200AD0EDDB
:1014D000000A9DED051A00EE810AD0ED010A9DED8E
:1014E000061A00EEC10A20EE280AF0EE40AA90ED9E
:1014F000020AB1EE400ADDED040A20EE200AD0ED2A
:10150000010A9DED051A00EE810AD0ED000A9DED5D
:10151000061A00EE810A20EE280AB0EE40BA90EDDD
:10152000000A30EE290A80ED000A90ED010A30EE43
:101530000A0A80ED010A90ED020A30EE2A0A80EDD7
:10154000020A90ED030A30EE0B0A80ED030AD0ED9B
:10155000000A60EEA00A90ED011AD0ED011A41EEEA
:10156000210A90ED021AD0ED021A41EE210A90ED07
:10157000031AD0ED031A41EE210AB0EE600A02F020
:101580003FFDB0EE408A414890ED000A20EE080A87
:1015900080ED000A90ED010A20EE080A80ED010AB4
:1015A00090ED020A20EE080A80ED020A90ED030A8F
:1015B00020EE080A80ED030A90ED000AF0EE000A22
:1015C00020EE200AD0ED020A20EE200AD0ED010A1A
:1015D000B0EE001A60EE810A90ED031A00EEC10A27
:1015E0002E4880ED000A294890ED020AF0EE000A2C
:1015F00020EE200AD0ED030A20EE200AD0ED000AEA
:10160000B0EE001A60EE810A90ED011A00EE810A38
:10161000234880ED000A1D4890ED000A20EE000AE4
:10162000D0ED010A90ED011A00EEC10AD0ED020AD8
:1016300090ED021A00EEC10AD0ED030A90ED031AF4
:1016400000EE810A174880ED000AB4F9000040421C
:1016500000EE100AB8EEC00A1048D0ED000A20EEE5
:10166000200AB4F9020000EE900AF8EEE00A0C48F5
:1016700090ED001A00EE810AB4F9040000EE900A21
:10168000F8EEE00A074890ED001A0DE05C0000203B
:10169000A80900202C710000800000206C000020B0
:1016A000700000207400002000EE810A134880EDD5
:1016B000000A90ED000ADFED120A30EE600ADFED5D
:1016C000110A20EE200A104880ED000A90ED000A71
:1016D000D0ED010A70EE600A90ED010A9FED0B1A41
:1016E00001EE200A80ED010A90ED010A084880ED24
:1016F000010A0DB0BDEC088B30BD00005800002081
:10170000000000457D3FF53E78000020CDCCCC3D6B
:10171000280F002010B50B4B1B782BB10A4C2180F1
:101720000023084C237004E0074B1B885B1E064C0B
:101730002380054B1B8823B90123024C2370034BE4
:101740001A7210BDB4010020B6010020D40F002091
:1017500010B52DED068BC848007810B9BDEC068B8E
:1017600010BD1A22C549C648FEF729FDC3480078B6
:10177000AA2860D1C1484078AF285CD10320C14974
:101780000871BE484079BD49097940EA0120BE4947
:101790000880BA48C079B949897940EA0120BA4934
:1017A0004880B648407AB549097A40EA0120B649EE
:1017B0008880B248C07AB149897A40EA0120B249AA
:1017C000C880AE48407BAD49097B40EA0120AE4964
:1017D0000881AA48C07BA949897B40EA0120AA491F
:1017E0004881A648407CA549097C40EA0120A649D9
:1017F0008881A248C07CA149897C40EA0120A24995
:10180000C8819E48407D9D49097D40EA01209E494E
:1018100008829A48C07D9949897D40EA01209A4909
:1018200048829648407E9549097E40EA01209649C3
:10183000888202F007FC924800884AF6AA21884272
:101840001FD18F48008B491088421AD103208D493F
:1018500008718B4800898C4908808948C088488075
:1018600087488088888086484089C8808448C089A5
:10187000088183488089488181484088488202F0F5
:10188000E1FB824800780F287DD1804840787F496D
:10189000897840EA0120C0F30A007D4908807B482E
:1018A0008078C0107949C97840EA4110C0F30A0035
:1018B000774948807548C07880117449097940EAB1
:1018C00081007249497940EA8120C0F30A007049D9
:1018D00088806E48407940106C49897940EAC1108F
:1018E000C0F30A006A49C8806848807900116749D6
:1018F000C97940EA0110C0F30A00654908816348CC
:10190000C079C0116149097A40EA41005F49497ACA
:1019100040EA4120C0F30A005D4948815B48407AB3
:1019200080105A49897A40EA8110C0F30A00584968
:1019300088815648807A40115449C97A40EAC100EA
:101940005349C8815148007B5049497B40EA0120F6
:10195000C0F30A004E4908824C48407BC0104B49F6
:10196000897B40EA4110C0F30A0049494882474850
:10197000807B80114549C97B40EA81004349097C4D
:1019800040EA812000E072E0C0F30A00404988820A
:101990003E48007C40103D49497C40EAC110C0F3FC
:1019A0000A003B49C8823948407C00113749897C8C
:1019B00040EA0110C0F30A00354908833348807CAF
:1019C000C0113249C97C40EA41003049097D40EAF2
:1019D0004120C0F30A002E4948832C48007D801026
:1019E0002A49497D40EA8110C0F30A0028498883CA
:1019F0002648407D40112549897D40EAC10024499F
:101A0000C88300241CE0224931F81400FEF794FD3D
:101A100041EC1A0B9FED1F0B53EC102BFEF79AFCB9
:101A200041EC190B9FED1D0B53EC102BFEF7EBFB5C
:101A300041EC180BFEF78DFD154921F81400641CCC
:101A4000102CE0DB124840880F494880104800887D
:101A500008800F48C088C8800D48808888800C485E
:101A6000008908810A48C089488102F0EBFA3220D7
:101A70000C49086000BF71E6D9000020CC0E0020A0
:101A8000020F002040000020EC0E0020FC0100208E
:101A9000AC0E00207F6ABC749318E83F0000000081
:101AA00000A887408400002010B5044600201BE0F9
:101AB0001849095C79B9184931F8101042F21072CE
:101AC00091420CDA144931F8101022781144124A6C
:101AD00022F8101003E000210F4A22F81010002114
:101AE0000C4A1154411CC8B20228E1DB0A480088A4
:101AF000B0F57A7F04DC08484088B0F57A7F05DDD0
:101B000000200649087000F0F7F802E001200349C0
:101B1000087010BD31000020340000202C09002086
:101B200070B504460D460026002004E0215C3144D7
:101B3000CEB2411CC8B2691E8142F7DC601910F8B0
:101B4000010CB04200D070BDE078512835D16079E9
:101B500060B9A07900F0D0F8E07940B224498871EA
:101B6000207A40B2C871607A487126E06079012815
:101B700023D1A07900F0C0F8E079000200B2217A08
:101B800008431B490881607A000200B2A17A084329
:101B900017494881E07A000200B2217B08431449CA
:101BA0008881607B000200B2A17B08431049C88194
:101BB000E07C487101200F490870E078522814D168
:101BC000607948B9E079A17940EA012008490882A2
:101BD00001200849487008E06079012805D1E079C2
:101BE000A17940EA01200249488200BFABE700002A
:101BF0002C0900203100002010B504463A48007836
:101C000038B9AA2C05D1012037490870374804702B
:101C100068E035480078012807D1222C05D1022040
:101C200031490870314844705CE02F480078022840
:101C300005D103202C4908702C48847052E02A48B2
:101C40000078032805D10420274908702748C4706C
:101C500048E02548007804280FD105202249087063
:101C600022480471224804700078282801DD0020F1
:101C7000087000201F49087034E01B4800780528D0
:101C800019D11B480078002815DD19480078401E3E
:101C9000174908701748007816490978491C154AF1
:101CA0001170401D11490C5411480078D0B906201C
:101CB0000D49087016E00C48007806280FD1002066
:101CC000094908700B480078401D08490C54094820
:101CD0000078801DC1B20548FFF722FF02E0002016
:101CE0000149087010BD000039000020740900206F
:101CF000380000203000002000F00101064A517039
:101D0000C0F3400204498A70C0F38002CA70C0F375
:101D1000C0020A71704700002C09002001B5684616
:101D2000FFF7C2FE08BD00B50246F0EE402AB0EE55
:101D3000620A084602F0DEFF91ED030A82ED050A11
:101D4000B0EE620A104602F0D5FF00BD30B5044681
:101D5000002505E04FF47A7000F005F8681C85B2A4
:101D6000A542F7D330BD30B5044600F04FFD05461F
:101D700000BF00F04BFD401BA042FAD330BD000075
:101D800070B528480068416C2748884704462146BA
:101D9000254802F054FD04F00100D8B12148006844
:101DA000016C2148884705461E480068016C1E48A2
:101DB00088471E494A7B0E3188541C48407B401C92
:101DC0000E39487301200871002008732846FFF778
:101DD00013FF00BF04F0020018B3144890F840004D
:101DE000F8B9124890F88D01401C104981F88D0116
:101DF000084690F88D0191F88E11884207DB01208A
:101E00000A4981F84000002081F88D0109E0074A65
:101E100092F88D3102F28F12D15C044A106802F000
:101E200012FD70BD60080002001000401C0200207E
:101E300070B52B480068416C2A4888470446214603
:101E4000284802F0FCFC04F0010000B324480068BC
:101E5000016C24488847054621480068016C2148E8
:101E600088470146204890F8D12100F5E970815457
:101E70001D4890F8D101401CC1B21B4880F8D11117
:101E8000012180F8C811002180F8D01100BF04F0B2
:101E9000020020B3144890F8040200BB124890F8E6
:101EA0005103401CC1B2104880F8511390F85113EF
:101EB00090F85203814207DB01210B4880F804129D
:101EC000002180F851130AE0074A92F8513302F2D8
:101ED0005332D15C044AD2F8C40102F0B4FC70BDA4
:101EE00060080002001400401C02002010B52448C5
:101EF0000068416C2348884704462146214802F087
:101F00009EFC04F0010080B31D480068016C1D4870
:101F1000884701461C4890F8952300F2963081547A
:101F2000194890F89503401CC1B2174880F89513E2
:101F3000012180F88C13002180F8941390F8960307
:101F40000F2802D0104880F895130F4890F8950399
:101F500019280BD10C4890F8951300F2963002F036
:101F60005FFC0021084880F8951308E0064890F8C7
:101F70009503192803DD0021034880F8951310BD4F
:101F800060080002001800401C02002070B52D48B7
:101F90000068416C2C488847044621462A4802F0D4
:101FA0004EFC04F0010018B326480068016C264876
:101FB000884705462846FEF757FF22480068016C0F
:101FC000214888470146214890F8592500F25A5087
:101FD00081541E4890F85905401CC1B21B4880F836
:101FE0005915012180F85015002180F8581500BFBF
:101FF00004F0020020B3154890F88C0500BB13488C
:1020000090F8D906401CC1B2104880F8D91690F853
:10201000D91690F8DA06814207DB01210B4880F8D7
:102020008C15002180F8D9160AE0084A92F8D936B2
:1020300002F2DB62D15C054AD2F84C0502F003FCE7
:1020400070BD000060080002001C00401C0200205F
:10205000704700000348007820F00100401C01494F
:10206000087070479400002010B52DED028BB0EE83
:10207000408A79480078012806D00B280DD01F2807
:1020800022D0FF287ED1CEE07448007800F0010015
:1020900010B10B2070490870D1E002F02DF900F06A
:1020A000F1FD9FED6F0A6F4880ED020A90ED020A84
:1020B0006D4880ED000A9FED6A0A6C4880ED5B0A6E
:1020C0001F2065490870BAE0694890ED000A694828
:1020D000B0F9060000EE900AF8EEE00A664890EDCE
:1020E000001A10EE810A6248D0ED000AB6EE001A1E
:1020F00041EE000AC0ED000A90ED010A5D48B0F91A
:10210000080000EE900AF8EEE00A5B4890ED001A35
:1021100010EE810A5648D0ED010AB6EE001A41EEE3
:10212000000AC0ED010A90ED020A5248B0F90A0017
:1021300000EE900AF8EEE00A4F4890ED001A10EE1B
:10214000810A4B48D0ED020AB6EE001A41EE000AB1
:10215000C0ED020A90ED000A444880ED170A444899
:1021600090ED010A414880ED060A414890ED020ACF
:102170003E4880ED280A3B4890ED010A3B4880ED3F
:10218000390A00E057E0374890ED000A374880ED03
:102190004A0A9FED330A80ED5B0A324890ED020A4D
:1021A0003148D0ED000A30EEC00A304880ED5A0ABE
:1021B00090ED5A0ADFED310AB4EEE00AF1EE10FAC2
:1021C00008DB90ED5A0ADFED2E0A30EE600A80ED52
:1021D0005A0A11E0254890ED5A0ADFED2A0AB4EEBA
:1021E000E00AF1EE10FA07D890ED5A0ADFED240A62
:1021F00030EE200A80ED5A0AB0EE480A2249A1F1D9
:10220000CC00FFF790FDB0EE480A1F49443917484B
:10221000FFF789FDB0EE480A1B494431A1F1CC001B
:10222000FFF781FD0BE002F067F800F02BFD0120C5
:102230000949087003E0FF200749087000BF00BF8C
:102240000648007800F0010010B9FF20024908702C
:10225000BDEC028B10BD00009C000020940000200B
:1022600000000000A40A002098000020B00A00200E
:102270001C0F0020A8090020287100000000344332
:102280000000B443000034C3C00B002000201849F4
:10229000087000BF28E0042817DA9FED160A1649D7
:1022A00001EB800181ED000A9FED120A12490C3109
:1022B00001EB800181ED000A9FED0E0A0E491831F5
:1022C00001EB800181ED000A04E000210A4A2C3A6A
:1022D000A2F8501000220849183941F8202010397E
:1022E00041F82020411CC8B20428D4DB704700000C
:1022F0008A01002000000000A80F002010B543480C
:102300004349086144304861B7EE080A084600694D
:1023100080ED000AB7EE080A0846406980ED000A21
:10232000B0EE080A0846406980ED070AB0EE080AD8
:102330000846006980ED070A9FED360A364880EDB1
:10234000AA0A9FED360A80EDAB0A9FED350A80EDB3
:10235000AC0A9FED300A80EDBB0A9FED300A80ED9C
:10236000BC0A9FED2F0A80EDBD0A9FED2E0A80ED7D
:102370008D0A9FED2D0A80ED9E0AB3EE040A0846F1
:10238000406980ED0F0ABBEE040A0846406980ED03
:10239000100AB3EE040A0846006980ED0F0ABBEE8E
:1023A000040A0846006980ED100A4FF4487048811D
:1023B000322088811D480860A0F5627008601C48C2
:1023C00048601C48007820F004001A4908701A4838
:1023D000006802214269012090471648007815499B
:1023E00008701548006810214269012090470020BC
:1023F00009E09FED120A00EB4001114A02EB810156
:1024000081ED010A401C0328F3DB10BDD00C002035
:10241000D40F00206666E63EB00A0020B81E053ED6
:102420004260653C000070420000A0427607002038
:102430000C100020044C00402408000200000000A2
:10244000580F002010B52DED088B0446314890ED53
:10245000021A21EE011AD0ED031A90ED032A01EEC3
:10246000821AF7EE001AB0EE002A42EE411AF0EEA0
:10247000610A90ED011AF0EE001A21EE211AD0ED5A
:10248000021A21EE211AD0ED001AB0EE002A61EEF8
:10249000821A90ED032A01EE821AB0EE410A03F08F
:1024A000A7F91D48D0ED000A20EE200A84ED020AAB
:1024B0000068FEF767F841EC190B18480068FEF752
:1024C00061F841EC1B0BB0EE4B0AF0EE6B0A02F028
:1024D000DFFFB0EE40AAF0EE60AA53EC192B51ECEE
:1024E0001A0BFDF737FF41EC180BFEF777F8606029
:1024F0000B48D0ED000A0B4890ED000A03F078F984
:102500000548D0ED000A20EE200A84ED000ABDEC5B
:10251000088B10BD5C000020207100006C000020C2
:10252000740000207000002000B587B0062301AAC7
:102530003B21D02000F00EFA06230DF10A024321C0
:10254000D02000F007FA002059E0012101EB400102
:1025500001AA515C12F8102041EA02222A4931F8FE
:102560001010511A09B204AA22F8101004A931F966
:10257000101000EE101AB8EEC00A244901EB8001D9
:10258000D1ED000A70EE600A204901EB800191ED67
:10259000000A9FED1F1A01EE200A1C4901EB800181
:1025A00081ED000A194901EB800191ED000A1749FC
:1025B000183101EB8001D1ED000A70EE600A134979
:1025C000183101EB800191ED000A9FED111A01EE27
:1025D000200A0E49183101EB800181ED000A0B49F8
:1025E000183101EB800191ED000ABDEEC00A10EE3A
:1025F000101A09B2074A126822F81010401C062867
:10260000A3DB07B000BD0000B4090020D009002002
:102610009A99993E5000002070B58AB0182104A8FC
:10262000FDF7E6FD002405260020029003900090AF
:10263000019073480021C160016141614FF4006164
:102640000182002505E00220FFF780FBFFF76CFF09
:102650006D1CB5F5967FF6DB36E06A480068401CD5
:10266000684908600220FFF771FBFFF75DFF6448CF
:10267000B0F90000B0F5C87F23DA6148B0F9000076
:1026800010F5C87F1DDD5E48B0F90200B0F5C87FC7
:1026900017DA5B48B0F9020010F5C87F11DD584821
:1026A000B0F90400B0F5C87F0BDA5548B0F9040062
:1026B00010F5C87F05DD53480068B0F5FA6F03DDFB
:1026C00003E000204F490860C7E700BF69E04C48BD
:1026D000B0F90600002803DD4948B0F9060003E020
:1026E0004748B0F906004042D8B94548B0F908005B
:1026F000002803DD4248B0F9080003E04048B0F983
:102700000800404268B93E48B0F90A00002803DDDD
:102710003B48B0F90A0003E03948B0F90A004042EA
:10272000C0B3002415E038480168E01C31F81000FF
:1027300002A931F81410401A00B22DF814003248E2
:102740000168E01C31F8100002A921F81400601C97
:1027500004B2032CE7DBBDF90000002802DDBDF95F
:10276000000002E0BDF900004042052819DABDF979
:102770000200002802DDBDF9020002E0BDF90200FE
:10278000404205280DDABDF90400002803DDBDF93B
:10279000040003E005E0BDF904004042052800DA2A
:1027A00000E094E700BF002415E0FFF7BDFE642CB5
:1027B0000FDB00200BE004A951F82010124A126828
:1027C00032F91020114404AA42F82010401C0628B7
:1027D000F1DB601C04B2B4F5B27FE6DB00240AE052
:1027E00004A850F82400001201B205480C3020F86B
:1027F0001410601C04B2062CF2DB0AB070BD00009D
:10280000A8090020540000205000002010B500BF8F
:102810000D4A11684FF0E02292690C4B1B6803EBE4
:102820004304C4EBC313C2EBC302084B1B68B2FBE7
:10283000F3F201EB4103C3EBC11302EBC300024A05
:1028400012689142E4D110BD2C0000202800002025
:1028500010B51048007840F020000E49087000F0D4
:1028600005FB00F053FB01F08BFD00F043FE04F08C
:10287000A3FBFFF743FD04F075FB01F01FFD0648C5
:10288000007E28B10548407A10B101200449087043
:1028900010BD0000054C0040A8090020000A0020DF
:1028A000D9000020704700000348007820F00100A4
:1028B0000149087070470000024C00400349097844
:1028C00041F00101014A117070470000024C0040C4
:1028D000704700000348007820F0010001490870AB
:1028E00070470000034C00400349097841F00101A2
:1028F000014A117070470000034C0040704700000F
:102900000348007840F0200001490870704700003B
:10291000454C004070B504460D4600F059F920467C
:1029200000F010F900F060F8284600F00BF900F014
:102930005BF800F04DF9601C00F004F900F054F869
:1029400000F088F80646002000F0B6F800F06EF9B6
:10295000F0B270BDF0B507460E4614461D4600F0B5
:1029600037F9384600F0EEF800F03EF8304600F057
:10297000E9F800F039F800F02BF9781C00F0E2F8E3
:1029800000F032F811E0012D06D100F063F820705C
:10299000002000F091F805E000F05CF820700120C4
:1029A00000F08AF8641C681EC5B2002DEBD100F05F
:1029B0003DF90020F0BD70B506460C46154600F006
:1029C00007F9304600F0BEF800F00EF8204600F09F
:1029D000B9F800F009F8284600F0B4F800F004F85F
:1029E00000F024F970BD000000B51848007820F010
:1029F000100016490870881E007840F02000891EDB
:102A000008700EE012480078401C11490870084612
:102A10000078052805DD00F009F900200C49087050
:102A200006E00A48001F007800F010000028E9D1F5
:102A300000BF0648801E007820F020000349891E50
:102A40000870012004F050FA00BD0000454C004021
:102A50001800002010B500231648007820F0100060
:102A60001449087008241DE01248801E007840F0C8
:102A700020001049891E08705806030E881E007831
:102A800000F0100010B143F0010300E000BF09485E
:102A9000801E007820F020000649891E0870012061
:102AA00004F022FA201EA4F10101CCB2DCD11846B8
:102AB00010BD0000454C004000B50346204800789A
:102AC00040F010001E490870881E007820F0200099
:102AD000891E0870012004F007FA43B91848801EC7
:102AE000007840F010001649891E087007E014486D
:102AF000801E007820F010001149891E0870012006
:102B000004F0F2F90E48801E007840F020000C49D5
:102B1000891E0870012004F0E7F90948801E00783A
:102B200020F020000649891E0870012004F0DCF91D
:102B30000348007820F010000149087000BD000033
:102B4000454C004010B503462048007840F0100086
:102B50001E49087008242DE003F0800040B11B4896
:102B6000801E007840F010001849891E087007E0A8
:102B70001648801E007820F010001449891E087045
:102B80005B00012004F0B0F91048801E007840F08E
:102B900020000E49891E0870012004F0A5F90B4899
:102BA000801E007820F020000849891E087001204E
:102BB00004F09AF9201EA4F10101CCB2CCD1034853
:102BC000007820F010000149087010BD454C00400D
:102BD00000B51548007840F0100013490870881EB1
:102BE000007840F01000891E08700846007840F018
:102BF00020000870012004F077F90B48801E00784F
:102C000020F010000849891E0870012004F06CF9BA
:102C10000548801E007820F020000349891E0870B6
:102C2000012004F061F900BD454C004000B5144896
:102C3000007840F0100012490870881E007820F0DB
:102C40002000891E08700846007820F010000870E7
:102C5000012004F049F90A48801E007840F0200065
:102C60000749891E0870012004F03EF90448801EBF
:102C7000007840F010000249891E087000BD000075
:102C8000454C0040B7EE000A074880ED000A9FED72
:102C9000070A80ED010A9FED050A80ED020A9FED0B
:102CA000030A80ED030A70475C000020000000006A
:102CB00010B541480078B0B94048007840F00200B3
:102CC0003E4908700846007840F004000870084645
:102CD000007840F001000870481E007840F00100C4
:102CE000491E087010BD3648007800B9FAE7002088
:102CF00033490870FEF7A2F832480068401C314999
:102D00000860084600680321B0FBF1F201FB1200E5
:102D100028B99FED2D0AFFF7A7F900F041F92948DE
:102D2000007800F0070010B92848FFF78BFB254812
:102D300000680B21B0FBF1F201FB120010B90B206F
:102D4000FEF7ECFF1F4800680A21B0FBF1F201FB1F
:102D5000120018B99FED1E0A01F062FF19480068C1
:102D60001421B0FBF1F201FB120088B902F090F8D7
:102D70009FED180A02F086FA9FED160A02F094F908
:102D80009FED140AFDF782FD9FED120A00F012FC80
:102D90000C4800683221B0FBF1F201FB120028B9A7
:102DA000322000F0FDFA322000F0CCFE00F0CEFD23
:102DB00000F018FE00BF95E7D9000020034C00404A
:102DC000D8000020EC000020A69B443BA40A002071
:102DD0000AD7233C0AD7A33C1E48007800F0010024
:102DE00020B901201C49C870087104E002201A496A
:102DF00008710020C8701948007A012823D11848AA
:102E00000068401C1649086008460068322190FBA3
:102E1000F1F201FB1200E0B91248007880F00100E5
:102E2000104908700846007830B10F48007840F02B
:102E300002000D4908700CE00B48007820F00200F9
:102E40000949087005E00848007820F002000649AA
:102E5000087070479400002040000020D40F00202C
:102E6000480000204C000020034C004010B5FFF744
:102E700031FDFFF719FD0220154908710120C870C6
:102E80001448007840F0010012490870481C00788E
:102E900040F00100491C08700846007840F002002C
:102EA00008700846007840F004000870C81E0078DA
:102EB00020F00100C91E0870481C007820F00100B5
:102EC000491C08700846007840F00400087010BDE6
:102ED00040000020044C004010B50B490968086808
:102EE000804701F0F9FA01F08FFA00F00DFA642042
:102EF000FEF72CFFFFF704FD01F0BAFC0249383958
:102F000009680868804710BD6408000210B50024F5
:102F10007521D020FFF7FEFC0446682C03D000206A
:102F20001E49087610BDC820FEF710FF80226B21D5
:102F3000D020FFF740FDC820FEF708FF002219212E
:102F4000D020FFF738FD0A20FEF700FF03226B2197
:102F5000D020FFF730FD0A20FEF7F8FE04221A21E8
:102F6000D020FFF728FD0A20FEF7F0FE18221B21D3
:102F7000D020FFF720FD0A20FEF7E8FE18221C21D2
:102F8000D020FFF718FD0A20FEF7E0FEFFF744FB14
:102F900001200249087600BFC4E70000A80900200C
:102FA00010B5CE48007800F0010010B9FF20CC49E0
:102FB0000870CB480078012806D0022818D01F28B6
:102FC00038D0FF2870D172E1C448007800F00100C9
:102FD00068B1C248007820F00400C0490870084673
:102FE000007820F0020008700220BD49087000BF80
:102FF000BC48007840B1B9480078C0F3800018B9E7
:103000001F20B74908700EE0B4480078C0F3800074
:1030100048B1B248007820F00200801CAF49087027
:103020001F20AF4908706420AF490880488088801D
:10303000C88045E10024AD4890ED010ADFEDAC0AFF
:10304000B4EEE00AF1EE10FA1AD390ED010ADFEDCA
:10305000A90AB4EEE00AF1EE10FA11DC90ED000AD4
:10306000DFEDA30AB4EEE00AF1EE10FA08D390ED1A
:10307000000ADFEDA00AB4EEE00AF1EE10FA14DD6A
:103080009648007820F0010094490870FF20944988
:10309000087001F029F901F02FF9FFF7F3FD9248CC
:1030A0000021016041600BE109E19348407920B9BA
:1030B00092488088A0F57A7004B28F484079012840
:1030C00004DB8F48008A04B200F0BCFF002C01DC56
:1030D000002005E040F25230844200DD00E020464E
:1030E00081490880002C01DC002005E040F25230CC
:1030F000844200DD00E020467B494880002C01DC52
:10310000002005E040F25230844200DD00E020461D
:1031100075498880002C01DC002005E040F2523027
:10312000844200DD00E020466F49C880754890ED7C
:10313000140AD0ED030A30EE600AD0ED250A70EED5
:10314000200A0846B0F9000000EE100AB8EEC00AE6
:1031500030EE800ABDEEC00A10EE100A00B2088000
:10316000684890ED140AD0ED030A30EE200AD0ED45
:10317000250A70EE600A0846B0F9020000EE100A57
:10318000B8EEC00A30EE800ABDEEC00A10EE100A9A
:1031900000B248805B4890ED140AB1EE400AD0EDD1
:1031A000030A30EE200AD0ED250A70EE200A084608
:1031B000B0F9040000EE100AB8EEC00A30EE800A42
:1031C000BDEEC00A10EE100A00B288804D4890EDA6
:1031D000140AB1EE400AD0ED030A30EE600AD0EDD9
:1031E000250A70EE600A0846B0F9060000EE100AE3
:1031F000B8EEC00A30EE800ABDEEC00A10EE100A2A
:1032000000B2C8800846B0F90000642801DC6420E0
:103210000BE03548B0F90000B0F57A7F02DD4FF4DD
:103220007A7002E03048B0F900002F490880084663
:10323000B0F90200642801DC64200BE02A48B0F9F0
:103240000200B0F57A7F02DD4FF47A7002E0264882
:10325000B0F90200244948800846B0F90400642807
:1032600001DC64200BE02048B0F90400B0F57A7F5F
:1032700002DD4FF47A7002E01B48B0F904001A49ED
:1032800088800846B0F90600642801DC64200BE061
:103290001548B0F90600B0F57A7F02DD4FF47A7078
:1032A00002E01148B0F906000F49C88008E001208B
:1032B0000B4908700C4800210160416000E000BF2C
:1032C00000BF094CB4F90630B4F90420B4F9021077
:1032D000B4F9000001F0B4FC10BD0000940000201F
:1032E0009D000020D40000208C000020A40A0020B3
:1032F000000020C2000020420C100020EC0E002034
:10330000280F0020B00A002010B51D4800680122D7
:10331000D021836902209847194800680122402182
:103320008369052098471648343000681549C26AF9
:103330004FF0804090471248343000681149C26A0B
:10334000114890470A200F49C8600D483430006882
:10335000C26A4FF08040904708200A49C860084878
:1033600034300068C26A4FF080409047042005491D
:10337000C860034834300068C26A0348904710BDF3
:1033800024080002000000200008004003480078E4
:10339000022802D1032001490870704784010020EF
:1033A0004449097831B14449097861B90121424A57
:1033B000117008E04049097829B94049097811B1EC
:1033C00002213D4A11703C49097881B93C4991ED8F
:1033D000020ABDEEC00A3B4981ED000A00213A4ACB
:1033E00011809FED3A0A3A4981ED150A52E03249BF
:1033F000097801293BD133490968C1F15A014FF4D9
:103400007A7251431E2291FBF2F109B2314A1180C6
:103410001146B1F90010002901DC00210BE02D4913
:10342000B1F9001041F28832914201DD114602E00B
:103430002849B1F90010274A11802349098801441D
:1034400009B2214A1180B3EE0E0A214981ED150A15
:103450001146B1F900101F4AB2F90020914219DD5E
:103460000021194A11800221134A117012E01249F9
:103470000978022905D19FED150A154981ED150A34
:1034800008E00D490978032904D1BBEE0E0A104962
:1034900081ED150A1049097801F0010149B99FED44
:1034A0000B0A0B4981ED150A0021034A1170014AEC
:1034B000117070478501002084010020D400002095
:1034C000280F00208C010020920100200000000045
:1034D0007C0F0020900100209400002010B5FEF722
:1034E000B9FD0348007810B901200149087010BDEA
:1034F00085010020B2EE000A254880ED330A9FEDD9
:10350000250A80ED000A9FED230A80ED010A9FED58
:10351000220A80ED020AB2EE040A80ED0D0ABAEE2C
:10352000040A80ED0E0AB2EE000A80ED440A9FED17
:10353000190A80ED110AB7EE000A80ED120A9FED1C
:10354000170A80ED130AB2EE040A80ED1E0ABAEEE5
:10355000040A80ED1F0AB2EE000A80ED550AB0EEB3
:10356000000A80ED220A9FED0E0A80ED240A9FEDED
:103570000D0A80ED310A9FED0C0A80ED320A9FEDB5
:103580000B0A80ED1E0A9FED0A0A80ED1F0A7047A4
:10359000B00A0020CDCC8C3F8FC2753D0AD7233DA9
:1035A000000000000000C8420000C8C200004842FD
:1035B000000048C2D148D0ED110AD148408840F2FD
:1035C000DC51081A01EE100AB8EEC11ADFEDCD1A6F
:1035D00041EE210ACC48C0ED000AC848D0ED120ADD
:1035E000C7480088081A01EE100AB8EEC11ADFEDCC
:1035F000C51A41EE210AC448C0ED010AD0ED000A07
:10360000F5EEC00AF1EE10FA02DDD0ED000A04E09A
:10361000BD48D0ED000AF1EE600AB2EE041AF4EEF5
:10362000C10AF1EE10FA04D2DFEDB80AB648C0EDD7
:10363000000AB548D0ED010AF5EEC00AF1EE10FA25
:1036400002DDD0ED010A04E0AF48D0ED010AF1EE51
:10365000600AB2EE041AF4EEC10AF1EE10FA04D2D6
:10366000DFEDAA0AA848C0ED010AA948B0F9080090
:1036700000EE900AF8EEE00AA648C0ED000AA44861
:10368000B0F90A0000EE900AF8EEE00AA148C0ED99
:10369000010A9F48B0F90C0000EE900AF8EEE00A2B
:1036A0009D48C0ED000A9A48B0F90E0000EE900A5D
:1036B000F8EEE00A9848C0ED010A9348D0ED000A00
:1036C000944890ED001A70EEC10A9448C0ED000ACB
:1036D0008D48D0ED010A8F4890ED011A70EEC10AB5
:1036E0008E48C0ED010A8B48D0ED000A8C4890ED61
:1036F000001A70EEC10AF1EE600A8A48C0ED000AB5
:103700008448D0ED010A864890ED011A70EEC10A96
:10371000F1EE600A8348C0ED010A7B48D0ED000A53
:103720007D4890ED001A30EEC11A7F48D0ED000AB6
:1037300041EE000AC0ED000A7348D0ED010A764858
:1037400090ED011A30EEC11A7748D0ED010A41EE32
:10375000000AC0ED010AD0ED000A9FED741AF4EEE4
:10376000C10AF1EE10FA02D8DFED700A0FE06E48E0
:10377000D0ED000A9FED6E1AF4EEC10AF1EE10FAD8
:1037800002DDDFED6B0A02E06748D0ED000A664813
:10379000C0ED000AD0ED010A9FED641AF4EEC10AF3
:1037A000F1EE10FA02D8DFED610A0FE05E48D0EDCD
:1037B000010A9FED5F1AF4EEC10AF1EE10FA02DD84
:1037C000DFED5B0A02E05848D0ED010A5648C0ED33
:1037D000010A5048D0ED000A5148C0ED000A4D489A
:1037E000D0ED010A4E48C0ED010A4C48D0ED000A68
:1037F0009FED501A60EE810A4A4890ED001ADFED05
:10380000431A41EE210A484890ED001ADFED4A1AAA
:1038100041EE210A4948C0ED000A4048D0ED010AB6
:103820009FED441A60EE810A3E4890ED011ADFEDEB
:10383000371A41EE210A3C4890ED011ADFED3E1A9D
:1038400041EE210A3D48C0ED010AD0ED000ABBEE71
:10385000041AF4EEC10AF1EE10FA02D8FBEE040AE3
:103860000FE03648D0ED000AB3EE041AF4EEC10AB8
:10387000F1EE10FA02DDF3EE040A02E02F48D0ED7B
:10388000000A2E48C0ED000AD0ED010ABBEE041A72
:10389000F4EEC10AF1EE10FA02D8FBEE040A0FE0D2
:1038A0002648D0ED010AB3EE041AF4EEC10AF1EE97
:1038B00010FA02DDF3EE040A02E02048D0ED010A1E
:1038C0001E48C0ED010AD0ED000A1D48C0ED000AF7
:1038D0001A48D0ED010AF1EE600A1948C0ED010A5C
:1038E0001848007840B9DFED090A0F48C0ED000A1A
:1038F000DFED060AC0ED010A704700007C0F0020D2
:10390000EC0E00209A99993E3C0100200000000036
:103910002C090020440100205C01002064010020EB
:103920004C010020540100206C0100200000C8C29E
:103930000000C8429A99193E8FC2F53D74010020DB
:103940007C010020D40000207047000010B52448FE
:103950000088401C224908800846007980B101286F
:1039600011D0022813D0032814D1084600886421FE
:1039700090FBF1F201FB120008B9FEF7BFFF0AE06D
:10398000FEF7BCFF07E06420FEF7AEFF03E0FEF7A2
:10399000A1FF00E000BF00BF1148C07830B101288E
:1039A00013D0022814D0032815D103E06420FEF7B9
:1039B00085FF11E00A480088642190FBF1F201FBC9
:1039C000120008B9FEF784FF06E0FEF76DFF03E082
:1039D000FEF77EFF00E000BF00BFFFF7FDF910BD5E
:1039E0004000002070B50024A5E0C4EB0410C0EB3B
:1039F000C410534901EB80000079002859D0C4EB72
:103A00000410C0EBC41001EB8000007B401CC4EB31
:103A10000411C1EBC4114A4A02EB81010873C4EBE3
:103A20000410C0EBC410114601EB8000007B052898
:103A30003FDDC4EB0410C0EBC41001EB8000407B01
:103A4000322807DD3220C4EB0411C1EBC41102EBB4
:103A500081014873C4EB0413C3EBC413384D05EB69
:103A60008303597BC4EB0413C3EBC41305EB83033B
:103A700003F10E00C4EB0413C3EBC41305EB830383
:103A80009A6890470020C4EB0411C1EBC4112A4688
:103A900002EB81010873C4EB0411C1EBC41102EB0A
:103AA00081010871C4EB0411C1EBC41102EB810167
:103AB0004873C4EB0410C0EBC410214901EB800033
:103AC00090F84000B0B3C4EB0413C3EBC4130D462D
:103AD00005EB830303F5C772C4EB0413C3EBC413F4
:103AE00005EB830303F28F11C4EB0413C3EBC41380
:103AF00005EB830303F1410003F0CCF9D0B10020C2
:103B0000C4EB0411C1EBC4112A4602EB810181F818
:103B10004000C4EB0412C2EBC4122B4603EB82023A
:103B200092F88F11C4EB0412C2EBC41253F82200B6
:103B300000F089FE641C042CFFF657AF70BD000036
:103B40001C02002010B50446FC4841788078814270
:103B50000DD0FEF79BFBFA484079012803DB0120DA
:103B6000F649087003E00020F44908704870F348F3
:103B70004078072875D007DC072873D2DFE800F00B
:103B80007211304D8AC3FD000A286CD004DC08286D
:103B90006AD0092866D19BE10B287AD0A028F9D1F8
:103BA0002CE0E6480078D0B1E648007840B9E64815
:103BB0000078A0B90120E4490870FFF78FFC0EE0FF
:103BC000E0480078022803D10020DC49487006E074
:103BD000DC480078022802DD0020D8494870F3E173
:103BE000D8480078022802D1FFF7D0FB05E0D5487D
:103BF000007810B90020D1494870E5E1D348007839
:103C000000F0010040B1D148007820F00100CF4918
:103C100008700020C9494870D6E1CD48008800EE00
:103C2000100AB8EE400AC54880ED0D0AC848008861
:103C3000D8B1C84800884FF47A714843C44909880C
:103C4000002901DC002107E0C1490988C82901DDFC
:103C5000C82101E0BE49098890FBF1F1B748C16174
:103C600006E0C4E0AFE177E1F9E00021B348C161CB
:103C7000B248C06838B1B148C169C068814202D257
:103C80000020AE494870AD48C0680119AB48C1601A
:103C90009AE197E1AE480088404200EE100AB8EE83
:103CA000C00AA64880ED0D0AA9480088B8B1A94805
:103CB00000884FF47A714843A5490988002901DC3E
:103CC000002107E0A2490988962901DD962101E03B
:103CD0009F49098890FBF1F19848C16102E00021F9
:103CE0009648C1619548C06838B19448C169C068B8
:103CF000814202D20020914948709048C068011961
:103D00008E48C16060E19248008800EE100AB8EE6B
:103D1000400A8A4880ED0B0A8D480088B8B18D486A
:103D200000884FF47A71484389490988002901DCE9
:103D3000002107E086490988C82901DDC82101E082
:103D40008349098890FBF1F07C49486102E000203A
:103D50007A4948617948406840B178484069774974
:103D60004968884202D2002074494870734840680C
:103D700020447249486027E1FFE7754800884042C7
:103D800000EE100AB8EEC00A6C4880ED0B0A7048CD
:103D90000088B8B16F4800884FF47A7148436C4985
:103DA0000988002901DC002107E069490988C82940
:103DB00001DDC82101E06649098890FBF1F05F4907
:103DC000486102E000205D4948615C48406840B1BC
:103DD0005A48406959494968884202D200205749E7
:103DE000487056484068204454494860ECE05848C0
:103DF000008800EE100AB8EE400A504880ED0C0A28
:103E000053480088B8B1534800884FF47A7148434A
:103E10004F490988002901DC002107E04C49098845
:103E2000C82901DDC82101E04949098890FBF1F169
:103E30004248816102E00021404881613F4880683A
:103E400038B13E4881698068814202D200203B49F6
:103E500048703A488068011938488160B4E03C48AD
:103E60000088404200EE100AB8EEC00A334880EDE8
:103E70000C0A37480088B8B1364800884FF47A7188
:103E8000484333490988002901DC002107E0304913
:103E90000988C82901DDC82101E02D49098890FB66
:103EA000F1F12648816102E0002124488161234824
:103EB000806838B1214881698068814202D200203F
:103EC0001E4948701D48806801191C4881607BE0CC
:103ED0001F48008800B21949A1F850001C4800880A
:103EE000B8B11C4800884FF47A71484318490988D2
:103EF000002901DC002107E015490988642901DD5A
:103F0000642101E01249098890FBF1F10B4801623C
:103F100002E00021094801620848006938B10748F9
:103F2000016A0069814202D20020044948700348B6
:103F3000006901190148016146E000007C0F002082
:103F40000C100020840100208A0100209400002031
:103F5000880100208601002026480088404200B2E7
:103F60002549A1F8500023480088B8B123480088AB
:103F70004FF47A7148431F490988002901DC002168
:103F800007E01C490988642901DD642101E0194921
:103F9000098890FBF1F11848016202E000211648FF
:103FA00001621548006938B11348016A006981420D
:103FB00002D20020104948700F48006901190E48CC
:103FC000016101E000E000BF00BF0B48407808B984
:103FD000FEF75CF908484178817090ED0D0A80ED9C
:103FE000130A90ED0B0A80ED110A90ED0C0A80ED9A
:103FF000120A10BD880100207C0F002086010020DD
:10400000F0EE400AB7EE082AF0EE421AB6EE002AA9
:1040100020EE822AB0EE421AB0EE600A10EE100ACC
:104020000749A1EB600000EE100A61EE002AB7EE2E
:10403000082A02EEC02A22EE002AB0EE420A704799
:10404000DF59375F10B52DED028B9FED500AB0EEB2
:10405000408A4F48007980B14E48407901280CDBF6
:104060004D4890ED000A4D4880ED380A4A4890EDE1
:10407000010A4A4880ED490A1EE04948408840F25A
:10408000DC51081A00EE100AB8EEC00ADFED3F0A54
:1040900020EE200A414880ED380A41480088A0F20D
:1040A000DC5000EE100AB8EEC00ADFED380A20EE50
:1040B000200A3A4880ED490A3A48007800F00100A9
:1040C000B8B33748808840F21451884245DD3448FF
:1040D000C08840F2A461884209DD334890ED000AAF
:1040E000DFED320A30EE600A80ED000A0EE02C4867
:1040F000C08840F21451884208DA2B4890ED000A3B
:10410000DFED2A0A30EE200A80ED000A234890ED08
:104110005A0ADFED270AB4EEE00AF1EE10FA09DBE5
:10412000214890ED000ADFED230A30EE600A80EDB1
:10413000000A12E0194890ED5A0ADFED1F0AB4EEAA
:10414000E00AF1EE10FA08D2174890ED000ADFED10
:10415000190A30EE200A80ED000A11480089B0F5F6
:10416000966F03DA00200B49487109E00C4800897A
:10417000B0F5AF6F03DA01200649487100E000BFD7
:1041800000F01CF8BDEC028B10BD00000AD7233DE7
:104190002C0900200C1000207C010020B00A002017
:1041A000EC0E00209400002098000020CDCCCC3DE7
:1041B000000034430000B443000034C310B53B4852
:1041C0000078012802D0022851D12CE0384880889C
:1041D00040F24C4188420BDA3548C08840F26C719D
:1041E000884205DD33480078401C3249087002E0FF
:1041F0000020304908702F480078642812DD002024
:104200002C4908700220294908702B48007820F0BA
:104210000100401C2849087000F06EF8FEF732FDDE
:1042200001F010F823E02248808840F24C41884297
:1042300009DA1F48C088884205DA1E480078401C09
:104240001C49087002E000201A49087019480078DB
:1042500064280BDD002017490870012013490870FD
:104260001548007820F001001349087000BF00BF16
:104270000F48408940F24C41884215DB0C48408988
:1042800040F2DC5188420FDD00200A49087001200D
:104290000649087000F030F8FEF7F4FC0648007894
:1042A00020F001000449087010BD000088000020C3
:1042B000EC0E00208900002094000020002005E082
:1042C00040F2DC51064A22F81010401C0828F7DBA7
:1042D0004FF47A70024948810320024948717047BF
:1042E000EC0E00200C100020024890ED0C0A80ED2E
:1042F0000B0A7047580A0020002021E09FED140AA5
:1043000000EB0011134A02EB810181ED0C0A9FEDD5
:10431000100A00EB001102EB810181ED0B0A9FED09
:104320000C0A00EB001102EB810181ED030A9FED05
:10433000080A00EB001102EB810181ED0A0A401C22
:104340000F28DBDB9FED040A024880ED7C0A7047F2
:1043500000000000B00A00200000A04238B5002490
:104360000020009001236A460D21EC20FEF7F2FAAE
:104370009DF80000102800D10124204638BD00001F
:1043800010B500201A4948720872AFF20B0008609D
:104390001848486018A116480A3001F03BF8FFF7AA
:1043A000DDFF134908720846007AB0B10120487257
:1043B00010200877084602F07BFA402280210C4842
:1043C00002F0ECFB082320228021094802F0A5FC22
:1043D00007220321064802F096FC00F059FD084828
:1043E00090ED0C0A80ED0B0A0148407A10BD0000E8
:1043F000000A00200544000053504C3036000000F5
:10440000580A00207047704730B5174800681749B0
:10441000B0FBF1F016490860134800684FF47A7257
:10442000B0FBF2F1481EB0F1807F00D31BE0481EC4
:104430004FF0E022506150170722002804DB530799
:104440001C0E0C4B1C5406E053071D0E0A4B00F0CB
:104450000F04241F1D5500BF00204FF0E022906183
:104460000720106100BF30BDF401002040420F0062
:104470002800002000E400E018ED00E010B510482E
:104480000068401C0E49086001200E4908700E4863
:10449000007898B10A4800680321B0FBF1F201FBF3
:1044A000120058B9FEF740F89FED080A084909487C
:1044B000FCF7E0FE9FED050A00F0DAFD10BD0000FC
:1044C0002C000020D8000020D9000020A69B443BEF
:1044D000A40A0020A8090020F0B5824E3668C6F371
:1044E00002450126AE40F0B27E4E366806F0070463
:1044F000062C39D2DFE804F003394051B7BD7A4EBB
:1045000036785EB346F65A16764F083F3E60754ED3
:104510004836366846F00106724F48373E6001263D
:10452000704F083F3E60704E367886B16F4E3678D9
:1045300036B14FF4FA3696FBF0F66D4F3E6013E05D
:104540004FF4FA4696FBF0F6694F3E600CE04FF4EC
:10455000004696FBF0F6664F3E6005E04FF40046DD
:1045600096FBF0F6624F3E60B9E042F2107696FBA1
:10457000F0F65F4F3E60B2E05C4E367836B14FF4F5
:10458000FA3696FBF0F65A4F3E6005E04FF4FA46D5
:1045900096FBF0F6564F3E60A1E0524E361F36684D
:1045A000C6F309024F4E361F366806F4E026B6F50C
:1045B000403F15D007DC6EB1B6F5803F0CD0B6F5A4
:1045C000003F13D10AE0B6F5802F0BD0B6F5A02F2F
:1045D0000CD109E0474909E0474907E0474905E0B0
:1045E000474903E0474901E0474900BF00BF12B90E
:1045F0003F4E316036E002F4805616B142F4704608
:1046000032B2424E367826B1414E96ED210AF36E13
:1046100003E03F4E96ED190AF36C00EE902AF8EE97
:10462000E00A20EE201AC3F5407600EE906AF8EE1C
:10463000E01AF7EE000A40EE210AF2EE001A60EEF0
:10464000A11AC1EE210AB7EE001A31EE601A00EE8F
:10465000901AF8EE600AC0EE811AFCEEE10A244ED0
:10466000C6ED000A3BE0274E96FBF0F6204F3E6079
:1046700035E01D4E361D36785EB346F65A16194F94
:10468000083F3E60174E4836366846F00206154F22
:1046900048373E600126134F083F3E60124E361DDC
:1046A000367886B1114E367836B14FF4FA3696FB2D
:1046B000F0F60F4F3E6011E04FF4FA4696FBF0F62D
:1046C0000B4F3E600AE0104E96FBF0F6084F3E603E
:1046D00004E00D4E96FBF0F6054F3E6000BF00BFB4
:1046E000F0BD000008040140008920423C862042C1
:1046F000F401002060E31600C0C62D00808D5B0031
:10470000001BB70000366E01006CDC02D88020422E
:10471000001020002E48006840F470002C4908600A
:104720004FF4B5402B49088080202B49486100BFD9
:104730002A48406800F480700028F9D128482749A9
:10474000086000BF2548406800F480700028F9D157
:1047500000BF2248406800F480700028F9D120484A
:10476000001D1E49086000BF1C48406800F48070AE
:104770000028F9D11B48006920F4704040F4005033
:10478000184908610846406920F4704040F4005020
:10479000486146F65A10144908604FF4A020091DDC
:1047A0000860081D006820F00710C01C091D086083
:1047B00000200D4908600B48006940F030000949AD
:1047C00008610846406940F03000486170470000C9
:1047D00088ED00E00C480040003004E0000001409B
:1047E00001005A69001001400004014030B5012465
:1047F000C4EB5104E3B200F1120424F8132030BDDD
:1048000070B504460D4629462046FCF79DFA70BD5A
:1048100070B504460D4629462046FCF795FA70BD52
:1048200070B504460D462A4621460348FBF7C7FCEF
:10483000FCF78EFF70BD0000FC0100207047828BEA
:104840008A438283704700F11A024FF0844303EBDE
:10485000421212794AB900BF00F11C024FF08443A2
:1048600003EB42121279002AF6D0C1817047000092
:1048700000B5A5B0242270491CA8FBF7A0FC242297
:104880006D49243113A8FBF79AFC24226A49483168
:104890000AA8FBF794FC242267496C3101A8FBF7B6
:1048A0008EFC6648006801220C21C36903209847EA
:1048B00062483C3000681CA90268614890475F4824
:1048C0003C30006881685E4888475C483C3000683E
:1048D0000121026B5A48904758483C300068022139
:1048E000026B574890475548006801220C21C36964
:1048F0001046984751483C30006813A90268514857
:1049000090474E483C30006881684E4888474B4885
:104910003C3000680121026B4A48904747483C30D0
:1049200000680221026B4748904744480068012212
:10493000C021C3690920984740483C30006801A95C
:104940000268414890473D483C30006881683E48D5
:1049500088473A483C3000680121026B3A4890474A
:1049600036483C3000680221026B37489047334894
:10497000006801220C21C369022098472F483C306F
:1049800000680AA90268314890472C483C3000680A
:1049900081682E48884729483C3000680121026B15
:1049A0002A48904725483C3000680221026B27487E
:1049B00090472248083000688169202088471F48B6
:1049C000083000688169212088471C480830006849
:1049D00081692220884719480830006881692320AE
:1049E00088471B481B4988601B491A48C0F8CC11EE
:1049F0001A49C0F890131A49C0F8541516481949B5
:104A000008600120134981F840000121114880F815
:104A1000041280F8C81380F88C150A480D49086004
:104A20000A48C1F8C4010648C1F888030648C1F81D
:104A30004C0525B000BD0000747000002408000281
:104A40000018004000100040001C0040001400400E
:104A5000014800001C02002011480000214800000D
:104A60003D480000240000202DE9F04105460E4697
:104A70001746002417E0C4EB0410C0EBC4100C4927
:104A800001EB8000A8420DD1C4EB0411C1EBC411AD
:104A9000074A02EB810101F141003A46314602F03A
:104AA0002AFA02E0641C042CE5DB00BFBDE8F081BB
:104AB0001C02002010B52DED028BB0EE408A31486B
:104AC000007A0F2840D007DC78B102280ED00328E6
:104AD00012D00E2851D123E010282BD0112815D048
:104AE00018283BD0192848D13EE047E00122002198
:104AF000084600F087F841E09FED230A234880ED47
:104B0000120A9FED210A80ED110A37E0BAEE0E0A73
:104B10001E4880ED110A9FED1C0A80ED120A2DE05F
:104B2000B2EE0E0A194880ED110A9FED170A80EDCA
:104B3000120A23E09FED140A144880ED110ABBEE1F
:104B4000040A80ED120A19E09FED0F0A0F4880ED6C
:104B5000110AB3EE040A80ED120A0FE002220021CE
:104B6000084600F04FF809E00948406A007820F054
:104B700001000749496A087000E000BF00BFBDECB2
:104B8000028B10BDD40F0020000000007C0F00201D
:104B90000C1000201448007800F00200134908703F
:104BA0001148007800F01000114908700F48007893
:104BB00010B901200F4908700D48007810B9012084
:104BC0000D4908700C48007818B90A48007800B9F7
:104BD00070470A48007828B1002008490870012071
:104BE0000749087200BFF3E7004C0040B8010020FD
:104BF000B90100209801002099010020BA0100208D
:104C0000D40F0020034B1880034B1980034B5A70BC
:104C10007047000086010020880100207C0F0020E2
:104C200010B52DED028BB0EE408AFFF7B3FF00F018
:104C3000B7F9B0EE480AFFF73DFFBDEC028B10BD9F
:104C40002DE9F04104460D4617461E46002C01DCB6
:104C5000002006E0B4F57A7F02DB40F2E73000E0A6
:104C600020460446002D01DC002006E0B5F57A7FE1
:104C700002DB40F2E73000E028460546002F01DC69
:104C8000002006E0B7F57A7F02DB40F2E73000E073
:104C900038460746002E01DC002006E0B6F57A7F94
:104CA00002DB40F2E73000E03046064604F57A7059
:104CB00004B205F57A7005B207F57A7007B206F509
:104CC0007A7006B22A4604210807FFF78FFD3246A4
:104CD00004210748FFF78AFD22460821C806FFF78E
:104CE00085FD3A460A214807FFF780FDBDE8F081BF
:104CF0000008004090ED051AD0ED061A31EE611A59
:104D0000D0ED0A1A31EE211A80ED041A90ED041A42
:104D1000D0ED071AB4EEE11AF1EE10FA0ED290EDD2
:104D2000041AD0ED071AF1EE611AB4EEE11AF1EEB1
:104D300010FA03DD9FED551A80ED041A90ED081A64
:104D4000B5EEC01AF1EE10FA22D090ED091AB5EEC8
:104D5000C01AF1EE10FA1BD090ED041AD0ED091A2A
:104D6000B4EEE11AF1EE10FA02D890ED091A0DE056
:104D700090ED041AD0ED081AB4EEE11AF1EE10FA33
:104D800002DD90ED081A01E090ED041A80ED041A9E
:104D900090ED0C1AD0ED041A01EE801A80ED0C1A79
:104DA00090ED0D1AB5EEC01AF1EE10FA22D090ED8A
:104DB0000E1AB5EEC01AF1EE10FA1BD090ED0C1AD7
:104DC000D0ED0E1AB4EEE11AF1EE10FA02D890ED21
:104DD0000E1A0DE090ED0C1AD0ED0D1AB4EEE11A9A
:104DE000F1EE10FA02DD90ED0D1A01E090ED0C1AD3
:104DF00080ED0C1A90ED061AD0ED0B1A31EE611A07
:104E0000B1EE411AC1EE000A90ED001AD0ED041A7D
:104E100021EE211AD0ED011A90ED0C2A01EE821A32
:104E2000D0ED021A01EEA01A80ED031A90ED0F1AD0
:104E3000B5EEC01AF1EE10FA22D090ED101AB5EED0
:104E4000C01AF1EE10FA1BD090ED031AD0ED101A33
:104E5000B4EEE11AF1EE10FA02D890ED101A0DE05E
:104E600090ED031AD0ED0F1AB4EEE11AF1EE10FA3C
:104E700002DD90ED0F1A01E090ED031A80ED031AA8
:104E800090ED061A80ED0B1A70470000000000003C
:104E900010B52DED108B86B09FED320BB0EE40FAC1
:104EA000F0EE60FA9FED310B8DED040B9FED310BB1
:104EB0008DED020B9FED310B8DED000B9FED310B56
:104EC000B0EE408AF0EE608A304801F0E5FDDFED9B
:104ED000300A80EE201A11EE104A2046FBF752FBF2
:104EE00041EC190B53EC182B51EC190BFBF7A4FAFE
:104EF00041EC1E0B9FED271BB0EE4E0AF0EE6E0A42
:104F000000F09EFDB0EE40DAF0EE60DA9FED150B9A
:104F100053EC102B51EC1D0BFBF71CFA41EC1C0B56
:104F20009FED100B53EC102BFBF70EFA41EC1B0B13
:104F30009FED0E0B53EC102BFBF77EFA41EC1A0B96
:104F4000FBF74CFB15490863084690ED0C0AD0EDC1
:104F50000B0A30EE600A80ED0D0A06B0BDEC108B36
:104F600010BD0000666666666602724039B4C87697
:104F7000BE9F7ABF05A3923A019D2340CDCCCCCCF5
:104F8000CCF07140CDCCCCCCCC545940000A0020A0
:104F900000007A44739B82A07A5AC83F580A0020C6
:104FA00000B53148007A0F2844D00BDC022821D00C
:104FB00003DC80B1012853D10EE0032821D00E2854
:104FC0004ED125E0102829D011282DD0182837D00F
:104FD000192845D140E044E023484089401E00B2F2
:104FE000214948810846B0F90A00002801DC022066
:104FF000087236E003224FF4FA710A20FCF78AFBAC
:105000002FE00E224FF496710A20FCF783FB28E074
:105010001022C8210A20FCF77DFB22E01122C821C2
:105020000A20FCF777FB1CE00F22C8210A20FCF7BE
:1050300071FB16E01822C8210A20FCF76BFB10E078
:105040000A4801680068401E084A1060002902DA18
:1050500019200549087204E000200349087200E0A5
:1050600000BF00BF00BD0000D40F0020A40100203D
:105070000A4890ED011A0A48D0ED000A41EE000AF4
:10508000C0ED000A0748D0ED000A054890ED001A6F
:1050900041EE000A0348C0ED000A7047280F0020C7
:1050A000140100201801002000B5F0EE400A564817
:1050B00090ED000A9FED551AB4EEC10AF1EE10FA18
:1050C00002DD9FED520A0FE04F4890ED000A9FED80
:1050D000501AB4EEC10AF1EE10FA02D29FED4C0A5A
:1050E00002E0494890ED000A474880ED000A49482F
:1050F00090ED000A444890ED001A01EE200A454860
:1051000080ED000A444890ED000A424890ED001AF4
:105110004248D0ED001A31EE611A20EE010A4048F3
:1051200080ED000A3C4890ED010A374890ED001AE6
:105130003C48D0ED001A31EE611A20EE010A3A48DF
:1051400080ED000A344890ED020A374890ED001ACD
:1051500020EE011A354890ED000A01EE200A80ED9C
:10516000000A90ED000A9FED321AB4EEC10AF1EE8A
:1051700010FA02DD9FED2E0A0FE02C4890ED000A98
:105180009FED2C1AB4EEC10AF1EE10FA02D29FED97
:10519000290A02E0254890ED000A244880ED000A23
:1051A0001E4890ED000A1E4890ED001A01EE200AFC
:1051B0001A4880ED000A1D4890ED000A1A4890ED4B
:1051C000001A30EE011A174890ED000A01EE200A8D
:1051D00080ED000A90ED000A174880ED000A0F48A4
:1051E00090ED000A144880ED020A1448007820B1BE
:1051F0001348007800F0010020B900F023F80120E6
:105200000E49087000BD00000C0100200000FA43A8
:105210000000FAC3100100204C0F002018010020EC
:1052200020010020140100201C0100202401002086
:1052300000004842000048C2280F0020F000002073
:10524000940000209FED0A0A0A4880ED000A9FEDB5
:10525000080A094880ED000A9FED050A074880ED1D
:10526000000A9FED030A064880ED000A704700001F
:1052700000000000100100200C0100201801002097
:10528000140100205148D0ED0C0A9FED511A60EE38
:10529000810AFDEEE00A4F48C0ED000A4E48007852
:1052A00048B14D480078401E4B4908704948006895
:1052B0004A49086006E04748006848490968401ABA
:1052C000474908604749088AC8280CDA098A444ACD
:1052D00051604449098A444A1180DFED440A444937
:1052E000C1ED000A19E0404909883D4A5160404932
:1052F000D1ED000A70EE800AC1ED000AD1ED000A7E
:10530000B0EE081AF4EEC10AF1EE10FA05DD012143
:10531000384A11700021334A5170314800683649CB
:105320000968401A00EE900AF8EEE00A80EE801A52
:10533000FDEEC10A3148C0ED000A294840682E49F7
:105340004968401A00EE900AF8EEE00A80EE801AF2
:10535000FDEEC10A2948C0ED010A2148006826492E
:1053600008601F48406848601E484078C0B1214826
:105370000078A8B92148D0ED010AF8EEE00A2048EB
:10538000C0ED000ADFED1F0A1F48C0ED000AF6EE6F
:10539000000AC0ED010ADFED1D0AC0ED020A14E0AB
:1053A0001648D0ED000AF8EEE00A1548C0ED000AF4
:1053B000DFED170A1448C0ED000AF6EE000AC0ED52
:1053C000010ADFED120AC0ED020A7047580A0020F8
:1053D0000000C8420401002028010020080100202C
:1053E000FC0000202C0900203601002000000000F5
:1053F00038010020340100202C010020F40000209E
:105400000C010020CDCCCC3F4C0F0020CDCC4C3E2D
:10541000CDCC4C3F0FB4084610B5064A02A901F0A6
:1054200031FA044602A9002001F03DFA204610BCE2
:105430005DF814FBA768000003B4019841000098D0
:1054400050EAC12018BF04204A0D18BF40F00100E7
:1054500040F2FF72B2EB515F08BF40F0020001283A
:1054600008BF052002B070474100080218BF0420A1
:105470000A0E18BF40F001004FF07F4232EA0101EE
:1054800008BF40F00200012808BF05207047000057
:1054900070B5C1482DED020B2DED0E8B82B0119D24
:1054A00025F000449FEDBEDB9FEDBFEB84423EDB69
:1054B000A4F140511098A1F17F6108430FD0BC487E
:1054C000844202DC28D1109830B39DED100B02B05D
:1054D000BDEC0E8B02B0BDE8704001F06DB99DEDE2
:1054E000100B53EC1D2B51EC100BFAF733FF9DED15
:1054F000100B41EC180B53EC1E2B51EC100BFAF770
:1055000029FF53EC182BFAF77EFE41EC100B02B08A
:10551000BDEC0E8B02B070BD012001F0ADF902B000
:10552000BDEC0E8B02B0BDE8704001F059B9A14846
:105530009FEDA18B844256DA9DED100BB4F1795F9B
:105540000ADA51EC100BFFF777FF042808BF01F0CF
:1055500067F99DED100BDAE753EC102B51EC100BB3
:10556000FAF7F8FE41EC190B95480621B0EE490A0E
:10557000F0EE690A784401F08BF853EC192B51ECEA
:10558000100BFAF7E7FE41EC1A0B8E48B0EE490A11
:10559000F0EE690A0421784401F07AF853EC192BF3
:1055A00051EC100BFAF7D6FE53EC182BFAF72BFE42
:1055B00041EC100B51EC1A0B53EC102BFAF73CFF9B
:1055C000CDE900019DED000B53EC102B9DED100B70
:1055D00051EC100BFAF7BEFE9DED101B53EC112B96
:1055E000FAF711FED2E09DED100B51EC100B01F01B
:1055F000ACFC53EC182BFAF7AAFE9FED730BCDE928
:10560000000153EC102B9DED000B51EC100BFAF741
:10561000A1FE41EC190B6E480621B0EE490AF0EEEE
:10562000690A784401F034F853EC192B51EC100B53
:10563000FAF790FE41EC1B0B6648B0EE490AF0EE1B
:10564000690A0421784401F023F853EC192B51EC3A
:10565000100BFAF77FFE53EC182BFAF7D4FD41EC50
:105660001C0B51EC190B01F0CDFC41EC180B5A4806
:105670009FED5BABA04222DC53EC1C2B51EC1B0BCF
:10568000FAF7DAFECDE900019DED000B51EC180BA5
:1056900053EC102BFAF75EFE53EC182BFAF7B3FD20
:1056A00053EC1A2BFAF756FE53EC1D2BFAF74CFE6F
:1056B00053EC1E2BFAF74BFE41EC100B5FE08DED27
:1056C000008B002000909DED000B51EC180B53EC6B
:1056D000102BFAF798FD9DED000B41EC1E0B53ECDF
:1056E000102B51EC100BFAF735FE53EC192BFAF78F
:1056F0002EFE53EC1E2BFAF79FFE41EC190B53ECD8
:105700001C2B51EC1B0BFAF797FE41EC1B0B53ECD7
:105710001A2B51EC190BFAF71DFE53EC1D2BFAF75F
:1057200016FE41EC190B53EC1A2B51EC180BFAF73F
:1057300011FE53EC1B2BFAF70DFE53EC192BFAF765
:1057400003FE9DED000B41EC180B53EC1A2B51ECB2
:10575000100BFAF7FFFD9FED249B53EC192BFAF782
:10576000F6FD41EC100B51EC180B53EC102BFAF733
:10577000EBFD53EC192BFAF7EAFD41EC100B002D71
:105780003FF7C5AE51EC100B81F0004141EC100B1E
:10579000BDE60000000000000000F03F0000000037
:1057A000075C143326A6913C182D4454FB21F93F85
:1057B0000000F07F0000E03F000000000000F03F2C
:1057C000C01B0000CE1B0000000000000000E03FF6
:1057D000121B0000201B00003333EF3F00000000CD
:1057E0000000000000000040182D4454FB21E93F58
:1057F00010EE100A10B510EE901A4FF0684202EB4E
:1058000040032DED028BB3F1654F3CBF02EB41022B
:10581000B2F1654F7CD200BFC0F3C753C1F3C7528A
:105820009A1A1B2A09DD10F0004F14BF9FED6E0A73
:105830009FED6E0ABDEC028B10BD12F11A0F1BDA40
:1058400011F0004F09D010F0004F0CBF9FED680A17
:105850009FED680ABDEC028B10BD80EE208A18EE29
:10586000100AFFF701FE042808BF00F0EDFFB0EEBC
:10587000480ABDEC028B10BD4200B2EB410F37D994
:1058800010F0004F19BFDFED5C1A9FED5C1ADFEDE1
:105890005C1A9FED5C1AB0EE602A0A46F1EE400AEF
:1058A00080F00041B0EE420A10460A1A5200B2F1EE
:1058B000807F34D2484010F0004FDFED532A9FED37
:1058C000533A1DBFBEEE002A71EEE21A31EE431AC2
:1058D000B6EE002A04BF71EEA21A31EE031AF0EE02
:1058E000402A42EE602A40EE020A82EEA02A18E028
:1058F00011F0004F04BF9FED461AF0EE411AD4D0CC
:1059000010F0004F1CBFDFED431A9FED431A00E07B
:1059100026E004BFDFED411A9FED411AC5E780EE96
:10592000202A22EE020ADFED3F0ADFED3F2ABDEC1E
:10593000028B40EE202ADFED3D0A40EE220ADFED29
:105940003C2A40EE202ADFED3B0A40EE220A22EEFE
:10595000000A00EE201A31EE020A30EE210A10BDD4
:105960004FF07F42B2EB400F28BFB2EB410F05D2A0
:10597000BDEC028BBDE8104000F062BF40EA0103BD
:105980005B0008BF41F0FF410BD0B2EB400F08BFF6
:10599000B2EB410F08D120F0804000EE100A21F058
:1059A000804100EE901A37E7B2EB400F12BF5FEA7A
:1059B000410240F0FF4001F000413FF42DAF4A00AA
:1059C00092EA40033FF528AF002AACBF9FED1A1AB8
:1059D0009FED1A1A20EE010A60EE810A10EE100AFD
:1059E00010EE901A18E70000DB0FC9BFDB0FC93FAC
:1059F000DB0F4940DB0F49C00000C9BF22AAFDB937
:105A00000000C93F22AAFD390060ED3EC30ACE372F
:105A100000000000000049C022AA7DBA00004940F1
:105A200022AA7D3A2DAD65BD8FB8D53D0FB511BE0B
:105A300061C84C3EA8AAAABE0000804F0000802F7B
:105A40002DE9F04D2DED040B2DED0E8B96B0DDE91B
:105A50002550279CDDF890A025F0004624F0004852
:105A6000BAF1000F14BF0121002101EB4502FC49EE
:105A700053184A1093422AD3002814BF012300234D
:105A800003EB44030B44F7498B4220D358EA00014F
:105A90009FEDF59B76D0DFF8D8B35D4503D1BAF121
:105AA000000F05D188E0BAF1000F08BF002100D037
:105AB000012101EB450111F5001F08D8002814BF92
:105AC0000121002101EB440111F5001F0BD99DEDCF
:105AD000261B9DED240B16B0BDEC0E8B04B0BDE86B
