:020000040800F2
:10000000B004002001010008150D0008050D0008CE
:10001000090D0008D9060008D919000800000000E1
:100020000000000000000000000000004916000869
:10003000BD08000800000000AD10000835170008DA
:100040001B0100081B0100081B0100081B01000820
:100050001B0100081B0100081B0100081B01000810
:100060001B0100081B0100081B0100081B01000800
:100070001B0100081B0100081B0100081B010008F0
:100080001B0100081B0100081B0100081B010008E0
:100090001B0100081B0100081B0100081B010008D0
:1000A0001B0100081B0100081B0100081B010008C0
:1000B0001B0100081B0100081B0100081B010008B0
:1000C0001B0100081B0100081B0100081B010008A0
:1000D0001B0100081B0100081B0100081B01000890
:1000E0001B0100081B0100081B010008DFF80CD0F1
:1000F00000F008F900480047DD1C0008B0040020AB
:100100000648804706480047FEE7FEE7FEE7FEE7B1
:10011000FEE7FEE7FEE7FEE7FEE7FEE765170008FD
:10012000ED000008F0B480EA0102D40F4200B2EB07
:10013000410F02D20246084611464A0042D0C30D82
:10014000DDB2C1F3C752AD1A202D35DAC1F3160165
:1001500041F4000204B15242C5F1200602FA06F150
:100160002A411044B3EBD05F23D0C4B1012DA0EBE2
:10017000C35009DCF0BC4FF0004202EAC352DBB2CC
:1001800000F5000000F090B8400000F1807000EB36
:10019000C350A0F1807040EAD170490009E04908DD
:1001A00041EAC071A0EBC35000F50000400800EB2D
:1001B000C350F0BC00F06FB86142012202EB410174
:1001C000001BF6E7F0BC704781F00041AAE780F021
:1001D0000040A7E780EA010210B502F000434000AA
:1001E00022D04A001FD0010E01EB1261C0F356006D
:1001F000C2F3560240F4000042F40002A0FB0220C9
:1002000000047F39140400D0401C50EA124001D48D
:100210004000491EC2B20C0604EBD010401C40083E
:10022000802A02D003E0002010BD20F00100002948
:1002300000DA0020184310BD96230022114600F07A
:1002400033B820F00040C10DC0F3160040F40000A8
:100250007F2901DA00207047962903DCC1F196015D
:10026000C840704796398840704730B50B46014604
:1002700000202022012409E021FA02F59D4205D345
:1002800003FA02F5491B04FA02F52844151EA2F1EF
:100290000102F1DC30BD0029A8BF7047401C4900B5
:1002A00008BF20F00100704710B4B0FA80FC00FADB
:1002B0000CF050EA010404BF10BC704749B1CCF106
:1002C000200421FA04F411FA0CF118BF0121214392
:1002D0000843A3EB0C01CB1D4FEA00614FEA10204D
:1002E00042BF002010BC704700EBC35010440029EF
:1002F000A4BF10BC7047401C490008BF20F001009B
:1003000010BC7047064C074D06E0E06840F0010362
:1003100094E8070098471034AC42F6D3FFF7EAFEA2
:10032000A01D0008C01D000808B50121084600F006
:10033000CBFE01214FF4037000F0E6FE00208DF8A3
:1003400003000720ADF800006946074800F09AFB5B
:1003500000208DF803000320ADF800006946034833
:1003600000F090FB08BD000000080140000C0140B7
:1003700000B591B0484800F0DDF94848069048487B
:100380000790002008900720099000200A90802004
:100390000B9040000C9080000D9020200E900002E9
:1003A0000F900020109006A93B4800F069FA012147
:1003B000394800F0B3F90020019001208DF80800C1
:1003C0008DF809004FF4602003900020049007206E
:1003D0008DF8140001A931484C3800F08DF84FF425
:1003E000404000F065FE0523012211462B484C38A1
:1003F00000F0AAF805230222114628484C3800F0E4
:10040000A3F805230422072124484C3800F09CF867
:1004100005230322082121484C3800F095F80523D4
:100420001A4600211D484C3800F08EF8052306229C
:1004300009211A484C3800F087F8052307220621C5
:1004400016484C3800F080F8012114484C3800F070
:1004500034F8012111484C3800F024F80F484C388A
:1004600000F0CEF800BF0D484C3800F03BF80028F3
:10047000F9D10A484C3800F0D3F800BF07484C388F
:1004800000F026F80028F9D1012104484C3800F08A
:10049000BCF811B000BD0000080002404C2401402F
:1004A0009E00002021B1826842F00102826003E0D8
:1004B000826822F001028260704721B1826842F4B2
:1004C0008072826003E0826822F4807282607047EA
:1004D000014600208A6802F004020AB1012000E00F
:1004E00000207047014600208A6802F008020AB125
:1004F000012000E00020704730B5024600200023B4
:1005000050680F4C20400D790C6844EA05242043C4
:10051000506090680B4C2040D1E902542C434D7937
:1005200044EA450420439060D06A20F470000C7CBB
:10053000641EE4B2234340EA0350D06230BD0000A1
:10054000FFFEF0FFFDF7F1FFF0B504460D46002079
:100550000021092D11DDE068A5F10A0606EB46072A
:10056000072606FA07F18843A5F10A0606EB4606B8
:1005700003FA06F10843E0600CE0206905EB45074B
:10058000072606FA07F1884305EB450603FA06F14C
:1005900008432061072A0FDA606B561E06EB8607B8
:1005A0001F2606FA07F18843561E06EB860605FA53
:1005B00006F10843606322E00D2A0FDA206BD61F94
:1005C00006EB86071F2606FA07F18843D61F06EBBF
:1005D000860605FA06F10843206310E0E06AA2F1FE
:1005E0000D0606EB86071F2606FA07F18843A2F1DF
:1005F0000D0606EB860605FA06F10843E062F0BD3B
:10060000816841F008018160704721B1826842F43D
:10061000A002826003E0826822F4A0028260704738
:10062000816841F0040181607047000010B54020EE
:100630001049086000F088FC01F0F8F8642001F02F
:1006400097FA0DA001F0CAF9FFF76EFEFFF790FED2
:1006500000F0EEFE00F01CF80C4800BF011EA0F1F7
:100660000100FBDC1021034A11601020111F0860FB
:1006700010BD0000140C01400D0A73746D33326616
:10068000313033433874360D0A000000801A0600FA
:1006900008B50121084600F037FD0121082000F0CF
:1006A00033FD01210A4800F079FA10208DF803008B
:1006B00003208DF802005020ADF80000694605487F
:1006C00000F0E0F9102003491031086008BD000077
:1006D00000023000000C014000BFFEE710B50246EA
:1006E0000B46D41A204600F011FB962801D80020B2
:1006F00010BD0120FCE7000000B585B0684600F0A1
:1007000021FD04490098B0FBF1F00349086005B0F1
:1007100000BD000040420F005000002021B10268DF
:1007200042F00102026004E002684FF6FE731A40D4
:100730000260704701684FF6FE72114001600021AF
:10074000016041608160C1604B49884208D14A49DB
:100750000839496841F00F01474A083A51608AE078
:1007600045491431884208D143490839496841F064
:10077000F001414A083A51607DE03F492831884202
:1007800008D13D490839496841F470613A4A083A4C
:10079000516070E038493C31884208D13649083907
:1007A000496841F47041344A083A516063E0324983
:1007B0005031884208D130490839496841F47021E4
:1007C0002D4A083A516056E02B496431884208D1DD
:1007D00029490839496841F47001274A083A5160AB
:1007E00049E025497831884208D1234908394968C8
:1007F00041F07061204A083A51603CE01F4988424C
:1008000006D1011F096841F00F01021F116032E09B
:100810001A491431884208D11849091F096841F062
:10082000F001164A121F116025E014492831884250
:1008300008D11249091F096841F470610F4A121F5B
:10084000116018E00D493C31884208D10B49091F5D
:10085000096841F47041094A121F11600BE0074911
:100860005031884207D10549091F096841F47021B8
:10087000024A121F1160704708000240080402403B
:1008800010B50022026847F6F0739A430C6A8B6831
:1008900023430C6923434C6923438C692343CC696C
:1008A00023434C6A23438C6A23431A430260CB6878
:1008B00043600B6883604B68C36010BD70470000E5
:1008C0000149C860704700000020024030B504466E
:1008D00004254FF4302000F06FF80546042D17D1A1
:1008E0000C48006940F002000A490861084644616A
:1008F000006940F0400008614FF4302000F05CF8DF
:1009000005460448006941F6FD7108400149086147
:10091000284630BD0020024004200B49C96801F080
:10092000010109B101200EE00749C96801F0040185
:1009300009B1022007E00449C96801F0100109B1BA
:10094000032000E0042070470020024003480069B3
:1009500040F080000149086170470000002002401B
:1009600070B504460D460426F00200F025F8064650
:10097000042E11D10948006940F0010007490861BF
:100980002580F00200F018F806460448006941F698
:10099000FE71084001490861304670BD00200240E8
:1009A000024803494860034848607047230167458F
:1009B00000200240AB89EFCD00B502460423FFF7CB
:1009C000ABFF034603E0FFF7A7FF0346521E012BD0
:1009D00001D1002AF7D102B90523184600BD000055
:1009E00070B504460D46FFF7DBFF3420FFF768FFC4
:1009F00001201F49086000201E49086010E01D49C1
:100A000009681D4A531403FB0120FFF75FFF042808
:100A100001D000BFFEE717480068401C1549086078
:100A20001448006812490968884203D213480078C4
:100A30000428E4D010481249086010E0208881B2F0
:100A40000F480068FFF78CFF042806D1A41C0C484F
:100A50000068801C0A49086001E000BFFEE7281E0C
:100A6000A5F10101CDB2E9D1FFF770FF70BD000023
:100A7000600000205400002000FC000864000020FA
:100A8000580000202DE9F0410246002500260020F4
:100A900000230024002791F803C00CF00F0591F803
:100AA00003C00CF0100CBCF1000F03D091F802C091
:100AB0004CEA050591F800C0BCF1000F31D0146874
:100AC00000202BE04FF0010C0CFA00F3B1F800C04D
:100AD0000CEA03069E4220D183004FF00F0C0CFA63
:100AE00003F7BC4305FA03FC4CEA040491F803C085
:100AF000BCF1280F06D14FF0010C0CFA00FCC2F833
:100B000014C00AE091F803C0BCF1480F05D14FF0C2
:100B1000010C0CFA00FCC2F810C0401C0828D1D30C
:100B20001460B1F800C0BCF1FF0F34DD5468002040
:100B30002EE000F1080C4FF0010808FA0CF3B1F8B0
:100B400000C00CEA03069E4221D183004FF00F0C37
:100B50000CFA03F7BC4305FA03FC4CEA040491F8D1
:100B600003C0BCF1280F05D100F1080C08FA0CF8FD
:100B7000C2F8148091F803C0BCF1480F07D100F10E
:100B8000080C4FF0010808FA0CF8C2F81080401C5D
:100B90000828CED35460BDE8F0810000F0B50A46C5
:100BA000002300240021002500F00046B6F1004F8C
:100BB00002D11D4EF16901E01B4E7168C0F303457F
:100BC00083B200F44016B6F5401F08D121F07061E1
:100BD000154E766826F07066134F7E6012E000F4C2
:100BE0008016B6F5801F06D1032606FA05F4A14348
:100BF00041F0706106E0460D360103FA06F6B14396
:100C000041F0706122B1460D360103FA06F6314318
:100C100000F00046B6F1004F02D1034EF16101E051
:100C2000014E7160F0BD000000000140016170479D
:100C300010B500242149088940F61651FFF74EFDF2
:100C400010B944F001042FE01C4908890021FFF786
:100C500045FD10B944F0020426E01849088940F621
:100C60000C01FFF73BFD10B944F003041CE01349ED
:100C7000088940F6A821FFF731FD10B944F00404BB
:100C800012E00E49088940F6E631FFF727FD10B95A
:100C900044F0050408E00949088940F69E41FFF741
:100CA0001DFD08B944F0060404F00F00211101EB0A
:100CB000810100EB4100C4B2204610BD9E0000201F
:100CC00000BF0E4801684FF0E02082690B480068C1
:100CD0008142F6D10A48006800EB4003C3EBC01024
:100CE000C2EBC000064B1B68B0FBF3F001EB410305
:100CF000C3EBC11300EBC3007047000004000020E9
:100D00005000002000BFFEE700BFFEE7002800DA29
:100D100040427047704700001FB510A103C9CDE9DC
:100D20000201052202A9302000F0D4F8052269460C
:100D3000102000F06DF8002406E01DF80400A5283E
:100D400000D003E0601CC4B2052CF6DB00BF052C0C
:100D500002D0012004B010BD0020FBE7A5A5A5A589
:100D6000A500000008B50121084600F0CDF90121D9
:100D70002448FFF713FF0121082000F0C5F94FF4C4
:100D80008060ADF8000010208DF8030003208DF87E
:100D9000020069461C48FFF775FE0121082000F09B
:100DA000B3F94FF48050ADF8000010208DF8030027
:100DB00003208DF8020069461348FFF763FE4FF4E5
:100DC0008060114910310860800008600820ADF88B
:100DD000000048208DF8030003208DF802006946CA
:100DE0000A48FFF74FFE08210848FFF71FFF00F0F1
:100DF00099FB4FF480600449143108608000091F9A
:100E0000086008BD00023000000C014000080140ED
:100E10002DE9F04107460D4616464FF480500C4927
:100E20000860384600F0F4FB8046002405E0FF200F
:100E300000F0EEFB2855601CC4B2B442F7DB4FF45F
:100E400080500349091F08604046BDE8F08100005A
:100E5000140C014070B504464FF4805007490860F7
:100E6000204600F0D5FBFF2000F0D2FB05464FF4F2
:100E700080500249091F0860284670BD140C0140CB
:100E800070B505464FF4806011490860202229465C
:100E9000A02000F01FF84FF480600D49091F086082
:100EA0000720FFF7D7FF04462146272000F034F83B
:100EB00004F0100028B1FF21E12000F02DF81020EF
:100EC00070BD04F0200008B12020F9E7FF20F7E70B
:100ED000140C01402DE9F04107460C4615464FF42D
:100EE00080500C490860384600F092FB804600268E
:100EF00005E014F8010B00F08BFB701CC6B2AE428B
:100F0000F7DB4FF480500349091F08604046BDE8F5
:100F1000F0810000140C014070B505460C464FF4FA
:100F2000805008490860284600F072FB06462046BB
:100F300000F06EFB4FF480500249091F08603046F4
:100F400070BD0000140C014010B5FFF70BFF00BF8F
:100F5000FFF7E2FE0028FBD14FF400710248FFF7D3
:100F600065FE00F02FFC10BD000C014010B5042000
:100F70001BE01949014411F8031C184A1154114689
:100F8000C97F125C1144154AD1771349014411F805
:100F9000042C124B411C5A541946C97F1A46125C44
:100FA00011441A46D177811CC8B21A28E1DB00200F
:100FB0000A49C87700BF08E00849C97F074A125CA0
:100FC0001144064AD177411CC8B21F28F4DB0348FC
:100FD000FFF756FF10BD0000080000202000002091
:100FE00008B54FF4E06000F057F825208DF80000B8
:100FF00000208DF801008DF8020001208DF803001B
:10100000684600F011F81D208DF8000002208DF8D0
:10101000010003208DF8020001208DF803006846CE
:1010200000F002F808BD000070B5002100230F2277
:10103000C47804B3154C246804F4E064C4F5E06497
:10104000210AC1F10403CA40447804FA03F1847808
:101050001440214309010E4C0678A155047804F090
:101060001F050124AC4005786D11AD0005F1E025A8
:10107000C5F8004109E0047804F01F050124AC40E4
:10108000044D0678761145F8264070BD0CED00E061
:1010900000E400E080E100E002490143024A1160FF
:1010A000704700000000FA050CED00E070470000FA
:1010B00001460020034A506820F440400843506035
:1010C000704700000010024029B1064A52690243ED
:1010D000044B5A6104E0034A52698243014B5A614E
:1010E000704700000010024029B1064AD26902434D
:1010F000044BDA6104E0034AD2698243014BDA61AE
:10110000704700000010024029B1064A926902436C
:10111000044B9A6104E0034A92698243014B9A614D
:10112000704700000010024010B5012145F21D205B
:10113000FFF7EAFF01210248FFF7D6FF10BD0000CC
:101140000200240030B500210022002400232D4D90
:101150006D6805F00C0121B1042905D0082923D1BF
:1011600005E0294D056022E0274D05601FE0254D73
:101170006D6805F47012234D6D6805F48034022506
:1011800005EB92421CB9214D554305600BE01D4D06
:101190006D6805F400351DB11C4D5543056002E036
:1011A000194D5543056002E0174D056000BF00BFB3
:1011B000144D6D6805F0F0010909154D6B5C05686B
:1011C000DD4045600F4D6D6805F4E061090A104D82
:1011D0006B5C4568DD4085600A4D6D6805F46051C3
:1011E000C90A0B4D6B5C4568DD40C560054D6D68F7
:1011F00005F44041890B074D6B5CC568B5FBF3F501
:10120000056130BD0010024000127A0000093D0067
:101210006600002076000020F8B57149C888FFF705
:101220000BF805464FF07A51FEF7D4FF0446FFF75E
:1012300008F8C0F5FA606B49C98808446A49888093
:101240006A480088FEF7F8FF07464FF07D51FEF729
:10125000C1FF054664498888FEF7EEFF07464FF058
:101260007A51FEF7B7FF06462946FEF75BFF0446B4
:10127000FEF7E7FF80B25C4988805C4908805849E6
:101280004888FEF7D9FF05464FF07A51FEF7A2FFD6
:101290000446FEF7D6FF00F57A7052498988084463
:1012A0005149488052480088FEF7C6FF07464FF074
:1012B0007D51FEF78FFF05464B494888FEF7BCFF7E
:1012C00007464FF07A51FEF785FF06462946FEF79E
:1012D00029FF0446FEF7B5FF80B2434948804449E0
:1012E00008803F498888FEF7A7FF05464FF07A51EE
:1012F000FEF770FF0446FEF7A4FFC0F5FA60394917
:10130000098908443849C8803A480088FEF794FFA4
:1013100007464FF07D51FEF75DFF05463249C8880C
:10132000FEF78AFF07464FF07A51FEF753FF064655
:101330002946FEF7F7FE0446FEF783FF80B22A49EE
:10134000C8802C49088026490888FEF775FF0546A5
:101350004FF07A51FEF73EFF0446FEF772FFC0F5EC
:10136000FA602049498808441F49088022480088BB
:10137000FEF762FF07464FF07D51FEF72BFF054653
:1013800019490888FEF758FF07464FF07A51FEF7D3
:1013900021FF06462946FEF7C5FE0446FEF751FF2B
:1013A00080B2114908801449088014480088401C04
:1013B0001249088008460088C8280CDB0A48808843
:1013C00000900948C388028841880DA000F006FB00
:1013D00000200A49088000F0EFFBFFF7C7FDF8BDC9
:1013E0009E00002094000020080000204200002001
:1013F0004600002048000020440000201E0000207D
:10140000C7B0BAF33A202564202020D7F3D3D23ACC
:10141000202564202020BABDCFF23A202564202068
:1014200020D3CDC3C53A202564200D0A000000005A
:1014300038B532480088324908800846B0F90000C3
:1014400045F6A521884244D04FF47A7000F090FB15
:1014500000202B49488088802A49C888FEF7ECFE86
:1014600005464FF07A51FEF7B5FE0446FEF7E9FE59
:10147000A0F57A7000B22249C88022498888FEF718
:10148000DBFE05464FF07A51FEF7A4FE0446FEF758
:10149000D8FEA0F5FA7000B21949088145F6A520DA
:1014A00008800846B0F9020000900846B0F90830FC
:1014B000B0F90420B0F90610134800F08FFA104874
:1014C000B0F90600642815DC05210D48FFF788FAFD
:1014D00010E00A48801C0088094948800748001D20
:1014E000008888800548801D0088C880034808302F
:1014F0000088088100F0EAFB38BD000000FC00080D
:10150000940000209E000020581D000821B1028890
:1015100042F04002028004E002884FF6BF731A4096
:101520000280704700B587B001218803FFF7DCFD1A
:1015300001210920FFF7E8FD4FF480511C48FFF717
:1015400075FB4FF46040ADF8040003208DF80600F1
:1015500018208DF8070001A91548FFF793FA00211C
:101560001448FFF7D3FF0020ADF808004FF4827055
:10157000ADF80A000020ADF80C00ADF80E00ADF893
:1015800010004FF40070ADF812001020ADF81400F8
:101590000020ADF816000720ADF8180002A9054894
:1015A00000F018F801210348FFF7B0FF07B000BDB5
:1015B000000C0140003800400246002013890B4017
:1015C0000BB1012000E00020704701468889704778
:1015D0008181704710B50022028802F441520B88C5
:1015E0004C8823438C882343CC8823430C89234392
:1015F0004C8923438C892343CC8923431A4302809B
:10160000838B4FF2FF74234083830B8A038210BDC8
:1016100010B5044600BF02210A48FFF7CDFF00289D
:10162000F9D021460748FFF7D3FF00BF0121054845
:10163000FFF7C2FF0028F9D00248FFF7C6FFC0B28B
:1016400010BD000000380040704710B500F002F8EF
:1016500010BD00000CB500200190009033480068D8
:1016600040F480303149086000BF3048006800F421
:10167000003000900198401C0190009818B9019822
:10168000B0F5A06FF1D12948006800F4003010B126
:101690000120009001E0002000900098012843D133
:1016A0002348006840F0100021490860084600689F
:1016B00020F0030008600846006840F0020008605F
:1016C0001A4840681949486008464068486008461A
:1016D000406840F4806048600846406820F47C1010
:1016E00048600846406840F4E810486008460068D2
:1016F00040F08070086000BF0C48006800F0007087
:101700000028F9D00948406820F0030007494860E4
:101710000846406840F00200486000BF0348406847
:1017200000F00C000828F9D10CBD000000100240A8
:101730000020024010B509480068401C07490860B5
:10174000074801780078401C054A1070012904DB25
:10175000002011460870FFF75FFD10BD0400002057
:101760000000002010B51348006840F00100114946
:10177000086008464068104908400E49486008461D
:1017800000680E4908400B4908600846006820F4CC
:10179000802008600846406820F4FE0048604FF44E
:1017A0001F008860FFF751FF4FF000600449086098
:1017B00010BD0000001002400000FFF8FFFFF6FE21
:1017C00008ED00E010B54FF480601549086005226F
:1017D00014493020FFF77EFB052213492A20FFF72A
:1017E00079FB01212120FFF797FB01212220FFF740
:1017F00093FB1A212420FFF78FFB2D212520FFF7D3
:101800008BFB0F212620FFF787FB0E212020FFF7FF
:1018100083FB4FF480600249091F086010BD00007F
:10182000140C01404C1D0008511D000800B587B084
:1018300001212148FFF758FC25208DF804000020E5
:101840008DF805008DF8060001208DF8070001A82D
:10185000FFF7EAFB4FF40070ADF8180018208DF880
:101860001B0003208DF81A0006A91448FFF70AF997
:101870004FF48060ADF8180004208DF81B0006A915
:101880000E48FFF7FFF84FF4E13002900020ADF86A
:101890000C00ADF80E00ADF81000ADF814000820F3
:1018A000ADF8120002A9064800F026F8012104480C
:1018B00000F008F807B000BD08000400000801406F
:1018C0000038014021B1828942F40052828104E053
:1018D00082894DF6FF731A408281704702460020CC
:1018E000B1F5007F00D100BF13880B400BB1012080
:1018F00000E00020704700002DE9F04786B0054663
:101900000E460024A24600BFA1460027B08900B1C0
:1019100000BF2F462C8A4CF6FF700440F088044329
:101920002C82AC894EF6F3100440B088318908430C
:10193000718908430443AC81AC8A4FF6FF400440F0
:10194000B0890443AC8201A8FFF7FCFB1F48874223
:1019500002D1DDF810A001E0DDF80CA0A88900F4A8
:10196000004040B10AEBCA0000EB0A1031684900A0
:10197000B0FBF1F807E00AEBCA0000EB0A1031688F
:101980008900B0FBF1F86420B8FBF0F004012009F5
:10199000642101FB1089A88900F4004040B1322085
:1019A00000EBC900B0FBF1F000F00700044308E0D1
:1019B000322000EB09106421B0FBF1F000F00F00C1
:1019C00004432C8106B0BDE8F087000000380140D8
:1019D000C1F308028280704700BFFEE70FB4054BD9
:1019E00010B503A9044A029800F018F810BC5DF87D
:1019F00014FB0000951B00089000002002E008C8BE
:101A0000121F08C1002AFAD170477047002001E078
:101A100001C1121F002AFBD1704700002DE9FF4FC2
:101A200089B09B460446002506E025280BD05A467F
:101A30000B999047641C6D1C20780028F5D10DB0DF
:101A40002846BDE8F08F0027B8460122474900E04C
:101A5000074314F8013F203B02FA03F00842F7D194
:101A600020782E2819D114F8010F47F004072A28EE
:101A70000ED06FF02F022078A0F1300109290CD888
:101A800008EB880102EB410100EB0108641CF2E75E
:101A90000A98641C50F8048B0A9020780028CED055
:101AA000642808D0692806D075281ED05A460B999C
:101AB00090476D1C58E00A994FF00A0901C90A9134
:101AC000002802DA40422D2102E0390504D52B21FD
:101AD0008DF82010012103E0F90704D02021F7E759
:101AE0008A4608AE0DE00021FAE70A994FF00A098C
:101AF00001C90A91F7E74946FEF7B7FB303106F80E
:101B0000011D0028F7D1ADEB060000F12009780790
:101B100001D44FF00108C84502DDA8EB090000E040
:101B200000208046002706E008A85A46C05D0B99B1
:101B300090476D1C7F1C5745F6DB04E030205A4669
:101B40000B9990476D1CB8F10001A8F10108F5DC74
:101B500005E016F8010B5A460B9990476D1CB9F138
:101B60000001A9F10109F4DC641C65E70928010002
:101B700030B50446FFF7A4F8054600BFFFF7A0F80C
:101B8000401B04EB4401C1EBC411B0EBC10FF5D312
:101B900030BD000070B504460D46E1B20548FFF7C0
:101BA00017FF00BF40210348FFF798FE0128F9D135
:101BB000204670BD0038014010B5FFF739F83B49A9
:101BC00008703B48007820B101281AD002286AD159
:101BD0001EE03848006838490968401A14280FD9AF
:101BE0003248007860B131480078344908700120EB
:101BF0002F4908701020324908604020091F0860F2
:101C000051E02A48007810B90220294908704AE0BA
:101C10002A480078072830D2DFE800F02F041A2184
:101C20000C13280000202749C88005212548FEF70D
:101C3000D7FE26E023484088401F00B22149488053
:101C40001FE020484088401D00B21E49488018E02F
:101C50001C488088401D00B21A49888011E019484C
:101C60008088401F00B2174988800AE01648808AA1
:101C700080F487601449888203E000200F490870CF
:101C800000BF00BF00200D490870094908701020EE
:101C90000B49091F08604020091D086005480068BD
:101CA0000549086000BF00BF10BD000041000020D2
:101CB0004A000020040000204C00002040000020CA
:101CC000140C014094000020080000204FF0007028
:101CD000014948607047000000000140FFF724FA06
:101CE000FEF70AFD164800684FF47A72B0FBF2F175
:101CF000B1F1807F00D31DE021F07F40401E4FF006
:101D0000E022506150170F22002807DA13071D0E3A
:101D10000C4B00F00F04241F1D5503E013071C0E8D
:101D2000094B1C5400BF00204FF0E02290610720B7
:101D3000106100BFFFF754F9FEF778FC00BFFEE723
:101D40007C00002018ED00E000E400E011223344A4
:101D500055112233445500006F6666736574207414
:101D600068723A2025642020206F666673657420AF
:101D700070697463683A2025642020206F6666735A
:101D80006574207961773A2025642020206F66668B
:101D900073657420726F6C6C3A202564200D0A0004
:101DA000C01D00080000002094000000FC1900087D
:101DB000541E0008940000201C0400000C1A0008A7
:101DC0000000000000000000E803E803E803E80367
:101DD000E803E803E803E803E803E803E803000096
:101DE000AAAF031B0000000000000000000000007C
:101DF00000000000000000000000000000000000E3
:101E000000000000000000000000000000000000D2
:101E1000000000000000000000000000CDAB103208
:101E200000000000040100000000010203040102A0
:101E300003040607080902040608000000A24A0479
:101E4000000000000000000001020304060708096A
:041E5000000000008E
:04000005080000ED02
:00000001FF
